{
  "_format": "hh-sol-artifact-1",
  "contractName": "TokenEscrow",
  "sourceName": "contracts/TokenEscrow.sol",
  "abi": [
    {
      "anonymous": false,
      "inputs": [
        {
          "indexed": true,
          "internalType": "address",
          "name": "previousOwner",
          "type": "address"
        },
        {
          "indexed": true,
          "internalType": "address",
          "name": "newOwner",
          "type": "address"
        }
      ],
      "name": "OwnershipTransferred",
      "type": "event"
    },
    {
      "inputs": [
        {
          "internalType": "address",
          "name": "payee",
          "type": "address"
        },
        {
          "internalType": "address",
          "name": "tokenAddress",
          "type": "address"
        },
        {
          "internalType": "uint256",
          "name": "amount",
          "type": "uint256"
        }
      ],
      "name": "deposit",
      "outputs": [],
      "stateMutability": "nonpayable",
      "type": "function"
    },
    {
      "inputs": [
        {
          "internalType": "address",
          "name": "payee",
          "type": "address"
        },
        {
          "internalType": "address",
          "name": "tokenAddress",
          "type": "address"
        }
      ],
      "name": "depositsOf",
      "outputs": [
        {
          "internalType": "uint256",
          "name": "",
          "type": "uint256"
        }
      ],
      "stateMutability": "view",
      "type": "function"
    },
    {
      "inputs": [],
      "name": "owner",
      "outputs": [
        {
          "internalType": "address",
          "name": "",
          "type": "address"
        }
      ],
      "stateMutability": "view",
      "type": "function"
    },
    {
      "inputs": [],
      "name": "renounceOwnership",
      "outputs": [],
      "stateMutability": "nonpayable",
      "type": "function"
    },
    {
      "inputs": [
        {
          "internalType": "address",
          "name": "newOwner",
          "type": "address"
        }
      ],
      "name": "transferOwnership",
      "outputs": [],
      "stateMutability": "nonpayable",
      "type": "function"
    },
    {
      "inputs": [
        {
          "internalType": "address",
          "name": "payee",
          "type": "address"
        },
        {
          "internalType": "address",
          "name": "tokenAddress",
          "type": "address"
        }
      ],
      "name": "withdraw",
      "outputs": [
        {
          "internalType": "bool",
          "name": "",
          "type": "bool"
        }
      ],
      "stateMutability": "nonpayable",
      "type": "function"
    }
  ],
  "bytecode": "0x608060405234801561001057600080fd5b5061001a3361001f565b61006f565b600080546001600160a01b038381166001600160a01b0319831681178455604051919092169283917f8be0079c531659141344cd1fd0a4f28419497f9722a3daafe3b4186f6b6457e09190a35050565b61051c8061007e6000396000f3fe608060405234801561001057600080fd5b50600436106100625760003560e01c8063715018a6146100675780638340f549146100715780638da5cb5b14610084578063e763ca16146100a4578063f2fde38b146100c5578063f940e385146100d8575b600080fd5b61006f6100fb565b005b61006f61007f3660046103f7565b61010f565b6000546040516001600160a01b0390911681526020015b60405180910390f35b6100b76100b2366004610433565b610158565b60405190815260200161009b565b61006f6100d3366004610466565b610185565b6100eb6100e6366004610433565b610203565b604051901515815260200161009b565b610103610331565b61010d600061038b565b565b610117610331565b6001600160a01b0380841660009081526001602090815260408083209386168352929052908120805483929061014e90849061049e565b9091555050505050565b6001600160a01b038083166000908152600160209081526040808320938516835292905220545b92915050565b61018d610331565b6001600160a01b0381166101f75760405162461bcd60e51b815260206004820152602660248201527f4f776e61626c653a206e6577206f776e657220697320746865207a65726f206160448201526564647265737360d01b60648201526084015b60405180910390fd5b6102008161038b565b50565b600061020d610331565b6001600160a01b03808416600090815260016020908152604080832093861683529290522054806102755760405162461bcd60e51b8152602060048201526012602482015271496e73756666696369656e742066756e647360701b60448201526064016101ee565b6001600160a01b038085166000908152600160209081526040808320938716835292905290812080548392906102ac9084906104b1565b909155505060405163a9059cbb60e01b81526001600160a01b038581166004830152602482018390526000919085169063a9059cbb906044016020604051808303816000875af1158015610304573d6000803e3d6000fd5b505050506040513d601f19601f8201168201806040525081019061032891906104c4565b95945050505050565b6000546001600160a01b0316331461010d5760405162461bcd60e51b815260206004820181905260248201527f4f776e61626c653a2063616c6c6572206973206e6f7420746865206f776e657260448201526064016101ee565b600080546001600160a01b038381166001600160a01b0319831681178455604051919092169283917f8be0079c531659141344cd1fd0a4f28419497f9722a3daafe3b4186f6b6457e09190a35050565b80356001600160a01b03811681146103f257600080fd5b919050565b60008060006060848603121561040c57600080fd5b610415846103db565b9250610423602085016103db565b9150604084013590509250925092565b6000806040838503121561044657600080fd5b61044f836103db565b915061045d602084016103db565b90509250929050565b60006020828403121561047857600080fd5b610481826103db565b9392505050565b634e487b7160e01b600052601160045260246000fd5b8082018082111561017f5761017f610488565b8181038181111561017f5761017f610488565b6000602082840312156104d657600080fd5b8151801515811461048157600080fdfea2646970667358221220c59cc26656142c2d7de6588d90a370e4d94c1e979446588472c8b61d3378a8a064736f6c63430008110033",
  "linkReferences": {},
  "deployedLinkReferences": {}
}