{
  "_format": "hh-sol-artifact-1",
  "contractName": "NFTMock",
  "sourceName": "contracts/NFTMock.sol",
  "abi": [
    {
      "inputs": [],
      "stateMutability": "nonpayable",
      "type": "constructor"
    },
    {
      "anonymous": false,
      "inputs": [
        {
          "indexed": true,
          "internalType": "address",
          "name": "owner",
          "type": "address"
        },
        {
          "indexed": true,
          "internalType": "address",
          "name": "approved",
          "type": "address"
        },
        {
          "indexed": true,
          "internalType": "uint256",
          "name": "tokenId",
          "type": "uint256"
        }
      ],
      "name": "Approval",
      "type": "event"
    },
    {
      "anonymous": false,
      "inputs": [
        {
          "indexed": true,
          "internalType": "address",
          "name": "owner",
          "type": "address"
        },
        {
          "indexed": true,
          "internalType": "address",
          "name": "operator",
          "type": "address"
        },
        {
          "indexed": false,
          "internalType": "bool",
          "name": "approved",
          "type": "bool"
        }
      ],
      "name": "ApprovalForAll",
      "type": "event"
    },
    {
      "anonymous": false,
      "inputs": [
        {
          "indexed": true,
          "internalType": "bytes32",
          "name": "role",
          "type": "bytes32"
        },
        {
          "indexed": true,
          "internalType": "bytes32",
          "name": "previousAdminRole",
          "type": "bytes32"
        },
        {
          "indexed": true,
          "internalType": "bytes32",
          "name": "newAdminRole",
          "type": "bytes32"
        }
      ],
      "name": "RoleAdminChanged",
      "type": "event"
    },
    {
      "anonymous": false,
      "inputs": [
        {
          "indexed": true,
          "internalType": "bytes32",
          "name": "role",
          "type": "bytes32"
        },
        {
          "indexed": true,
          "internalType": "address",
          "name": "account",
          "type": "address"
        },
        {
          "indexed": true,
          "internalType": "address",
          "name": "sender",
          "type": "address"
        }
      ],
      "name": "RoleGranted",
      "type": "event"
    },
    {
      "anonymous": false,
      "inputs": [
        {
          "indexed": true,
          "internalType": "bytes32",
          "name": "role",
          "type": "bytes32"
        },
        {
          "indexed": true,
          "internalType": "address",
          "name": "account",
          "type": "address"
        },
        {
          "indexed": true,
          "internalType": "address",
          "name": "sender",
          "type": "address"
        }
      ],
      "name": "RoleRevoked",
      "type": "event"
    },
    {
      "anonymous": false,
      "inputs": [
        {
          "indexed": true,
          "internalType": "address",
          "name": "from",
          "type": "address"
        },
        {
          "indexed": true,
          "internalType": "address",
          "name": "to",
          "type": "address"
        },
        {
          "indexed": true,
          "internalType": "uint256",
          "name": "tokenId",
          "type": "uint256"
        }
      ],
      "name": "Transfer",
      "type": "event"
    },
    {
      "inputs": [],
      "name": "DEFAULT_ADMIN_ROLE",
      "outputs": [
        {
          "internalType": "bytes32",
          "name": "",
          "type": "bytes32"
        }
      ],
      "stateMutability": "view",
      "type": "function"
    },
    {
      "inputs": [],
      "name": "MINTER_ROLE",
      "outputs": [
        {
          "internalType": "bytes32",
          "name": "",
          "type": "bytes32"
        }
      ],
      "stateMutability": "view",
      "type": "function"
    },
    {
      "inputs": [
        {
          "internalType": "address",
          "name": "to",
          "type": "address"
        },
        {
          "internalType": "uint256",
          "name": "tokenId",
          "type": "uint256"
        }
      ],
      "name": "approve",
      "outputs": [],
      "stateMutability": "nonpayable",
      "type": "function"
    },
    {
      "inputs": [
        {
          "internalType": "address",
          "name": "owner",
          "type": "address"
        }
      ],
      "name": "balanceOf",
      "outputs": [
        {
          "internalType": "uint256",
          "name": "",
          "type": "uint256"
        }
      ],
      "stateMutability": "view",
      "type": "function"
    },
    {
      "inputs": [
        {
          "internalType": "uint256",
          "name": "tokenId",
          "type": "uint256"
        }
      ],
      "name": "getApproved",
      "outputs": [
        {
          "internalType": "address",
          "name": "",
          "type": "address"
        }
      ],
      "stateMutability": "view",
      "type": "function"
    },
    {
      "inputs": [
        {
          "internalType": "bytes32",
          "name": "role",
          "type": "bytes32"
        }
      ],
      "name": "getRoleAdmin",
      "outputs": [
        {
          "internalType": "bytes32",
          "name": "",
          "type": "bytes32"
        }
      ],
      "stateMutability": "view",
      "type": "function"
    },
    {
      "inputs": [
        {
          "internalType": "bytes32",
          "name": "role",
          "type": "bytes32"
        },
        {
          "internalType": "address",
          "name": "account",
          "type": "address"
        }
      ],
      "name": "grantRole",
      "outputs": [],
      "stateMutability": "nonpayable",
      "type": "function"
    },
    {
      "inputs": [
        {
          "internalType": "bytes32",
          "name": "role",
          "type": "bytes32"
        },
        {
          "internalType": "address",
          "name": "account",
          "type": "address"
        }
      ],
      "name": "hasRole",
      "outputs": [
        {
          "internalType": "bool",
          "name": "",
          "type": "bool"
        }
      ],
      "stateMutability": "view",
      "type": "function"
    },
    {
      "inputs": [
        {
          "internalType": "address",
          "name": "owner",
          "type": "address"
        },
        {
          "internalType": "address",
          "name": "operator",
          "type": "address"
        }
      ],
      "name": "isApprovedForAll",
      "outputs": [
        {
          "internalType": "bool",
          "name": "",
          "type": "bool"
        }
      ],
      "stateMutability": "view",
      "type": "function"
    },
    {
      "inputs": [],
      "name": "name",
      "outputs": [
        {
          "internalType": "string",
          "name": "",
          "type": "string"
        }
      ],
      "stateMutability": "view",
      "type": "function"
    },
    {
      "inputs": [
        {
          "internalType": "uint256",
          "name": "tokenId",
          "type": "uint256"
        }
      ],
      "name": "ownerOf",
      "outputs": [
        {
          "internalType": "address",
          "name": "",
          "type": "address"
        }
      ],
      "stateMutability": "view",
      "type": "function"
    },
    {
      "inputs": [
        {
          "internalType": "bytes32",
          "name": "role",
          "type": "bytes32"
        },
        {
          "internalType": "address",
          "name": "account",
          "type": "address"
        }
      ],
      "name": "renounceRole",
      "outputs": [],
      "stateMutability": "nonpayable",
      "type": "function"
    },
    {
      "inputs": [
        {
          "internalType": "bytes32",
          "name": "role",
          "type": "bytes32"
        },
        {
          "internalType": "address",
          "name": "account",
          "type": "address"
        }
      ],
      "name": "revokeRole",
      "outputs": [],
      "stateMutability": "nonpayable",
      "type": "function"
    },
    {
      "inputs": [
        {
          "internalType": "address",
          "name": "to",
          "type": "address"
        }
      ],
      "name": "safeMint",
      "outputs": [],
      "stateMutability": "nonpayable",
      "type": "function"
    },
    {
      "inputs": [
        {
          "internalType": "address",
          "name": "from",
          "type": "address"
        },
        {
          "internalType": "address",
          "name": "to",
          "type": "address"
        },
        {
          "internalType": "uint256",
          "name": "tokenId",
          "type": "uint256"
        }
      ],
      "name": "safeTransferFrom",
      "outputs": [],
      "stateMutability": "nonpayable",
      "type": "function"
    },
    {
      "inputs": [
        {
          "internalType": "address",
          "name": "from",
          "type": "address"
        },
        {
          "internalType": "address",
          "name": "to",
          "type": "address"
        },
        {
          "internalType": "uint256",
          "name": "tokenId",
          "type": "uint256"
        },
        {
          "internalType": "bytes",
          "name": "data",
          "type": "bytes"
        }
      ],
      "name": "safeTransferFrom",
      "outputs": [],
      "stateMutability": "nonpayable",
      "type": "function"
    },
    {
      "inputs": [
        {
          "internalType": "address",
          "name": "operator",
          "type": "address"
        },
        {
          "internalType": "bool",
          "name": "approved",
          "type": "bool"
        }
      ],
      "name": "setApprovalForAll",
      "outputs": [],
      "stateMutability": "nonpayable",
      "type": "function"
    },
    {
      "inputs": [
        {
          "internalType": "bytes4",
          "name": "interfaceId",
          "type": "bytes4"
        }
      ],
      "name": "supportsInterface",
      "outputs": [
        {
          "internalType": "bool",
          "name": "",
          "type": "bool"
        }
      ],
      "stateMutability": "view",
      "type": "function"
    },
    {
      "inputs": [],
      "name": "symbol",
      "outputs": [
        {
          "internalType": "string",
          "name": "",
          "type": "string"
        }
      ],
      "stateMutability": "view",
      "type": "function"
    },
    {
      "inputs": [
        {
          "internalType": "uint256",
          "name": "tokenId",
          "type": "uint256"
        }
      ],
      "name": "tokenURI",
      "outputs": [
        {
          "internalType": "string",
          "name": "",
          "type": "string"
        }
      ],
      "stateMutability": "view",
      "type": "function"
    },
    {
      "inputs": [
        {
          "internalType": "address",
          "name": "from",
          "type": "address"
        },
        {
          "internalType": "address",
          "name": "to",
          "type": "address"
        },
        {
          "internalType": "uint256",
          "name": "tokenId",
          "type": "uint256"
        }
      ],
      "name": "transferFrom",
      "outputs": [],
      "stateMutability": "nonpayable",
      "type": "function"
    }
  ],
  "bytecode": "0x60806040523480156200001157600080fd5b50604051806040016040528060088152602001674e66742d6d6f636b60c01b815250604051806040016040528060048152602001634d4f434b60e01b815250816000908162000061919062000869565b50600162000070828262000869565b506200008291506000905033620000ae565b6200009d6000805160206200249d83398151915233620000ae565b620000a83362000139565b62000af8565b620000ba828262000197565b620001355760008281526006602090815260408083206001600160a01b03851684529091529020805460ff19166001179055620000f43390565b6001600160a01b0316816001600160a01b0316837f2f8788117e7eff1d82e926ec794901d17c78024a50270940304540a733656f0d60405160405180910390a45b5050565b6000805160206200249d8339815191526200015481620001c4565b60006200016d6007620001d360201b6200085f1760201c565b9050620001866007620001d760201b620008631760201c565b620001928382620001e0565b505050565b60008281526006602090815260408083206001600160a01b038516845290915290205460ff165b92915050565b620001d0813362000202565b50565b5490565b80546001019055565b620001358282604051806020016040528060008152506200028360201b60201c565b6200020e828262000197565b62000135576200022981620002f660201b6200086c1760201c565b6200023f8360206200087e62000309821b17811c565b604051602001620002529291906200095b565b60408051601f198184030181529082905262461bcd60e51b82526200027a9160040162000a02565b60405180910390fd5b6200028f8383620004c9565b6200029e60008484846200065a565b620001925760405162461bcd60e51b815260206004820152603260248201526000805160206200247d83398151915260448201527131b2b4bb32b91034b6b83632b6b2b73a32b960711b60648201526084016200027a565b6060620001be6001600160a01b03831660145b606060006200031a83600262000a2d565b6200032790600262000a47565b6001600160401b03811115620003415762000341620007c5565b6040519080825280601f01601f1916602001820160405280156200036c576020820181803683370190505b509050600360fc1b816000815181106200038a576200038a62000a5d565b60200101906001600160f81b031916908160001a905350600f60fb1b81600181518110620003bc57620003bc62000a5d565b60200101906001600160f81b031916908160001a9053506000620003e284600262000a2d565b620003ef90600162000a47565b90505b600181111562000471576f181899199a1a9b1b9c1cb0b131b232b360811b85600f166010811062000427576200042762000a5d565b1a60f81b82828151811062000440576200044062000a5d565b60200101906001600160f81b031916908160001a90535060049490941c93620004698162000a73565b9050620003f2565b508315620004c25760405162461bcd60e51b815260206004820181905260248201527f537472696e67733a20686578206c656e67746820696e73756666696369656e7460448201526064016200027a565b9392505050565b6001600160a01b038216620005215760405162461bcd60e51b815260206004820181905260248201527f4552433732313a206d696e7420746f20746865207a65726f206164647265737360448201526064016200027a565b6000818152600260205260409020546001600160a01b031615620005885760405162461bcd60e51b815260206004820152601c60248201527f4552433732313a20746f6b656e20616c7265616479206d696e7465640000000060448201526064016200027a565b6000818152600260205260409020546001600160a01b031615620005ef5760405162461bcd60e51b815260206004820152601c60248201527f4552433732313a20746f6b656e20616c7265616479206d696e7465640000000060448201526064016200027a565b6001600160a01b038216600081815260036020908152604080832080546001019055848352600290915280822080546001600160a01b0319168417905551839291907fddf252ad1be2c89b69c2b068fc378daa952ba7f163c4a11628f55a4df523b3ef908290a45050565b60006200067b846001600160a01b0316620007b660201b62000a1a1760201c565b15620007aa57604051630a85bd0160e11b81526001600160a01b0385169063150b7a0290620006b590339089908890889060040162000a8d565b6020604051808303816000875af1925050508015620006f3575060408051601f3d908101601f19168201909252620006f09181019062000acc565b60015b6200078f573d80801562000724576040519150601f19603f3d011682016040523d82523d6000602084013e62000729565b606091505b508051600003620007875760405162461bcd60e51b815260206004820152603260248201526000805160206200247d83398151915260448201527131b2b4bb32b91034b6b83632b6b2b73a32b960711b60648201526084016200027a565b805181602001fd5b6001600160e01b031916630a85bd0160e11b149050620007ae565b5060015b949350505050565b6001600160a01b03163b151590565b634e487b7160e01b600052604160045260246000fd5b600181811c90821680620007f057607f821691505b6020821081036200081157634e487b7160e01b600052602260045260246000fd5b50919050565b601f8211156200019257600081815260208120601f850160051c81016020861015620008405750805b601f850160051c820191505b8181101562000861578281556001016200084c565b505050505050565b81516001600160401b03811115620008855762000885620007c5565b6200089d81620008968454620007db565b8462000817565b602080601f831160018114620008d55760008415620008bc5750858301515b600019600386901b1c1916600185901b17855562000861565b600085815260208120601f198616915b828110156200090657888601518255948401946001909101908401620008e5565b5085821015620009255787850151600019600388901b60f8161c191681555b5050505050600190811b01905550565b60005b838110156200095257818101518382015260200162000938565b50506000910152565b7f416363657373436f6e74726f6c3a206163636f756e74200000000000000000008152600083516200099581601785016020880162000935565b7001034b99036b4b9b9b4b733903937b6329607d1b6017918401918201528351620009c881602884016020880162000935565b01602801949350505050565b60008151808452620009ee81602086016020860162000935565b601f01601f19169290920160200192915050565b602081526000620004c26020830184620009d4565b634e487b7160e01b600052601160045260246000fd5b8082028115828204841417620001be57620001be62000a17565b80820180821115620001be57620001be62000a17565b634e487b7160e01b600052603260045260246000fd5b60008162000a855762000a8562000a17565b506000190190565b6001600160a01b038581168252841660208201526040810183905260806060820181905260009062000ac290830184620009d4565b9695505050505050565b60006020828403121562000adf57600080fd5b81516001600160e01b031981168114620004c257600080fd5b6119758062000b086000396000f3fe608060405234801561001057600080fd5b50600436106101375760003560e01c80636352211e116100b8578063a22cb4651161007c578063a22cb46514610292578063b88d4fde146102a5578063c87b56dd146102b8578063d5391393146102cb578063d547741f146102f2578063e985e9c51461030557600080fd5b80636352211e1461024957806370a082311461025c57806391d148541461026f57806395d89b4114610282578063a217fddf1461028a57600080fd5b8063248a9ca3116100ff578063248a9ca3146101cc5780632f2ff15d146101fd57806336568abe1461021057806340d097c31461022357806342842e0e1461023657600080fd5b806301ffc9a71461013c57806306fdde0314610164578063081812fc14610179578063095ea7b3146101a457806323b872dd146101b9575b600080fd5b61014f61014a3660046113fc565b610341565b60405190151581526020015b60405180910390f35b61016c610352565b60405161015b9190611469565b61018c61018736600461147c565b6103e4565b6040516001600160a01b03909116815260200161015b565b6101b76101b23660046114b1565b61040b565b005b6101b76101c73660046114db565b610525565b6101ef6101da36600461147c565b60009081526006602052604090206001015490565b60405190815260200161015b565b6101b761020b366004611517565b610556565b6101b761021e366004611517565b61057b565b6101b7610231366004611543565b6105f9565b6101b76102443660046114db565b610648565b61018c61025736600461147c565b610663565b6101ef61026a366004611543565b6106c3565b61014f61027d366004611517565b610749565b61016c610774565b6101ef600081565b6101b76102a036600461155e565b610783565b6101b76102b33660046115b0565b61078e565b61016c6102c636600461147c565b6107c6565b6101ef7f9f2df0fed2c77648de5860a4cc508cd0818c85b8b8a1ab4ceeef8d981c8956a681565b6101b7610300366004611517565b61083a565b61014f61031336600461168c565b6001600160a01b03918216600090815260056020908152604080832093909416825291909152205460ff1690565b600061034c82610a29565b92915050565b606060008054610361906116b6565b80601f016020809104026020016040519081016040528092919081815260200182805461038d906116b6565b80156103da5780601f106103af576101008083540402835291602001916103da565b820191906000526020600020905b8154815290600101906020018083116103bd57829003601f168201915b5050505050905090565b60006103ef82610a4e565b506000908152600460205260409020546001600160a01b031690565b600061041682610663565b9050806001600160a01b0316836001600160a01b0316036104885760405162461bcd60e51b815260206004820152602160248201527f4552433732313a20617070726f76616c20746f2063757272656e74206f776e656044820152603960f91b60648201526084015b60405180910390fd5b336001600160a01b03821614806104a457506104a48133610313565b6105165760405162461bcd60e51b815260206004820152603d60248201527f4552433732313a20617070726f76652063616c6c6572206973206e6f7420746f60448201527f6b656e206f776e6572206f7220617070726f76656420666f7220616c6c000000606482015260840161047f565b6105208383610ab0565b505050565b61052f3382610b1e565b61054b5760405162461bcd60e51b815260040161047f906116f0565b610520838383610b9d565b60008281526006602052604090206001015461057181610d01565b6105208383610d0b565b6001600160a01b03811633146105eb5760405162461bcd60e51b815260206004820152602f60248201527f416363657373436f6e74726f6c3a2063616e206f6e6c792072656e6f756e636560448201526e103937b632b9903337b91039b2b63360891b606482015260840161047f565b6105f58282610d91565b5050565b7f9f2df0fed2c77648de5860a4cc508cd0818c85b8b8a1ab4ceeef8d981c8956a661062381610d01565b600061062e60075490565b905061063e600780546001019055565b6105208382610df8565b6105208383836040518060200160405280600081525061078e565b6000818152600260205260408120546001600160a01b03168061034c5760405162461bcd60e51b8152602060048201526018602482015277115490cdcc8c4e881a5b9d985b1a59081d1bdad95b88125160421b604482015260640161047f565b60006001600160a01b03821661072d5760405162461bcd60e51b815260206004820152602960248201527f4552433732313a2061646472657373207a65726f206973206e6f7420612076616044820152683634b21037bbb732b960b91b606482015260840161047f565b506001600160a01b031660009081526003602052604090205490565b60009182526006602090815260408084206001600160a01b0393909316845291905290205460ff1690565b606060018054610361906116b6565b6105f5338383610e12565b6107983383610b1e565b6107b45760405162461bcd60e51b815260040161047f906116f0565b6107c084848484610ee0565b50505050565b60606107d182610a4e565b60006107e860408051602081019091526000815290565b905060008151116108085760405180602001604052806000815250610833565b8061081284610f13565b60405160200161082392919061173d565b6040516020818303038152906040525b9392505050565b60008281526006602052604090206001015461085581610d01565b6105208383610d91565b5490565b80546001019055565b606061034c6001600160a01b03831660145b6060600061088d836002611782565b610898906002611799565b67ffffffffffffffff8111156108b0576108b061159a565b6040519080825280601f01601f1916602001820160405280156108da576020820181803683370190505b509050600360fc1b816000815181106108f5576108f56117ac565b60200101906001600160f81b031916908160001a905350600f60fb1b81600181518110610924576109246117ac565b60200101906001600160f81b031916908160001a9053506000610948846002611782565b610953906001611799565b90505b60018111156109cb576f181899199a1a9b1b9c1cb0b131b232b360811b85600f1660108110610987576109876117ac565b1a60f81b82828151811061099d5761099d6117ac565b60200101906001600160f81b031916908160001a90535060049490941c936109c4816117c2565b9050610956565b5083156108335760405162461bcd60e51b815260206004820181905260248201527f537472696e67733a20686578206c656e67746820696e73756666696369656e74604482015260640161047f565b6001600160a01b03163b151590565b60006001600160e01b03198216637965db0b60e01b148061034c575061034c82610fa6565b6000818152600260205260409020546001600160a01b0316610aad5760405162461bcd60e51b8152602060048201526018602482015277115490cdcc8c4e881a5b9d985b1a59081d1bdad95b88125160421b604482015260640161047f565b50565b600081815260046020526040902080546001600160a01b0319166001600160a01b0384169081179091558190610ae582610663565b6001600160a01b03167f8c5be1e5ebec7d5bd14f71427d1e84f3dd0314c0f7b2291e5b200ac8c7c3b92560405160405180910390a45050565b600080610b2a83610663565b9050806001600160a01b0316846001600160a01b03161480610b7157506001600160a01b0380821660009081526005602090815260408083209388168352929052205460ff165b80610b955750836001600160a01b0316610b8a846103e4565b6001600160a01b0316145b949350505050565b826001600160a01b0316610bb082610663565b6001600160a01b031614610bd65760405162461bcd60e51b815260040161047f906117d9565b6001600160a01b038216610c385760405162461bcd60e51b8152602060048201526024808201527f4552433732313a207472616e7366657220746f20746865207a65726f206164646044820152637265737360e01b606482015260840161047f565b826001600160a01b0316610c4b82610663565b6001600160a01b031614610c715760405162461bcd60e51b815260040161047f906117d9565b600081815260046020908152604080832080546001600160a01b03199081169091556001600160a01b0387811680865260038552838620805460001901905590871680865283862080546001019055868652600290945282852080549092168417909155905184937fddf252ad1be2c89b69c2b068fc378daa952ba7f163c4a11628f55a4df523b3ef91a4505050565b610aad8133610ff6565b610d158282610749565b6105f55760008281526006602090815260408083206001600160a01b03851684529091529020805460ff19166001179055610d4d3390565b6001600160a01b0316816001600160a01b0316837f2f8788117e7eff1d82e926ec794901d17c78024a50270940304540a733656f0d60405160405180910390a45050565b610d9b8282610749565b156105f55760008281526006602090815260408083206001600160a01b0385168085529252808320805460ff1916905551339285917ff6391f5c32d9c69d2a47ea670b442974b53935d1edc7fd64eb21e047a839171b9190a45050565b6105f582826040518060200160405280600081525061104f565b816001600160a01b0316836001600160a01b031603610e735760405162461bcd60e51b815260206004820152601960248201527f4552433732313a20617070726f766520746f2063616c6c657200000000000000604482015260640161047f565b6001600160a01b03838116600081815260056020908152604080832094871680845294825291829020805460ff191686151590811790915591519182527f17307eab39ab6107e8899845ad3d59bd9653f200f220920489ca2b5937696c31910160405180910390a3505050565b610eeb848484610b9d565b610ef784848484611082565b6107c05760405162461bcd60e51b815260040161047f9061181e565b60606000610f2083611183565b600101905060008167ffffffffffffffff811115610f4057610f4061159a565b6040519080825280601f01601f191660200182016040528015610f6a576020820181803683370190505b5090508181016020015b600019016f181899199a1a9b1b9c1cb0b131b232b360811b600a86061a8153600a8504945084610f7457509392505050565b60006001600160e01b031982166380ac58cd60e01b1480610fd757506001600160e01b03198216635b5e139f60e01b145b8061034c57506301ffc9a760e01b6001600160e01b031983161461034c565b6110008282610749565b6105f55761100d8161086c565b61101883602061087e565b604051602001611029929190611870565b60408051601f198184030181529082905262461bcd60e51b825261047f91600401611469565b611059838361125b565b6110666000848484611082565b6105205760405162461bcd60e51b815260040161047f9061181e565b60006001600160a01b0384163b1561117857604051630a85bd0160e11b81526001600160a01b0385169063150b7a02906110c69033908990889088906004016118e5565b6020604051808303816000875af1925050508015611101575060408051601f3d908101601f191682019092526110fe91810190611922565b60015b61115e573d80801561112f576040519150601f19603f3d011682016040523d82523d6000602084013e611134565b606091505b5080516000036111565760405162461bcd60e51b815260040161047f9061181e565b805181602001fd5b6001600160e01b031916630a85bd0160e11b149050610b95565b506001949350505050565b60008072184f03e93ff9f4daa797ed6e38ed64bf6a1f0160401b83106111c25772184f03e93ff9f4daa797ed6e38ed64bf6a1f0160401b830492506040015b6d04ee2d6d415b85acef810000000083106111ee576d04ee2d6d415b85acef8100000000830492506020015b662386f26fc10000831061120c57662386f26fc10000830492506010015b6305f5e1008310611224576305f5e100830492506008015b612710831061123857612710830492506004015b6064831061124a576064830492506002015b600a831061034c5760010192915050565b6001600160a01b0382166112b15760405162461bcd60e51b815260206004820181905260248201527f4552433732313a206d696e7420746f20746865207a65726f2061646472657373604482015260640161047f565b6000818152600260205260409020546001600160a01b0316156113165760405162461bcd60e51b815260206004820152601c60248201527f4552433732313a20746f6b656e20616c7265616479206d696e74656400000000604482015260640161047f565b6000818152600260205260409020546001600160a01b03161561137b5760405162461bcd60e51b815260206004820152601c60248201527f4552433732313a20746f6b656e20616c7265616479206d696e74656400000000604482015260640161047f565b6001600160a01b038216600081815260036020908152604080832080546001019055848352600290915280822080546001600160a01b0319168417905551839291907fddf252ad1be2c89b69c2b068fc378daa952ba7f163c4a11628f55a4df523b3ef908290a45050565b6001600160e01b031981168114610aad57600080fd5b60006020828403121561140e57600080fd5b8135610833816113e6565b60005b8381101561143457818101518382015260200161141c565b50506000910152565b60008151808452611455816020860160208601611419565b601f01601f19169290920160200192915050565b602081526000610833602083018461143d565b60006020828403121561148e57600080fd5b5035919050565b80356001600160a01b03811681146114ac57600080fd5b919050565b600080604083850312156114c457600080fd5b6114cd83611495565b946020939093013593505050565b6000806000606084860312156114f057600080fd5b6114f984611495565b925061150760208501611495565b9150604084013590509250925092565b6000806040838503121561152a57600080fd5b8235915061153a60208401611495565b90509250929050565b60006020828403121561155557600080fd5b61083382611495565b6000806040838503121561157157600080fd5b61157a83611495565b91506020830135801515811461158f57600080fd5b809150509250929050565b634e487b7160e01b600052604160045260246000fd5b600080600080608085870312156115c657600080fd5b6115cf85611495565b93506115dd60208601611495565b925060408501359150606085013567ffffffffffffffff8082111561160157600080fd5b818701915087601f83011261161557600080fd5b8135818111156116275761162761159a565b604051601f8201601f19908116603f0116810190838211818310171561164f5761164f61159a565b816040528281528a602084870101111561166857600080fd5b82602086016020830137600060208483010152809550505050505092959194509250565b6000806040838503121561169f57600080fd5b6116a883611495565b915061153a60208401611495565b600181811c908216806116ca57607f821691505b6020821081036116ea57634e487b7160e01b600052602260045260246000fd5b50919050565b6020808252602d908201527f4552433732313a2063616c6c6572206973206e6f7420746f6b656e206f776e6560408201526c1c881bdc88185c1c1c9bdd9959609a1b606082015260800190565b6000835161174f818460208801611419565b835190830190611763818360208801611419565b01949350505050565b634e487b7160e01b600052601160045260246000fd5b808202811582820484141761034c5761034c61176c565b8082018082111561034c5761034c61176c565b634e487b7160e01b600052603260045260246000fd5b6000816117d1576117d161176c565b506000190190565b60208082526025908201527f4552433732313a207472616e736665722066726f6d20696e636f72726563742060408201526437bbb732b960d91b606082015260800190565b60208082526032908201527f4552433732313a207472616e7366657220746f206e6f6e20455243373231526560408201527131b2b4bb32b91034b6b83632b6b2b73a32b960711b606082015260800190565b7f416363657373436f6e74726f6c3a206163636f756e74200000000000000000008152600083516118a8816017850160208801611419565b7001034b99036b4b9b9b4b733903937b6329607d1b60179184019182015283516118d9816028840160208801611419565b01602801949350505050565b6001600160a01b03858116825284166020820152604081018390526080606082018190526000906119189083018461143d565b9695505050505050565b60006020828403121561193457600080fd5b8151610833816113e656fea2646970667358221220ec4c7605cc1c796f87fb2556364f0ebdf3ff942e1641c186b6e049782ba571e664736f6c634300081100334552433732313a207472616e7366657220746f206e6f6e2045524337323152659f2df0fed2c77648de5860a4cc508cd0818c85b8b8a1ab4ceeef8d981c8956a6",
  "linkReferences": {},
  "deployedLinkReferences": {}
}