{
  "_format": "hh-sol-artifact-1",
  "contractName": "NFTMock",
  "sourceName": "contracts/NFTMock.sol",
  "abi": [
    {
      "inputs": [],
      "stateMutability": "nonpayable",
      "type": "constructor"
    },
    {
      "anonymous": false,
      "inputs": [
        {
          "indexed": true,
          "internalType": "address",
          "name": "owner",
          "type": "address"
        },
        {
          "indexed": true,
          "internalType": "address",
          "name": "approved",
          "type": "address"
        },
        {
          "indexed": true,
          "internalType": "uint256",
          "name": "tokenId",
          "type": "uint256"
        }
      ],
      "name": "Approval",
      "type": "event"
    },
    {
      "anonymous": false,
      "inputs": [
        {
          "indexed": true,
          "internalType": "address",
          "name": "owner",
          "type": "address"
        },
        {
          "indexed": true,
          "internalType": "address",
          "name": "operator",
          "type": "address"
        },
        {
          "indexed": false,
          "internalType": "bool",
          "name": "approved",
          "type": "bool"
        }
      ],
      "name": "ApprovalForAll",
      "type": "event"
    },
    {
      "anonymous": false,
      "inputs": [
        {
          "indexed": true,
          "internalType": "bytes32",
          "name": "role",
          "type": "bytes32"
        },
        {
          "indexed": true,
          "internalType": "bytes32",
          "name": "previousAdminRole",
          "type": "bytes32"
        },
        {
          "indexed": true,
          "internalType": "bytes32",
          "name": "newAdminRole",
          "type": "bytes32"
        }
      ],
      "name": "RoleAdminChanged",
      "type": "event"
    },
    {
      "anonymous": false,
      "inputs": [
        {
          "indexed": true,
          "internalType": "bytes32",
          "name": "role",
          "type": "bytes32"
        },
        {
          "indexed": true,
          "internalType": "address",
          "name": "account",
          "type": "address"
        },
        {
          "indexed": true,
          "internalType": "address",
          "name": "sender",
          "type": "address"
        }
      ],
      "name": "RoleGranted",
      "type": "event"
    },
    {
      "anonymous": false,
      "inputs": [
        {
          "indexed": true,
          "internalType": "bytes32",
          "name": "role",
          "type": "bytes32"
        },
        {
          "indexed": true,
          "internalType": "address",
          "name": "account",
          "type": "address"
        },
        {
          "indexed": true,
          "internalType": "address",
          "name": "sender",
          "type": "address"
        }
      ],
      "name": "RoleRevoked",
      "type": "event"
    },
    {
      "anonymous": false,
      "inputs": [
        {
          "indexed": true,
          "internalType": "address",
          "name": "from",
          "type": "address"
        },
        {
          "indexed": true,
          "internalType": "address",
          "name": "to",
          "type": "address"
        },
        {
          "indexed": true,
          "internalType": "uint256",
          "name": "tokenId",
          "type": "uint256"
        }
      ],
      "name": "Transfer",
      "type": "event"
    },
    {
      "inputs": [],
      "name": "DEFAULT_ADMIN_ROLE",
      "outputs": [
        {
          "internalType": "bytes32",
          "name": "",
          "type": "bytes32"
        }
      ],
      "stateMutability": "view",
      "type": "function"
    },
    {
      "inputs": [],
      "name": "MINTER_ROLE",
      "outputs": [
        {
          "internalType": "bytes32",
          "name": "",
          "type": "bytes32"
        }
      ],
      "stateMutability": "view",
      "type": "function"
    },
    {
      "inputs": [
        {
          "internalType": "address",
          "name": "to",
          "type": "address"
        },
        {
          "internalType": "uint256",
          "name": "tokenId",
          "type": "uint256"
        }
      ],
      "name": "approve",
      "outputs": [],
      "stateMutability": "nonpayable",
      "type": "function"
    },
    {
      "inputs": [
        {
          "internalType": "address",
          "name": "owner",
          "type": "address"
        }
      ],
      "name": "balanceOf",
      "outputs": [
        {
          "internalType": "uint256",
          "name": "",
          "type": "uint256"
        }
      ],
      "stateMutability": "view",
      "type": "function"
    },
    {
      "inputs": [
        {
          "internalType": "uint256",
          "name": "tokenId",
          "type": "uint256"
        }
      ],
      "name": "getApproved",
      "outputs": [
        {
          "internalType": "address",
          "name": "",
          "type": "address"
        }
      ],
      "stateMutability": "view",
      "type": "function"
    },
    {
      "inputs": [
        {
          "internalType": "bytes32",
          "name": "role",
          "type": "bytes32"
        }
      ],
      "name": "getRoleAdmin",
      "outputs": [
        {
          "internalType": "bytes32",
          "name": "",
          "type": "bytes32"
        }
      ],
      "stateMutability": "view",
      "type": "function"
    },
    {
      "inputs": [
        {
          "internalType": "bytes32",
          "name": "role",
          "type": "bytes32"
        },
        {
          "internalType": "address",
          "name": "account",
          "type": "address"
        }
      ],
      "name": "grantRole",
      "outputs": [],
      "stateMutability": "nonpayable",
      "type": "function"
    },
    {
      "inputs": [
        {
          "internalType": "bytes32",
          "name": "role",
          "type": "bytes32"
        },
        {
          "internalType": "address",
          "name": "account",
          "type": "address"
        }
      ],
      "name": "hasRole",
      "outputs": [
        {
          "internalType": "bool",
          "name": "",
          "type": "bool"
        }
      ],
      "stateMutability": "view",
      "type": "function"
    },
    {
      "inputs": [
        {
          "internalType": "address",
          "name": "owner",
          "type": "address"
        },
        {
          "internalType": "address",
          "name": "operator",
          "type": "address"
        }
      ],
      "name": "isApprovedForAll",
      "outputs": [
        {
          "internalType": "bool",
          "name": "",
          "type": "bool"
        }
      ],
      "stateMutability": "view",
      "type": "function"
    },
    {
      "inputs": [
        {
          "internalType": "address",
          "name": "to",
          "type": "address"
        },
        {
          "internalType": "uint256",
          "name": "tokenId",
          "type": "uint256"
        }
      ],
      "name": "mint",
      "outputs": [],
      "stateMutability": "nonpayable",
      "type": "function"
    },
    {
      "inputs": [],
      "name": "name",
      "outputs": [
        {
          "internalType": "string",
          "name": "",
          "type": "string"
        }
      ],
      "stateMutability": "view",
      "type": "function"
    },
    {
      "inputs": [
        {
          "internalType": "uint256",
          "name": "tokenId",
          "type": "uint256"
        }
      ],
      "name": "ownerOf",
      "outputs": [
        {
          "internalType": "address",
          "name": "",
          "type": "address"
        }
      ],
      "stateMutability": "view",
      "type": "function"
    },
    {
      "inputs": [
        {
          "internalType": "bytes32",
          "name": "role",
          "type": "bytes32"
        },
        {
          "internalType": "address",
          "name": "account",
          "type": "address"
        }
      ],
      "name": "renounceRole",
      "outputs": [],
      "stateMutability": "nonpayable",
      "type": "function"
    },
    {
      "inputs": [
        {
          "internalType": "bytes32",
          "name": "role",
          "type": "bytes32"
        },
        {
          "internalType": "address",
          "name": "account",
          "type": "address"
        }
      ],
      "name": "revokeRole",
      "outputs": [],
      "stateMutability": "nonpayable",
      "type": "function"
    },
    {
      "inputs": [
        {
          "internalType": "address",
          "name": "to",
          "type": "address"
        }
      ],
      "name": "safeMint",
      "outputs": [],
      "stateMutability": "nonpayable",
      "type": "function"
    },
    {
      "inputs": [
        {
          "internalType": "address",
          "name": "from",
          "type": "address"
        },
        {
          "internalType": "address",
          "name": "to",
          "type": "address"
        },
        {
          "internalType": "uint256",
          "name": "tokenId",
          "type": "uint256"
        }
      ],
      "name": "safeTransferFrom",
      "outputs": [],
      "stateMutability": "nonpayable",
      "type": "function"
    },
    {
      "inputs": [
        {
          "internalType": "address",
          "name": "from",
          "type": "address"
        },
        {
          "internalType": "address",
          "name": "to",
          "type": "address"
        },
        {
          "internalType": "uint256",
          "name": "tokenId",
          "type": "uint256"
        },
        {
          "internalType": "bytes",
          "name": "data",
          "type": "bytes"
        }
      ],
      "name": "safeTransferFrom",
      "outputs": [],
      "stateMutability": "nonpayable",
      "type": "function"
    },
    {
      "inputs": [
        {
          "internalType": "address",
          "name": "operator",
          "type": "address"
        },
        {
          "internalType": "bool",
          "name": "approved",
          "type": "bool"
        }
      ],
      "name": "setApprovalForAll",
      "outputs": [],
      "stateMutability": "nonpayable",
      "type": "function"
    },
    {
      "inputs": [
        {
          "internalType": "bytes4",
          "name": "interfaceId",
          "type": "bytes4"
        }
      ],
      "name": "supportsInterface",
      "outputs": [
        {
          "internalType": "bool",
          "name": "",
          "type": "bool"
        }
      ],
      "stateMutability": "view",
      "type": "function"
    },
    {
      "inputs": [],
      "name": "symbol",
      "outputs": [
        {
          "internalType": "string",
          "name": "",
          "type": "string"
        }
      ],
      "stateMutability": "view",
      "type": "function"
    },
    {
      "inputs": [
        {
          "internalType": "uint256",
          "name": "index",
          "type": "uint256"
        }
      ],
      "name": "tokenByIndex",
      "outputs": [
        {
          "internalType": "uint256",
          "name": "",
          "type": "uint256"
        }
      ],
      "stateMutability": "view",
      "type": "function"
    },
    {
      "inputs": [
        {
          "internalType": "address",
          "name": "owner",
          "type": "address"
        },
        {
          "internalType": "uint256",
          "name": "index",
          "type": "uint256"
        }
      ],
      "name": "tokenOfOwnerByIndex",
      "outputs": [
        {
          "internalType": "uint256",
          "name": "",
          "type": "uint256"
        }
      ],
      "stateMutability": "view",
      "type": "function"
    },
    {
      "inputs": [
        {
          "internalType": "uint256",
          "name": "tokenId",
          "type": "uint256"
        }
      ],
      "name": "tokenURI",
      "outputs": [
        {
          "internalType": "string",
          "name": "",
          "type": "string"
        }
      ],
      "stateMutability": "view",
      "type": "function"
    },
    {
      "inputs": [],
      "name": "totalSupply",
      "outputs": [
        {
          "internalType": "uint256",
          "name": "",
          "type": "uint256"
        }
      ],
      "stateMutability": "view",
      "type": "function"
    },
    {
      "inputs": [
        {
          "internalType": "address",
          "name": "from",
          "type": "address"
        },
        {
          "internalType": "address",
          "name": "to",
          "type": "address"
        },
        {
          "internalType": "uint256",
          "name": "tokenId",
          "type": "uint256"
        }
      ],
      "name": "transferFrom",
      "outputs": [],
      "stateMutability": "nonpayable",
      "type": "function"
    }
  ],
  "bytecode": "0x60806040523480156200001157600080fd5b50604051806040016040528060088152602001674e66742d6d6f636b60c01b815250604051806040016040528060048152602001634d4f434b60e01b8152508160009081620000619190620009ba565b506001620000708282620009ba565b506200008291506000905033620000bf565b620000ae7f9f2df0fed2c77648de5860a4cc508cd0818c85b8b8a1ab4ceeef8d981c8956a633620000bf565b620000b9336200014a565b62000b7a565b620000cb828262000188565b62000146576000828152600a602090815260408083206001600160a01b03851684529091529020805460ff19166001179055620001053390565b6001600160a01b0316816001600160a01b0316837f2f8788117e7eff1d82e926ec794901d17c78024a50270940304540a733656f0d60405160405180910390a45b5050565b600062000163600b620001b560201b620009e51760201c565b90506200017c600b620001b960201b620009e91760201c565b620001468282620001c2565b6000828152600a602090815260408083206001600160a01b038516845290915290205460ff165b92915050565b5490565b80546001019055565b62000146828260405180602001604052806000815250620001e460201b60201c565b620001f0838362000260565b620001ff600084848462000401565b6200025b5760405162461bcd60e51b81526020600482015260326024820152600080516020620029b283398151915260448201527131b2b4bb32b91034b6b83632b6b2b73a32b960711b60648201526084015b60405180910390fd5b505050565b6001600160a01b038216620002b85760405162461bcd60e51b815260206004820181905260248201527f4552433732313a206d696e7420746f20746865207a65726f2061646472657373604482015260640162000252565b6000818152600260205260409020546001600160a01b0316156200031f5760405162461bcd60e51b815260206004820152601c60248201527f4552433732313a20746f6b656e20616c7265616479206d696e74656400000000604482015260640162000252565b6200032f6000838360016200055d565b6000818152600260205260409020546001600160a01b031615620003965760405162461bcd60e51b815260206004820152601c60248201527f4552433732313a20746f6b656e20616c7265616479206d696e74656400000000604482015260640162000252565b6001600160a01b038216600081815260036020908152604080832080546001019055848352600290915280822080546001600160a01b0319168417905551839291907fddf252ad1be2c89b69c2b068fc378daa952ba7f163c4a11628f55a4df523b3ef908290a45050565b600062000422846001600160a01b0316620006c760201b620009f21760201c565b156200055157604051630a85bd0160e11b81526001600160a01b0385169063150b7a02906200045c90339089908890889060040162000a86565b6020604051808303816000875af19250505080156200049a575060408051601f3d908101601f19168201909252620004979181019062000af9565b60015b62000536573d808015620004cb576040519150601f19603f3d011682016040523d82523d6000602084013e620004d0565b606091505b5080516000036200052e5760405162461bcd60e51b81526020600482015260326024820152600080516020620029b283398151915260448201527131b2b4bb32b91034b6b83632b6b2b73a32b960711b606482015260840162000252565b805181602001fd5b6001600160e01b031916630a85bd0160e11b14905062000555565b5060015b949350505050565b6200057684848484620006c160201b620009461760201c565b6001811115620005ef5760405162461bcd60e51b815260206004820152603560248201527f455243373231456e756d657261626c653a20636f6e736563757469766520747260448201527f616e7366657273206e6f7420737570706f727465640000000000000000000000606482015260840162000252565b816001600160a01b0385166200064e576200064881600880546000838152600960205260408120829055600182018355919091527ff3f7a9fe364faab93b216da50a3214154f22a0a2b415b23a84c8169e8b636ee30155565b62000674565b836001600160a01b0316856001600160a01b0316146200067457620006748582620006d6565b6001600160a01b03841662000694576200068e8162000783565b620006ba565b846001600160a01b0316846001600160a01b031614620006ba57620006ba84826200083d565b5050505050565b50505050565b6001600160a01b03163b151590565b60006001620006f0846200088e60201b620008491760201c565b620006fc919062000b2c565b60008381526007602052604090205490915080821462000750576001600160a01b03841660009081526006602090815260408083208584528252808320548484528184208190558352600790915290208190555b5060009182526007602090815260408084208490556001600160a01b039094168352600681528383209183525290812055565b600854600090620007979060019062000b2c565b60008381526009602052604081205460088054939450909284908110620007c257620007c262000b4e565b906000526020600020015490508060088381548110620007e657620007e662000b4e565b600091825260208083209091019290925582815260099091526040808220849055858252812055600880548062000821576200082162000b64565b6001900381819060005260206000200160009055905550505050565b600062000855836200088e60201b620008491760201c565b6001600160a01b039093166000908152600660209081526040808320868452825280832085905593825260079052919091209190915550565b60006001600160a01b038216620008fa5760405162461bcd60e51b815260206004820152602960248201527f4552433732313a2061646472657373207a65726f206973206e6f7420612076616044820152683634b21037bbb732b960b91b606482015260840162000252565b506001600160a01b031660009081526003602052604090205490565b634e487b7160e01b600052604160045260246000fd5b600181811c908216806200094157607f821691505b6020821081036200096257634e487b7160e01b600052602260045260246000fd5b50919050565b601f8211156200025b57600081815260208120601f850160051c81016020861015620009915750805b601f850160051c820191505b81811015620009b2578281556001016200099d565b505050505050565b81516001600160401b03811115620009d657620009d662000916565b620009ee81620009e784546200092c565b8462000968565b602080601f83116001811462000a26576000841562000a0d5750858301515b600019600386901b1c1916600185901b178555620009b2565b600085815260208120601f198616915b8281101562000a575788860151825594840194600190910190840162000a36565b508582101562000a765787850151600019600388901b60f8161c191681555b5050505050600190811b01905550565b600060018060a01b038087168352602081871681850152856040850152608060608501528451915081608085015260005b8281101562000ad55785810182015185820160a00152810162000ab7565b5050600060a0828501015260a0601f19601f83011684010191505095945050505050565b60006020828403121562000b0c57600080fd5b81516001600160e01b03198116811462000b2557600080fd5b9392505050565b81810381811115620001af57634e487b7160e01b600052601160045260246000fd5b634e487b7160e01b600052603260045260246000fd5b634e487b7160e01b600052603160045260246000fd5b611e288062000b8a6000396000f3fe608060405234801561001057600080fd5b50600436106101735760003560e01c806342842e0e116100de578063a217fddf11610097578063c87b56dd11610071578063c87b56dd14610331578063d539139314610344578063d547741f1461036b578063e985e9c51461037e57600080fd5b8063a217fddf14610303578063a22cb4651461030b578063b88d4fde1461031e57600080fd5b806342842e0e1461029c5780634f6ccce7146102af5780636352211e146102c257806370a08231146102d557806391d14854146102e857806395d89b41146102fb57600080fd5b8063248a9ca311610130578063248a9ca31461021a5780632f2ff15d1461023d5780632f745c591461025057806336568abe1461026357806340c10f191461027657806340d097c31461028957600080fd5b806301ffc9a71461017857806306fdde03146101a0578063081812fc146101b5578063095ea7b3146101e057806318160ddd146101f557806323b872dd14610207575b600080fd5b61018b610186366004611886565b6103ba565b60405190151581526020015b60405180910390f35b6101a86103cb565b60405161019791906118f3565b6101c86101c3366004611906565b61045d565b6040516001600160a01b039091168152602001610197565b6101f36101ee36600461193b565b610484565b005b6008545b604051908152602001610197565b6101f3610215366004611965565b61059e565b6101f9610228366004611906565b6000908152600a602052604090206001015490565b6101f361024b3660046119a1565b6105cf565b6101f961025e36600461193b565b6105f4565b6101f36102713660046119a1565b61068a565b6101f361028436600461193b565b610708565b6101f36102973660046119cd565b610720565b6101f36102aa366004611965565b61073b565b6101f96102bd366004611906565b610756565b6101c86102d0366004611906565b6107e9565b6101f96102e33660046119cd565b610849565b61018b6102f63660046119a1565b6108cf565b6101a86108fa565b6101f9600081565b6101f36103193660046119e8565b610909565b6101f361032c366004611a3a565b610914565b6101a861033f366004611906565b61094c565b6101f97f9f2df0fed2c77648de5860a4cc508cd0818c85b8b8a1ab4ceeef8d981c8956a681565b6101f36103793660046119a1565b6109c0565b61018b61038c366004611b16565b6001600160a01b03918216600090815260056020908152604080832093909416825291909152205460ff1690565b60006103c582610a01565b92915050565b6060600080546103da90611b40565b80601f016020809104026020016040519081016040528092919081815260200182805461040690611b40565b80156104535780601f1061042857610100808354040283529160200191610453565b820191906000526020600020905b81548152906001019060200180831161043657829003601f168201915b5050505050905090565b600061046882610a26565b506000908152600460205260409020546001600160a01b031690565b600061048f826107e9565b9050806001600160a01b0316836001600160a01b0316036105015760405162461bcd60e51b815260206004820152602160248201527f4552433732313a20617070726f76616c20746f2063757272656e74206f776e656044820152603960f91b60648201526084015b60405180910390fd5b336001600160a01b038216148061051d575061051d813361038c565b61058f5760405162461bcd60e51b815260206004820152603d60248201527f4552433732313a20617070726f76652063616c6c6572206973206e6f7420746f60448201527f6b656e206f776e6572206f7220617070726f76656420666f7220616c6c00000060648201526084016104f8565b6105998383610a88565b505050565b6105a83382610af6565b6105c45760405162461bcd60e51b81526004016104f890611b7a565b610599838383610b75565b6000828152600a60205260409020600101546105ea81610ce6565b6105998383610cf0565b60006105ff83610849565b82106106615760405162461bcd60e51b815260206004820152602b60248201527f455243373231456e756d657261626c653a206f776e657220696e646578206f7560448201526a74206f6620626f756e647360a81b60648201526084016104f8565b506001600160a01b03919091166000908152600660209081526040808320938352929052205490565b6001600160a01b03811633146106fa5760405162461bcd60e51b815260206004820152602f60248201527f416363657373436f6e74726f6c3a2063616e206f6e6c792072656e6f756e636560448201526e103937b632b9903337b91039b2b63360891b60648201526084016104f8565b6107048282610d76565b5050565b610716600b80546001019055565b6107048282610ddd565b600061072b600b5490565b9050610716600b80546001019055565b61059983838360405180602001604052806000815250610914565b600061076160085490565b82106107c45760405162461bcd60e51b815260206004820152602c60248201527f455243373231456e756d657261626c653a20676c6f62616c20696e646578206f60448201526b7574206f6620626f756e647360a01b60648201526084016104f8565b600882815481106107d7576107d7611bc7565b90600052602060002001549050919050565b6000818152600260205260408120546001600160a01b0316806103c55760405162461bcd60e51b8152602060048201526018602482015277115490cdcc8c4e881a5b9d985b1a59081d1bdad95b88125160421b60448201526064016104f8565b60006001600160a01b0382166108b35760405162461bcd60e51b815260206004820152602960248201527f4552433732313a2061646472657373207a65726f206973206e6f7420612076616044820152683634b21037bbb732b960b91b60648201526084016104f8565b506001600160a01b031660009081526003602052604090205490565b6000918252600a602090815260408084206001600160a01b0393909316845291905290205460ff1690565b6060600180546103da90611b40565b610704338383610df7565b61091e3383610af6565b61093a5760405162461bcd60e51b81526004016104f890611b7a565b61094684848484610ec5565b50505050565b606061095782610a26565b600061096e60408051602081019091526000815290565b9050600081511161098e57604051806020016040528060008152506109b9565b8061099884610ef8565b6040516020016109a9929190611bdd565b6040516020818303038152906040525b9392505050565b6000828152600a60205260409020600101546109db81610ce6565b6105998383610d76565b5490565b80546001019055565b6001600160a01b03163b151590565b60006001600160e01b03198216637965db0b60e01b14806103c557506103c582610f8b565b6000818152600260205260409020546001600160a01b0316610a855760405162461bcd60e51b8152602060048201526018602482015277115490cdcc8c4e881a5b9d985b1a59081d1bdad95b88125160421b60448201526064016104f8565b50565b600081815260046020526040902080546001600160a01b0319166001600160a01b0384169081179091558190610abd826107e9565b6001600160a01b03167f8c5be1e5ebec7d5bd14f71427d1e84f3dd0314c0f7b2291e5b200ac8c7c3b92560405160405180910390a45050565b600080610b02836107e9565b9050806001600160a01b0316846001600160a01b03161480610b4957506001600160a01b0380821660009081526005602090815260408083209388168352929052205460ff165b80610b6d5750836001600160a01b0316610b628461045d565b6001600160a01b0316145b949350505050565b826001600160a01b0316610b88826107e9565b6001600160a01b031614610bae5760405162461bcd60e51b81526004016104f890611c0c565b6001600160a01b038216610c105760405162461bcd60e51b8152602060048201526024808201527f4552433732313a207472616e7366657220746f20746865207a65726f206164646044820152637265737360e01b60648201526084016104f8565b610c1d8383836001610fb0565b826001600160a01b0316610c30826107e9565b6001600160a01b031614610c565760405162461bcd60e51b81526004016104f890611c0c565b600081815260046020908152604080832080546001600160a01b03199081169091556001600160a01b0387811680865260038552838620805460001901905590871680865283862080546001019055868652600290945282852080549092168417909155905184937fddf252ad1be2c89b69c2b068fc378daa952ba7f163c4a11628f55a4df523b3ef91a4505050565b610a8581336110e4565b610cfa82826108cf565b610704576000828152600a602090815260408083206001600160a01b03851684529091529020805460ff19166001179055610d323390565b6001600160a01b0316816001600160a01b0316837f2f8788117e7eff1d82e926ec794901d17c78024a50270940304540a733656f0d60405160405180910390a45050565b610d8082826108cf565b15610704576000828152600a602090815260408083206001600160a01b0385168085529252808320805460ff1916905551339285917ff6391f5c32d9c69d2a47ea670b442974b53935d1edc7fd64eb21e047a839171b9190a45050565b61070482826040518060200160405280600081525061113d565b816001600160a01b0316836001600160a01b031603610e585760405162461bcd60e51b815260206004820152601960248201527f4552433732313a20617070726f766520746f2063616c6c65720000000000000060448201526064016104f8565b6001600160a01b03838116600081815260056020908152604080832094871680845294825291829020805460ff191686151590811790915591519182527f17307eab39ab6107e8899845ad3d59bd9653f200f220920489ca2b5937696c31910160405180910390a3505050565b610ed0848484610b75565b610edc84848484611170565b6109465760405162461bcd60e51b81526004016104f890611c51565b60606000610f0583611271565b600101905060008167ffffffffffffffff811115610f2557610f25611a24565b6040519080825280601f01601f191660200182016040528015610f4f576020820181803683370190505b5090508181016020015b600019016f181899199a1a9b1b9c1cb0b131b232b360811b600a86061a8153600a8504945084610f5957509392505050565b60006001600160e01b0319821663780e9d6360e01b14806103c557506103c582611349565b600181111561101f5760405162461bcd60e51b815260206004820152603560248201527f455243373231456e756d657261626c653a20636f6e7365637574697665207472604482015274185b9cd9995c9cc81b9bdd081cdd5c1c1bdc9d1959605a1b60648201526084016104f8565b816001600160a01b03851661107b5761107681600880546000838152600960205260408120829055600182018355919091527ff3f7a9fe364faab93b216da50a3214154f22a0a2b415b23a84c8169e8b636ee30155565b61109e565b836001600160a01b0316856001600160a01b03161461109e5761109e8582611399565b6001600160a01b0384166110ba576110b581611436565b6110dd565b846001600160a01b0316846001600160a01b0316146110dd576110dd84826114e5565b5050505050565b6110ee82826108cf565b610704576110fb81611529565b61110683602061153b565b604051602001611117929190611ca3565b60408051601f198184030181529082905262461bcd60e51b82526104f8916004016118f3565b61114783836116d7565b6111546000848484611170565b6105995760405162461bcd60e51b81526004016104f890611c51565b60006001600160a01b0384163b1561126657604051630a85bd0160e11b81526001600160a01b0385169063150b7a02906111b4903390899088908890600401611d18565b6020604051808303816000875af19250505080156111ef575060408051601f3d908101601f191682019092526111ec91810190611d55565b60015b61124c573d80801561121d576040519150601f19603f3d011682016040523d82523d6000602084013e611222565b606091505b5080516000036112445760405162461bcd60e51b81526004016104f890611c51565b805181602001fd5b6001600160e01b031916630a85bd0160e11b149050610b6d565b506001949350505050565b60008072184f03e93ff9f4daa797ed6e38ed64bf6a1f0160401b83106112b05772184f03e93ff9f4daa797ed6e38ed64bf6a1f0160401b830492506040015b6d04ee2d6d415b85acef810000000083106112dc576d04ee2d6d415b85acef8100000000830492506020015b662386f26fc1000083106112fa57662386f26fc10000830492506010015b6305f5e1008310611312576305f5e100830492506008015b612710831061132657612710830492506004015b60648310611338576064830492506002015b600a83106103c55760010192915050565b60006001600160e01b031982166380ac58cd60e01b148061137a57506001600160e01b03198216635b5e139f60e01b145b806103c557506301ffc9a760e01b6001600160e01b03198316146103c5565b600060016113a684610849565b6113b09190611d88565b600083815260076020526040902054909150808214611403576001600160a01b03841660009081526006602090815260408083208584528252808320548484528184208190558352600790915290208190555b5060009182526007602090815260408084208490556001600160a01b039094168352600681528383209183525290812055565b60085460009061144890600190611d88565b6000838152600960205260408120546008805493945090928490811061147057611470611bc7565b90600052602060002001549050806008838154811061149157611491611bc7565b60009182526020808320909101929092558281526009909152604080822084905585825281205560088054806114c9576114c9611d9b565b6001900381819060005260206000200160009055905550505050565b60006114f083610849565b6001600160a01b039093166000908152600660209081526040808320868452825280832085905593825260079052919091209190915550565b60606103c56001600160a01b03831660145b6060600061154a836002611db1565b611555906002611dc8565b67ffffffffffffffff81111561156d5761156d611a24565b6040519080825280601f01601f191660200182016040528015611597576020820181803683370190505b509050600360fc1b816000815181106115b2576115b2611bc7565b60200101906001600160f81b031916908160001a905350600f60fb1b816001815181106115e1576115e1611bc7565b60200101906001600160f81b031916908160001a9053506000611605846002611db1565b611610906001611dc8565b90505b6001811115611688576f181899199a1a9b1b9c1cb0b131b232b360811b85600f166010811061164457611644611bc7565b1a60f81b82828151811061165a5761165a611bc7565b60200101906001600160f81b031916908160001a90535060049490941c9361168181611ddb565b9050611613565b5083156109b95760405162461bcd60e51b815260206004820181905260248201527f537472696e67733a20686578206c656e67746820696e73756666696369656e7460448201526064016104f8565b6001600160a01b03821661172d5760405162461bcd60e51b815260206004820181905260248201527f4552433732313a206d696e7420746f20746865207a65726f206164647265737360448201526064016104f8565b6000818152600260205260409020546001600160a01b0316156117925760405162461bcd60e51b815260206004820152601c60248201527f4552433732313a20746f6b656e20616c7265616479206d696e7465640000000060448201526064016104f8565b6117a0600083836001610fb0565b6000818152600260205260409020546001600160a01b0316156118055760405162461bcd60e51b815260206004820152601c60248201527f4552433732313a20746f6b656e20616c7265616479206d696e7465640000000060448201526064016104f8565b6001600160a01b038216600081815260036020908152604080832080546001019055848352600290915280822080546001600160a01b0319168417905551839291907fddf252ad1be2c89b69c2b068fc378daa952ba7f163c4a11628f55a4df523b3ef908290a45050565b6001600160e01b031981168114610a8557600080fd5b60006020828403121561189857600080fd5b81356109b981611870565b60005b838110156118be5781810151838201526020016118a6565b50506000910152565b600081518084526118df8160208601602086016118a3565b601f01601f19169290920160200192915050565b6020815260006109b960208301846118c7565b60006020828403121561191857600080fd5b5035919050565b80356001600160a01b038116811461193657600080fd5b919050565b6000806040838503121561194e57600080fd5b6119578361191f565b946020939093013593505050565b60008060006060848603121561197a57600080fd5b6119838461191f565b92506119916020850161191f565b9150604084013590509250925092565b600080604083850312156119b457600080fd5b823591506119c46020840161191f565b90509250929050565b6000602082840312156119df57600080fd5b6109b98261191f565b600080604083850312156119fb57600080fd5b611a048361191f565b915060208301358015158114611a1957600080fd5b809150509250929050565b634e487b7160e01b600052604160045260246000fd5b60008060008060808587031215611a5057600080fd5b611a598561191f565b9350611a676020860161191f565b925060408501359150606085013567ffffffffffffffff80821115611a8b57600080fd5b818701915087601f830112611a9f57600080fd5b813581811115611ab157611ab1611a24565b604051601f8201601f19908116603f01168101908382118183101715611ad957611ad9611a24565b816040528281528a6020848701011115611af257600080fd5b82602086016020830137600060208483010152809550505050505092959194509250565b60008060408385031215611b2957600080fd5b611b328361191f565b91506119c46020840161191f565b600181811c90821680611b5457607f821691505b602082108103611b7457634e487b7160e01b600052602260045260246000fd5b50919050565b6020808252602d908201527f4552433732313a2063616c6c6572206973206e6f7420746f6b656e206f776e6560408201526c1c881bdc88185c1c1c9bdd9959609a1b606082015260800190565b634e487b7160e01b600052603260045260246000fd5b60008351611bef8184602088016118a3565b835190830190611c038183602088016118a3565b01949350505050565b60208082526025908201527f4552433732313a207472616e736665722066726f6d20696e636f72726563742060408201526437bbb732b960d91b606082015260800190565b60208082526032908201527f4552433732313a207472616e7366657220746f206e6f6e20455243373231526560408201527131b2b4bb32b91034b6b83632b6b2b73a32b960711b606082015260800190565b7f416363657373436f6e74726f6c3a206163636f756e7420000000000000000000815260008351611cdb8160178501602088016118a3565b7001034b99036b4b9b9b4b733903937b6329607d1b6017918401918201528351611d0c8160288401602088016118a3565b01602801949350505050565b6001600160a01b0385811682528416602082015260408101839052608060608201819052600090611d4b908301846118c7565b9695505050505050565b600060208284031215611d6757600080fd5b81516109b981611870565b634e487b7160e01b600052601160045260246000fd5b818103818111156103c5576103c5611d72565b634e487b7160e01b600052603160045260246000fd5b80820281158282048414176103c5576103c5611d72565b808201808211156103c5576103c5611d72565b600081611dea57611dea611d72565b50600019019056fea2646970667358221220688690f758481a7d94a764d9b2b098f12481292670256dfb55c412e57c26f5dd64736f6c634300081100334552433732313a207472616e7366657220746f206e6f6e204552433732315265",
  "linkReferences": {},
  "deployedLinkReferences": {}
}