{
  "_format": "hh-sol-artifact-1",
  "contractName": "NFTMock",
  "sourceName": "contracts/NFTMock.sol",
  "abi": [
    {
      "inputs": [],
      "stateMutability": "nonpayable",
      "type": "constructor"
    },
    {
      "anonymous": false,
      "inputs": [
        {
          "indexed": true,
          "internalType": "address",
          "name": "owner",
          "type": "address"
        },
        {
          "indexed": true,
          "internalType": "address",
          "name": "approved",
          "type": "address"
        },
        {
          "indexed": true,
          "internalType": "uint256",
          "name": "tokenId",
          "type": "uint256"
        }
      ],
      "name": "Approval",
      "type": "event"
    },
    {
      "anonymous": false,
      "inputs": [
        {
          "indexed": true,
          "internalType": "address",
          "name": "owner",
          "type": "address"
        },
        {
          "indexed": true,
          "internalType": "address",
          "name": "operator",
          "type": "address"
        },
        {
          "indexed": false,
          "internalType": "bool",
          "name": "approved",
          "type": "bool"
        }
      ],
      "name": "ApprovalForAll",
      "type": "event"
    },
    {
      "anonymous": false,
      "inputs": [
        {
          "indexed": true,
          "internalType": "bytes32",
          "name": "role",
          "type": "bytes32"
        },
        {
          "indexed": true,
          "internalType": "bytes32",
          "name": "previousAdminRole",
          "type": "bytes32"
        },
        {
          "indexed": true,
          "internalType": "bytes32",
          "name": "newAdminRole",
          "type": "bytes32"
        }
      ],
      "name": "RoleAdminChanged",
      "type": "event"
    },
    {
      "anonymous": false,
      "inputs": [
        {
          "indexed": true,
          "internalType": "bytes32",
          "name": "role",
          "type": "bytes32"
        },
        {
          "indexed": true,
          "internalType": "address",
          "name": "account",
          "type": "address"
        },
        {
          "indexed": true,
          "internalType": "address",
          "name": "sender",
          "type": "address"
        }
      ],
      "name": "RoleGranted",
      "type": "event"
    },
    {
      "anonymous": false,
      "inputs": [
        {
          "indexed": true,
          "internalType": "bytes32",
          "name": "role",
          "type": "bytes32"
        },
        {
          "indexed": true,
          "internalType": "address",
          "name": "account",
          "type": "address"
        },
        {
          "indexed": true,
          "internalType": "address",
          "name": "sender",
          "type": "address"
        }
      ],
      "name": "RoleRevoked",
      "type": "event"
    },
    {
      "anonymous": false,
      "inputs": [
        {
          "indexed": true,
          "internalType": "address",
          "name": "from",
          "type": "address"
        },
        {
          "indexed": true,
          "internalType": "address",
          "name": "to",
          "type": "address"
        },
        {
          "indexed": true,
          "internalType": "uint256",
          "name": "tokenId",
          "type": "uint256"
        }
      ],
      "name": "Transfer",
      "type": "event"
    },
    {
      "inputs": [],
      "name": "DEFAULT_ADMIN_ROLE",
      "outputs": [
        {
          "internalType": "bytes32",
          "name": "",
          "type": "bytes32"
        }
      ],
      "stateMutability": "view",
      "type": "function"
    },
    {
      "inputs": [],
      "name": "MINTER_ROLE",
      "outputs": [
        {
          "internalType": "bytes32",
          "name": "",
          "type": "bytes32"
        }
      ],
      "stateMutability": "view",
      "type": "function"
    },
    {
      "inputs": [
        {
          "internalType": "address",
          "name": "to",
          "type": "address"
        },
        {
          "internalType": "uint256",
          "name": "tokenId",
          "type": "uint256"
        }
      ],
      "name": "approve",
      "outputs": [],
      "stateMutability": "nonpayable",
      "type": "function"
    },
    {
      "inputs": [
        {
          "internalType": "address",
          "name": "owner",
          "type": "address"
        }
      ],
      "name": "balanceOf",
      "outputs": [
        {
          "internalType": "uint256",
          "name": "",
          "type": "uint256"
        }
      ],
      "stateMutability": "view",
      "type": "function"
    },
    {
      "inputs": [
        {
          "internalType": "uint256",
          "name": "tokenId",
          "type": "uint256"
        }
      ],
      "name": "getApproved",
      "outputs": [
        {
          "internalType": "address",
          "name": "",
          "type": "address"
        }
      ],
      "stateMutability": "view",
      "type": "function"
    },
    {
      "inputs": [
        {
          "internalType": "bytes32",
          "name": "role",
          "type": "bytes32"
        }
      ],
      "name": "getRoleAdmin",
      "outputs": [
        {
          "internalType": "bytes32",
          "name": "",
          "type": "bytes32"
        }
      ],
      "stateMutability": "view",
      "type": "function"
    },
    {
      "inputs": [
        {
          "internalType": "bytes32",
          "name": "role",
          "type": "bytes32"
        },
        {
          "internalType": "address",
          "name": "account",
          "type": "address"
        }
      ],
      "name": "grantRole",
      "outputs": [],
      "stateMutability": "nonpayable",
      "type": "function"
    },
    {
      "inputs": [
        {
          "internalType": "bytes32",
          "name": "role",
          "type": "bytes32"
        },
        {
          "internalType": "address",
          "name": "account",
          "type": "address"
        }
      ],
      "name": "hasRole",
      "outputs": [
        {
          "internalType": "bool",
          "name": "",
          "type": "bool"
        }
      ],
      "stateMutability": "view",
      "type": "function"
    },
    {
      "inputs": [
        {
          "internalType": "address",
          "name": "owner",
          "type": "address"
        },
        {
          "internalType": "address",
          "name": "operator",
          "type": "address"
        }
      ],
      "name": "isApprovedForAll",
      "outputs": [
        {
          "internalType": "bool",
          "name": "",
          "type": "bool"
        }
      ],
      "stateMutability": "view",
      "type": "function"
    },
    {
      "inputs": [
        {
          "internalType": "address",
          "name": "to",
          "type": "address"
        },
        {
          "internalType": "uint256",
          "name": "tokenId",
          "type": "uint256"
        }
      ],
      "name": "mint",
      "outputs": [],
      "stateMutability": "nonpayable",
      "type": "function"
    },
    {
      "inputs": [],
      "name": "name",
      "outputs": [
        {
          "internalType": "string",
          "name": "",
          "type": "string"
        }
      ],
      "stateMutability": "view",
      "type": "function"
    },
    {
      "inputs": [
        {
          "internalType": "uint256",
          "name": "tokenId",
          "type": "uint256"
        }
      ],
      "name": "ownerOf",
      "outputs": [
        {
          "internalType": "address",
          "name": "",
          "type": "address"
        }
      ],
      "stateMutability": "view",
      "type": "function"
    },
    {
      "inputs": [
        {
          "internalType": "bytes32",
          "name": "role",
          "type": "bytes32"
        },
        {
          "internalType": "address",
          "name": "account",
          "type": "address"
        }
      ],
      "name": "renounceRole",
      "outputs": [],
      "stateMutability": "nonpayable",
      "type": "function"
    },
    {
      "inputs": [
        {
          "internalType": "bytes32",
          "name": "role",
          "type": "bytes32"
        },
        {
          "internalType": "address",
          "name": "account",
          "type": "address"
        }
      ],
      "name": "revokeRole",
      "outputs": [],
      "stateMutability": "nonpayable",
      "type": "function"
    },
    {
      "inputs": [
        {
          "internalType": "address",
          "name": "to",
          "type": "address"
        }
      ],
      "name": "safeMint",
      "outputs": [],
      "stateMutability": "nonpayable",
      "type": "function"
    },
    {
      "inputs": [
        {
          "internalType": "address",
          "name": "from",
          "type": "address"
        },
        {
          "internalType": "address",
          "name": "to",
          "type": "address"
        },
        {
          "internalType": "uint256",
          "name": "tokenId",
          "type": "uint256"
        }
      ],
      "name": "safeTransferFrom",
      "outputs": [],
      "stateMutability": "nonpayable",
      "type": "function"
    },
    {
      "inputs": [
        {
          "internalType": "address",
          "name": "from",
          "type": "address"
        },
        {
          "internalType": "address",
          "name": "to",
          "type": "address"
        },
        {
          "internalType": "uint256",
          "name": "tokenId",
          "type": "uint256"
        },
        {
          "internalType": "bytes",
          "name": "data",
          "type": "bytes"
        }
      ],
      "name": "safeTransferFrom",
      "outputs": [],
      "stateMutability": "nonpayable",
      "type": "function"
    },
    {
      "inputs": [
        {
          "internalType": "address",
          "name": "operator",
          "type": "address"
        },
        {
          "internalType": "bool",
          "name": "approved",
          "type": "bool"
        }
      ],
      "name": "setApprovalForAll",
      "outputs": [],
      "stateMutability": "nonpayable",
      "type": "function"
    },
    {
      "inputs": [
        {
          "internalType": "bytes4",
          "name": "interfaceId",
          "type": "bytes4"
        }
      ],
      "name": "supportsInterface",
      "outputs": [
        {
          "internalType": "bool",
          "name": "",
          "type": "bool"
        }
      ],
      "stateMutability": "view",
      "type": "function"
    },
    {
      "inputs": [],
      "name": "symbol",
      "outputs": [
        {
          "internalType": "string",
          "name": "",
          "type": "string"
        }
      ],
      "stateMutability": "view",
      "type": "function"
    },
    {
      "inputs": [
        {
          "internalType": "uint256",
          "name": "tokenId",
          "type": "uint256"
        }
      ],
      "name": "tokenURI",
      "outputs": [
        {
          "internalType": "string",
          "name": "",
          "type": "string"
        }
      ],
      "stateMutability": "view",
      "type": "function"
    },
    {
      "inputs": [
        {
          "internalType": "address",
          "name": "from",
          "type": "address"
        },
        {
          "internalType": "address",
          "name": "to",
          "type": "address"
        },
        {
          "internalType": "uint256",
          "name": "tokenId",
          "type": "uint256"
        }
      ],
      "name": "transferFrom",
      "outputs": [],
      "stateMutability": "nonpayable",
      "type": "function"
    }
  ],
  "bytecode": "0x60806040523480156200001157600080fd5b50604051806040016040528060088152602001674e66742d6d6f636b60c01b815250604051806040016040528060048152602001634d4f434b60e01b8152508160009081620000619190620005ed565b506001620000708282620005ed565b506200008291506000905033620000bf565b620000ae7f9f2df0fed2c77648de5860a4cc508cd0818c85b8b8a1ab4ceeef8d981c8956a633620000bf565b620000b93362000164565b6200075f565b60008281526006602090815260408083206001600160a01b038516845290915290205460ff16620001605760008281526006602090815260408083206001600160a01b03851684529091529020805460ff191660011790556200011f3390565b6001600160a01b0316816001600160a01b0316837f2f8788117e7eff1d82e926ec794901d17c78024a50270940304540a733656f0d60405160405180910390a45b5050565b60006200017d6007620001a260201b620008611760201c565b9050620001966007620001a660201b620008651760201c565b620001608282620001af565b5490565b80546001019055565b62000160828260405180602001604052806000815250620001d160201b60201c565b620001dd83836200024d565b620001ec6000848484620003de565b620002485760405162461bcd60e51b81526020600482015260326024820152600080516020620020e683398151915260448201527131b2b4bb32b91034b6b83632b6b2b73a32b960711b60648201526084015b60405180910390fd5b505050565b6001600160a01b038216620002a55760405162461bcd60e51b815260206004820181905260248201527f4552433732313a206d696e7420746f20746865207a65726f206164647265737360448201526064016200023f565b6000818152600260205260409020546001600160a01b0316156200030c5760405162461bcd60e51b815260206004820152601c60248201527f4552433732313a20746f6b656e20616c7265616479206d696e7465640000000060448201526064016200023f565b6000818152600260205260409020546001600160a01b031615620003735760405162461bcd60e51b815260206004820152601c60248201527f4552433732313a20746f6b656e20616c7265616479206d696e7465640000000060448201526064016200023f565b6001600160a01b038216600081815260036020908152604080832080546001019055848352600290915280822080546001600160a01b0319168417905551839291907fddf252ad1be2c89b69c2b068fc378daa952ba7f163c4a11628f55a4df523b3ef908290a45050565b6000620003ff846001600160a01b03166200053a60201b6200086e1760201c565b156200052e57604051630a85bd0160e11b81526001600160a01b0385169063150b7a029062000439903390899088908890600401620006b9565b6020604051808303816000875af192505050801562000477575060408051601f3d908101601f1916820190925262000474918101906200072c565b60015b62000513573d808015620004a8576040519150601f19603f3d011682016040523d82523d6000602084013e620004ad565b606091505b5080516000036200050b5760405162461bcd60e51b81526020600482015260326024820152600080516020620020e683398151915260448201527131b2b4bb32b91034b6b83632b6b2b73a32b960711b60648201526084016200023f565b805181602001fd5b6001600160e01b031916630a85bd0160e11b14905062000532565b5060015b949350505050565b6001600160a01b03163b151590565b634e487b7160e01b600052604160045260246000fd5b600181811c908216806200057457607f821691505b6020821081036200059557634e487b7160e01b600052602260045260246000fd5b50919050565b601f8211156200024857600081815260208120601f850160051c81016020861015620005c45750805b601f850160051c820191505b81811015620005e557828155600101620005d0565b505050505050565b81516001600160401b0381111562000609576200060962000549565b62000621816200061a84546200055f565b846200059b565b602080601f831160018114620006595760008415620006405750858301515b600019600386901b1c1916600185901b178555620005e5565b600085815260208120601f198616915b828110156200068a5788860151825594840194600190910190840162000669565b5085821015620006a95787850151600019600388901b60f8161c191681555b5050505050600190811b01905550565b600060018060a01b038087168352602081871681850152856040850152608060608501528451915081608085015260005b82811015620007085785810182015185820160a001528101620006ea565b5050600060a0828501015260a0601f19601f83011684010191505095945050505050565b6000602082840312156200073f57600080fd5b81516001600160e01b0319811681146200075857600080fd5b9392505050565b611977806200076f6000396000f3fe608060405234801561001057600080fd5b50600436106101425760003560e01c80636352211e116100b8578063a22cb4651161007c578063a22cb465146102b0578063b88d4fde146102c3578063c87b56dd146102d6578063d5391393146102e9578063d547741f14610310578063e985e9c51461032357600080fd5b80636352211e1461026757806370a082311461027a57806391d148541461028d57806395d89b41146102a0578063a217fddf146102a857600080fd5b8063248a9ca31161010a578063248a9ca3146101d75780632f2ff15d1461020857806336568abe1461021b57806340c10f191461022e57806340d097c31461024157806342842e0e1461025457600080fd5b806301ffc9a71461014757806306fdde031461016f578063081812fc14610184578063095ea7b3146101af57806323b872dd146101c4575b600080fd5b61015a6101553660046113fe565b61035f565b60405190151581526020015b60405180910390f35b610177610370565b604051610166919061146b565b61019761019236600461147e565b610402565b6040516001600160a01b039091168152602001610166565b6101c26101bd3660046114b3565b610429565b005b6101c26101d23660046114dd565b610543565b6101fa6101e536600461147e565b60009081526006602052604090206001015490565b604051908152602001610166565b6101c2610216366004611519565b610574565b6101c2610229366004611519565b610599565b6101c261023c3660046114b3565b610617565b6101c261024f366004611545565b61062f565b6101c26102623660046114dd565b61064a565b61019761027536600461147e565b610665565b6101fa610288366004611545565b6106c5565b61015a61029b366004611519565b61074b565b610177610776565b6101fa600081565b6101c26102be366004611560565b610785565b6101c26102d13660046115b2565b610790565b6101776102e436600461147e565b6107c8565b6101fa7f9f2df0fed2c77648de5860a4cc508cd0818c85b8b8a1ab4ceeef8d981c8956a681565b6101c261031e366004611519565b61083c565b61015a61033136600461168e565b6001600160a01b03918216600090815260056020908152604080832093909416825291909152205460ff1690565b600061036a8261087d565b92915050565b60606000805461037f906116b8565b80601f01602080910402602001604051908101604052809291908181526020018280546103ab906116b8565b80156103f85780601f106103cd576101008083540402835291602001916103f8565b820191906000526020600020905b8154815290600101906020018083116103db57829003601f168201915b5050505050905090565b600061040d826108a2565b506000908152600460205260409020546001600160a01b031690565b600061043482610665565b9050806001600160a01b0316836001600160a01b0316036104a65760405162461bcd60e51b815260206004820152602160248201527f4552433732313a20617070726f76616c20746f2063757272656e74206f776e656044820152603960f91b60648201526084015b60405180910390fd5b336001600160a01b03821614806104c257506104c28133610331565b6105345760405162461bcd60e51b815260206004820152603d60248201527f4552433732313a20617070726f76652063616c6c6572206973206e6f7420746f60448201527f6b656e206f776e6572206f7220617070726f76656420666f7220616c6c000000606482015260840161049d565b61053e8383610904565b505050565b61054d3382610972565b6105695760405162461bcd60e51b815260040161049d906116f2565b61053e8383836109f1565b60008281526006602052604090206001015461058f81610b55565b61053e8383610b5f565b6001600160a01b03811633146106095760405162461bcd60e51b815260206004820152602f60248201527f416363657373436f6e74726f6c3a2063616e206f6e6c792072656e6f756e636560448201526e103937b632b9903337b91039b2b63360891b606482015260840161049d565b6106138282610be5565b5050565b610625600780546001019055565b6106138282610c4c565b600061063a60075490565b9050610625600780546001019055565b61053e83838360405180602001604052806000815250610790565b6000818152600260205260408120546001600160a01b03168061036a5760405162461bcd60e51b8152602060048201526018602482015277115490cdcc8c4e881a5b9d985b1a59081d1bdad95b88125160421b604482015260640161049d565b60006001600160a01b03821661072f5760405162461bcd60e51b815260206004820152602960248201527f4552433732313a2061646472657373207a65726f206973206e6f7420612076616044820152683634b21037bbb732b960b91b606482015260840161049d565b506001600160a01b031660009081526003602052604090205490565b60009182526006602090815260408084206001600160a01b0393909316845291905290205460ff1690565b60606001805461037f906116b8565b610613338383610c66565b61079a3383610972565b6107b65760405162461bcd60e51b815260040161049d906116f2565b6107c284848484610d34565b50505050565b60606107d3826108a2565b60006107ea60408051602081019091526000815290565b9050600081511161080a5760405180602001604052806000815250610835565b8061081484610d67565b60405160200161082592919061173f565b6040516020818303038152906040525b9392505050565b60008281526006602052604090206001015461085781610b55565b61053e8383610be5565b5490565b80546001019055565b6001600160a01b03163b151590565b60006001600160e01b03198216637965db0b60e01b148061036a575061036a82610dfa565b6000818152600260205260409020546001600160a01b03166109015760405162461bcd60e51b8152602060048201526018602482015277115490cdcc8c4e881a5b9d985b1a59081d1bdad95b88125160421b604482015260640161049d565b50565b600081815260046020526040902080546001600160a01b0319166001600160a01b038416908117909155819061093982610665565b6001600160a01b03167f8c5be1e5ebec7d5bd14f71427d1e84f3dd0314c0f7b2291e5b200ac8c7c3b92560405160405180910390a45050565b60008061097e83610665565b9050806001600160a01b0316846001600160a01b031614806109c557506001600160a01b0380821660009081526005602090815260408083209388168352929052205460ff165b806109e95750836001600160a01b03166109de84610402565b6001600160a01b0316145b949350505050565b826001600160a01b0316610a0482610665565b6001600160a01b031614610a2a5760405162461bcd60e51b815260040161049d9061176e565b6001600160a01b038216610a8c5760405162461bcd60e51b8152602060048201526024808201527f4552433732313a207472616e7366657220746f20746865207a65726f206164646044820152637265737360e01b606482015260840161049d565b826001600160a01b0316610a9f82610665565b6001600160a01b031614610ac55760405162461bcd60e51b815260040161049d9061176e565b600081815260046020908152604080832080546001600160a01b03199081169091556001600160a01b0387811680865260038552838620805460001901905590871680865283862080546001019055868652600290945282852080549092168417909155905184937fddf252ad1be2c89b69c2b068fc378daa952ba7f163c4a11628f55a4df523b3ef91a4505050565b6109018133610e4a565b610b69828261074b565b6106135760008281526006602090815260408083206001600160a01b03851684529091529020805460ff19166001179055610ba13390565b6001600160a01b0316816001600160a01b0316837f2f8788117e7eff1d82e926ec794901d17c78024a50270940304540a733656f0d60405160405180910390a45050565b610bef828261074b565b156106135760008281526006602090815260408083206001600160a01b0385168085529252808320805460ff1916905551339285917ff6391f5c32d9c69d2a47ea670b442974b53935d1edc7fd64eb21e047a839171b9190a45050565b610613828260405180602001604052806000815250610ea3565b816001600160a01b0316836001600160a01b031603610cc75760405162461bcd60e51b815260206004820152601960248201527f4552433732313a20617070726f766520746f2063616c6c657200000000000000604482015260640161049d565b6001600160a01b03838116600081815260056020908152604080832094871680845294825291829020805460ff191686151590811790915591519182527f17307eab39ab6107e8899845ad3d59bd9653f200f220920489ca2b5937696c31910160405180910390a3505050565b610d3f8484846109f1565b610d4b84848484610ed6565b6107c25760405162461bcd60e51b815260040161049d906117b3565b60606000610d7483610fd7565b600101905060008167ffffffffffffffff811115610d9457610d9461159c565b6040519080825280601f01601f191660200182016040528015610dbe576020820181803683370190505b5090508181016020015b600019016f181899199a1a9b1b9c1cb0b131b232b360811b600a86061a8153600a8504945084610dc857509392505050565b60006001600160e01b031982166380ac58cd60e01b1480610e2b57506001600160e01b03198216635b5e139f60e01b145b8061036a57506301ffc9a760e01b6001600160e01b031983161461036a565b610e54828261074b565b61061357610e61816110af565b610e6c8360206110c1565b604051602001610e7d929190611805565b60408051601f198184030181529082905262461bcd60e51b825261049d9160040161146b565b610ead838361125d565b610eba6000848484610ed6565b61053e5760405162461bcd60e51b815260040161049d906117b3565b60006001600160a01b0384163b15610fcc57604051630a85bd0160e11b81526001600160a01b0385169063150b7a0290610f1a90339089908890889060040161187a565b6020604051808303816000875af1925050508015610f55575060408051601f3d908101601f19168201909252610f52918101906118b7565b60015b610fb2573d808015610f83576040519150601f19603f3d011682016040523d82523d6000602084013e610f88565b606091505b508051600003610faa5760405162461bcd60e51b815260040161049d906117b3565b805181602001fd5b6001600160e01b031916630a85bd0160e11b1490506109e9565b506001949350505050565b60008072184f03e93ff9f4daa797ed6e38ed64bf6a1f0160401b83106110165772184f03e93ff9f4daa797ed6e38ed64bf6a1f0160401b830492506040015b6d04ee2d6d415b85acef81000000008310611042576d04ee2d6d415b85acef8100000000830492506020015b662386f26fc10000831061106057662386f26fc10000830492506010015b6305f5e1008310611078576305f5e100830492506008015b612710831061108c57612710830492506004015b6064831061109e576064830492506002015b600a831061036a5760010192915050565b606061036a6001600160a01b03831660145b606060006110d08360026118ea565b6110db906002611901565b67ffffffffffffffff8111156110f3576110f361159c565b6040519080825280601f01601f19166020018201604052801561111d576020820181803683370190505b509050600360fc1b8160008151811061113857611138611914565b60200101906001600160f81b031916908160001a905350600f60fb1b8160018151811061116757611167611914565b60200101906001600160f81b031916908160001a905350600061118b8460026118ea565b611196906001611901565b90505b600181111561120e576f181899199a1a9b1b9c1cb0b131b232b360811b85600f16601081106111ca576111ca611914565b1a60f81b8282815181106111e0576111e0611914565b60200101906001600160f81b031916908160001a90535060049490941c936112078161192a565b9050611199565b5083156108355760405162461bcd60e51b815260206004820181905260248201527f537472696e67733a20686578206c656e67746820696e73756666696369656e74604482015260640161049d565b6001600160a01b0382166112b35760405162461bcd60e51b815260206004820181905260248201527f4552433732313a206d696e7420746f20746865207a65726f2061646472657373604482015260640161049d565b6000818152600260205260409020546001600160a01b0316156113185760405162461bcd60e51b815260206004820152601c60248201527f4552433732313a20746f6b656e20616c7265616479206d696e74656400000000604482015260640161049d565b6000818152600260205260409020546001600160a01b03161561137d5760405162461bcd60e51b815260206004820152601c60248201527f4552433732313a20746f6b656e20616c7265616479206d696e74656400000000604482015260640161049d565b6001600160a01b038216600081815260036020908152604080832080546001019055848352600290915280822080546001600160a01b0319168417905551839291907fddf252ad1be2c89b69c2b068fc378daa952ba7f163c4a11628f55a4df523b3ef908290a45050565b6001600160e01b03198116811461090157600080fd5b60006020828403121561141057600080fd5b8135610835816113e8565b60005b8381101561143657818101518382015260200161141e565b50506000910152565b6000815180845261145781602086016020860161141b565b601f01601f19169290920160200192915050565b602081526000610835602083018461143f565b60006020828403121561149057600080fd5b5035919050565b80356001600160a01b03811681146114ae57600080fd5b919050565b600080604083850312156114c657600080fd5b6114cf83611497565b946020939093013593505050565b6000806000606084860312156114f257600080fd5b6114fb84611497565b925061150960208501611497565b9150604084013590509250925092565b6000806040838503121561152c57600080fd5b8235915061153c60208401611497565b90509250929050565b60006020828403121561155757600080fd5b61083582611497565b6000806040838503121561157357600080fd5b61157c83611497565b91506020830135801515811461159157600080fd5b809150509250929050565b634e487b7160e01b600052604160045260246000fd5b600080600080608085870312156115c857600080fd5b6115d185611497565b93506115df60208601611497565b925060408501359150606085013567ffffffffffffffff8082111561160357600080fd5b818701915087601f83011261161757600080fd5b8135818111156116295761162961159c565b604051601f8201601f19908116603f011681019083821181831017156116515761165161159c565b816040528281528a602084870101111561166a57600080fd5b82602086016020830137600060208483010152809550505050505092959194509250565b600080604083850312156116a157600080fd5b6116aa83611497565b915061153c60208401611497565b600181811c908216806116cc57607f821691505b6020821081036116ec57634e487b7160e01b600052602260045260246000fd5b50919050565b6020808252602d908201527f4552433732313a2063616c6c6572206973206e6f7420746f6b656e206f776e6560408201526c1c881bdc88185c1c1c9bdd9959609a1b606082015260800190565b6000835161175181846020880161141b565b83519083019061176581836020880161141b565b01949350505050565b60208082526025908201527f4552433732313a207472616e736665722066726f6d20696e636f72726563742060408201526437bbb732b960d91b606082015260800190565b60208082526032908201527f4552433732313a207472616e7366657220746f206e6f6e20455243373231526560408201527131b2b4bb32b91034b6b83632b6b2b73a32b960711b606082015260800190565b7f416363657373436f6e74726f6c3a206163636f756e742000000000000000000081526000835161183d81601785016020880161141b565b7001034b99036b4b9b9b4b733903937b6329607d1b601791840191820152835161186e81602884016020880161141b565b01602801949350505050565b6001600160a01b03858116825284166020820152604081018390526080606082018190526000906118ad9083018461143f565b9695505050505050565b6000602082840312156118c957600080fd5b8151610835816113e8565b634e487b7160e01b600052601160045260246000fd5b808202811582820484141761036a5761036a6118d4565b8082018082111561036a5761036a6118d4565b634e487b7160e01b600052603260045260246000fd5b600081611939576119396118d4565b50600019019056fea264697066735822122052be2b7b993a630b9c70edb63bb360853861289d123175adcd677894bb4869b164736f6c634300081100334552433732313a207472616e7366657220746f206e6f6e204552433732315265",
  "linkReferences": {},
  "deployedLinkReferences": {}
}