{
  "_format": "hh-sol-artifact-1",
  "contractName": "NFTMock",
  "sourceName": "contracts/NFTMock.sol",
  "abi": [
    {
      "inputs": [],
      "stateMutability": "nonpayable",
      "type": "constructor"
    },
    {
      "anonymous": false,
      "inputs": [
        {
          "indexed": true,
          "internalType": "address",
          "name": "owner",
          "type": "address"
        },
        {
          "indexed": true,
          "internalType": "address",
          "name": "approved",
          "type": "address"
        },
        {
          "indexed": true,
          "internalType": "uint256",
          "name": "tokenId",
          "type": "uint256"
        }
      ],
      "name": "Approval",
      "type": "event"
    },
    {
      "anonymous": false,
      "inputs": [
        {
          "indexed": true,
          "internalType": "address",
          "name": "owner",
          "type": "address"
        },
        {
          "indexed": true,
          "internalType": "address",
          "name": "operator",
          "type": "address"
        },
        {
          "indexed": false,
          "internalType": "bool",
          "name": "approved",
          "type": "bool"
        }
      ],
      "name": "ApprovalForAll",
      "type": "event"
    },
    {
      "anonymous": false,
      "inputs": [
        {
          "indexed": true,
          "internalType": "bytes32",
          "name": "role",
          "type": "bytes32"
        },
        {
          "indexed": true,
          "internalType": "bytes32",
          "name": "previousAdminRole",
          "type": "bytes32"
        },
        {
          "indexed": true,
          "internalType": "bytes32",
          "name": "newAdminRole",
          "type": "bytes32"
        }
      ],
      "name": "RoleAdminChanged",
      "type": "event"
    },
    {
      "anonymous": false,
      "inputs": [
        {
          "indexed": true,
          "internalType": "bytes32",
          "name": "role",
          "type": "bytes32"
        },
        {
          "indexed": true,
          "internalType": "address",
          "name": "account",
          "type": "address"
        },
        {
          "indexed": true,
          "internalType": "address",
          "name": "sender",
          "type": "address"
        }
      ],
      "name": "RoleGranted",
      "type": "event"
    },
    {
      "anonymous": false,
      "inputs": [
        {
          "indexed": true,
          "internalType": "bytes32",
          "name": "role",
          "type": "bytes32"
        },
        {
          "indexed": true,
          "internalType": "address",
          "name": "account",
          "type": "address"
        },
        {
          "indexed": true,
          "internalType": "address",
          "name": "sender",
          "type": "address"
        }
      ],
      "name": "RoleRevoked",
      "type": "event"
    },
    {
      "anonymous": false,
      "inputs": [
        {
          "indexed": true,
          "internalType": "address",
          "name": "from",
          "type": "address"
        },
        {
          "indexed": true,
          "internalType": "address",
          "name": "to",
          "type": "address"
        },
        {
          "indexed": true,
          "internalType": "uint256",
          "name": "tokenId",
          "type": "uint256"
        }
      ],
      "name": "Transfer",
      "type": "event"
    },
    {
      "inputs": [],
      "name": "DEFAULT_ADMIN_ROLE",
      "outputs": [
        {
          "internalType": "bytes32",
          "name": "",
          "type": "bytes32"
        }
      ],
      "stateMutability": "view",
      "type": "function"
    },
    {
      "inputs": [],
      "name": "MINTER_ROLE",
      "outputs": [
        {
          "internalType": "bytes32",
          "name": "",
          "type": "bytes32"
        }
      ],
      "stateMutability": "view",
      "type": "function"
    },
    {
      "inputs": [
        {
          "internalType": "address",
          "name": "to",
          "type": "address"
        },
        {
          "internalType": "uint256",
          "name": "tokenId",
          "type": "uint256"
        }
      ],
      "name": "approve",
      "outputs": [],
      "stateMutability": "nonpayable",
      "type": "function"
    },
    {
      "inputs": [
        {
          "internalType": "address",
          "name": "owner",
          "type": "address"
        }
      ],
      "name": "balanceOf",
      "outputs": [
        {
          "internalType": "uint256",
          "name": "",
          "type": "uint256"
        }
      ],
      "stateMutability": "view",
      "type": "function"
    },
    {
      "inputs": [
        {
          "internalType": "uint256",
          "name": "tokenId",
          "type": "uint256"
        }
      ],
      "name": "getApproved",
      "outputs": [
        {
          "internalType": "address",
          "name": "",
          "type": "address"
        }
      ],
      "stateMutability": "view",
      "type": "function"
    },
    {
      "inputs": [
        {
          "internalType": "bytes32",
          "name": "role",
          "type": "bytes32"
        }
      ],
      "name": "getRoleAdmin",
      "outputs": [
        {
          "internalType": "bytes32",
          "name": "",
          "type": "bytes32"
        }
      ],
      "stateMutability": "view",
      "type": "function"
    },
    {
      "inputs": [
        {
          "internalType": "bytes32",
          "name": "role",
          "type": "bytes32"
        },
        {
          "internalType": "address",
          "name": "account",
          "type": "address"
        }
      ],
      "name": "grantRole",
      "outputs": [],
      "stateMutability": "nonpayable",
      "type": "function"
    },
    {
      "inputs": [
        {
          "internalType": "bytes32",
          "name": "role",
          "type": "bytes32"
        },
        {
          "internalType": "address",
          "name": "account",
          "type": "address"
        }
      ],
      "name": "hasRole",
      "outputs": [
        {
          "internalType": "bool",
          "name": "",
          "type": "bool"
        }
      ],
      "stateMutability": "view",
      "type": "function"
    },
    {
      "inputs": [
        {
          "internalType": "address",
          "name": "owner",
          "type": "address"
        },
        {
          "internalType": "address",
          "name": "operator",
          "type": "address"
        }
      ],
      "name": "isApprovedForAll",
      "outputs": [
        {
          "internalType": "bool",
          "name": "",
          "type": "bool"
        }
      ],
      "stateMutability": "view",
      "type": "function"
    },
    {
      "inputs": [
        {
          "internalType": "address",
          "name": "to",
          "type": "address"
        },
        {
          "internalType": "uint256",
          "name": "tokenId",
          "type": "uint256"
        }
      ],
      "name": "mint",
      "outputs": [],
      "stateMutability": "nonpayable",
      "type": "function"
    },
    {
      "inputs": [],
      "name": "name",
      "outputs": [
        {
          "internalType": "string",
          "name": "",
          "type": "string"
        }
      ],
      "stateMutability": "view",
      "type": "function"
    },
    {
      "inputs": [
        {
          "internalType": "uint256",
          "name": "tokenId",
          "type": "uint256"
        }
      ],
      "name": "ownerOf",
      "outputs": [
        {
          "internalType": "address",
          "name": "",
          "type": "address"
        }
      ],
      "stateMutability": "view",
      "type": "function"
    },
    {
      "inputs": [
        {
          "internalType": "bytes32",
          "name": "role",
          "type": "bytes32"
        },
        {
          "internalType": "address",
          "name": "account",
          "type": "address"
        }
      ],
      "name": "renounceRole",
      "outputs": [],
      "stateMutability": "nonpayable",
      "type": "function"
    },
    {
      "inputs": [
        {
          "internalType": "bytes32",
          "name": "role",
          "type": "bytes32"
        },
        {
          "internalType": "address",
          "name": "account",
          "type": "address"
        }
      ],
      "name": "revokeRole",
      "outputs": [],
      "stateMutability": "nonpayable",
      "type": "function"
    },
    {
      "inputs": [
        {
          "internalType": "address",
          "name": "to",
          "type": "address"
        }
      ],
      "name": "safeMint",
      "outputs": [],
      "stateMutability": "nonpayable",
      "type": "function"
    },
    {
      "inputs": [
        {
          "internalType": "address",
          "name": "from",
          "type": "address"
        },
        {
          "internalType": "address",
          "name": "to",
          "type": "address"
        },
        {
          "internalType": "uint256",
          "name": "tokenId",
          "type": "uint256"
        }
      ],
      "name": "safeTransferFrom",
      "outputs": [],
      "stateMutability": "nonpayable",
      "type": "function"
    },
    {
      "inputs": [
        {
          "internalType": "address",
          "name": "from",
          "type": "address"
        },
        {
          "internalType": "address",
          "name": "to",
          "type": "address"
        },
        {
          "internalType": "uint256",
          "name": "tokenId",
          "type": "uint256"
        },
        {
          "internalType": "bytes",
          "name": "data",
          "type": "bytes"
        }
      ],
      "name": "safeTransferFrom",
      "outputs": [],
      "stateMutability": "nonpayable",
      "type": "function"
    },
    {
      "inputs": [
        {
          "internalType": "address",
          "name": "operator",
          "type": "address"
        },
        {
          "internalType": "bool",
          "name": "approved",
          "type": "bool"
        }
      ],
      "name": "setApprovalForAll",
      "outputs": [],
      "stateMutability": "nonpayable",
      "type": "function"
    },
    {
      "inputs": [
        {
          "internalType": "bytes4",
          "name": "interfaceId",
          "type": "bytes4"
        }
      ],
      "name": "supportsInterface",
      "outputs": [
        {
          "internalType": "bool",
          "name": "",
          "type": "bool"
        }
      ],
      "stateMutability": "view",
      "type": "function"
    },
    {
      "inputs": [],
      "name": "symbol",
      "outputs": [
        {
          "internalType": "string",
          "name": "",
          "type": "string"
        }
      ],
      "stateMutability": "view",
      "type": "function"
    },
    {
      "inputs": [
        {
          "internalType": "uint256",
          "name": "tokenId",
          "type": "uint256"
        }
      ],
      "name": "tokenURI",
      "outputs": [
        {
          "internalType": "string",
          "name": "",
          "type": "string"
        }
      ],
      "stateMutability": "view",
      "type": "function"
    },
    {
      "inputs": [
        {
          "internalType": "address",
          "name": "from",
          "type": "address"
        },
        {
          "internalType": "address",
          "name": "to",
          "type": "address"
        },
        {
          "internalType": "uint256",
          "name": "tokenId",
          "type": "uint256"
        }
      ],
      "name": "transferFrom",
      "outputs": [],
      "stateMutability": "nonpayable",
      "type": "function"
    }
  ],
  "bytecode": "0x60806040523480156200001157600080fd5b50604051806040016040528060088152602001674e66742d6d6f636b60c01b815250604051806040016040528060048152602001634d4f434b60e01b815250816000908162000061919062000869565b50600162000070828262000869565b506200008291506000905033620000ae565b6200009d600080516020620024fd83398151915233620000ae565b620000a83362000139565b62000af8565b620000ba828262000197565b620001355760008281526006602090815260408083206001600160a01b03851684529091529020805460ff19166001179055620000f43390565b6001600160a01b0316816001600160a01b0316837f2f8788117e7eff1d82e926ec794901d17c78024a50270940304540a733656f0d60405160405180910390a45b5050565b600080516020620024fd8339815191526200015481620001c4565b60006200016d6007620001d360201b620008bf1760201c565b9050620001866007620001d760201b620008c31760201c565b620001928382620001e0565b505050565b60008281526006602090815260408083206001600160a01b038516845290915290205460ff165b92915050565b620001d0813362000202565b50565b5490565b80546001019055565b620001358282604051806020016040528060008152506200028360201b60201c565b6200020e828262000197565b62000135576200022981620002f660201b620008cc1760201c565b6200023f836020620008de62000309821b17811c565b604051602001620002529291906200095b565b60408051601f198184030181529082905262461bcd60e51b82526200027a9160040162000a02565b60405180910390fd5b6200028f8383620004c9565b6200029e60008484846200065a565b620001925760405162461bcd60e51b81526020600482015260326024820152600080516020620024dd83398151915260448201527131b2b4bb32b91034b6b83632b6b2b73a32b960711b60648201526084016200027a565b6060620001be6001600160a01b03831660145b606060006200031a83600262000a2d565b6200032790600262000a47565b6001600160401b03811115620003415762000341620007c5565b6040519080825280601f01601f1916602001820160405280156200036c576020820181803683370190505b509050600360fc1b816000815181106200038a576200038a62000a5d565b60200101906001600160f81b031916908160001a905350600f60fb1b81600181518110620003bc57620003bc62000a5d565b60200101906001600160f81b031916908160001a9053506000620003e284600262000a2d565b620003ef90600162000a47565b90505b600181111562000471576f181899199a1a9b1b9c1cb0b131b232b360811b85600f166010811062000427576200042762000a5d565b1a60f81b82828151811062000440576200044062000a5d565b60200101906001600160f81b031916908160001a90535060049490941c93620004698162000a73565b9050620003f2565b508315620004c25760405162461bcd60e51b815260206004820181905260248201527f537472696e67733a20686578206c656e67746820696e73756666696369656e7460448201526064016200027a565b9392505050565b6001600160a01b038216620005215760405162461bcd60e51b815260206004820181905260248201527f4552433732313a206d696e7420746f20746865207a65726f206164647265737360448201526064016200027a565b6000818152600260205260409020546001600160a01b031615620005885760405162461bcd60e51b815260206004820152601c60248201527f4552433732313a20746f6b656e20616c7265616479206d696e7465640000000060448201526064016200027a565b6000818152600260205260409020546001600160a01b031615620005ef5760405162461bcd60e51b815260206004820152601c60248201527f4552433732313a20746f6b656e20616c7265616479206d696e7465640000000060448201526064016200027a565b6001600160a01b038216600081815260036020908152604080832080546001019055848352600290915280822080546001600160a01b0319168417905551839291907fddf252ad1be2c89b69c2b068fc378daa952ba7f163c4a11628f55a4df523b3ef908290a45050565b60006200067b846001600160a01b0316620007b660201b62000a7a1760201c565b15620007aa57604051630a85bd0160e11b81526001600160a01b0385169063150b7a0290620006b590339089908890889060040162000a8d565b6020604051808303816000875af1925050508015620006f3575060408051601f3d908101601f19168201909252620006f09181019062000acc565b60015b6200078f573d80801562000724576040519150601f19603f3d011682016040523d82523d6000602084013e62000729565b606091505b508051600003620007875760405162461bcd60e51b81526020600482015260326024820152600080516020620024dd83398151915260448201527131b2b4bb32b91034b6b83632b6b2b73a32b960711b60648201526084016200027a565b805181602001fd5b6001600160e01b031916630a85bd0160e11b149050620007ae565b5060015b949350505050565b6001600160a01b03163b151590565b634e487b7160e01b600052604160045260246000fd5b600181811c90821680620007f057607f821691505b6020821081036200081157634e487b7160e01b600052602260045260246000fd5b50919050565b601f8211156200019257600081815260208120601f850160051c81016020861015620008405750805b601f850160051c820191505b8181101562000861578281556001016200084c565b505050505050565b81516001600160401b03811115620008855762000885620007c5565b6200089d81620008968454620007db565b8462000817565b602080601f831160018114620008d55760008415620008bc5750858301515b600019600386901b1c1916600185901b17855562000861565b600085815260208120601f198616915b828110156200090657888601518255948401946001909101908401620008e5565b5085821015620009255787850151600019600388901b60f8161c191681555b5050505050600190811b01905550565b60005b838110156200095257818101518382015260200162000938565b50506000910152565b7f416363657373436f6e74726f6c3a206163636f756e74200000000000000000008152600083516200099581601785016020880162000935565b7001034b99036b4b9b9b4b733903937b6329607d1b6017918401918201528351620009c881602884016020880162000935565b01602801949350505050565b60008151808452620009ee81602086016020860162000935565b601f01601f19169290920160200192915050565b602081526000620004c26020830184620009d4565b634e487b7160e01b600052601160045260246000fd5b8082028115828204841417620001be57620001be62000a17565b80820180821115620001be57620001be62000a17565b634e487b7160e01b600052603260045260246000fd5b60008162000a855762000a8562000a17565b506000190190565b6001600160a01b038581168252841660208201526040810183905260806060820181905260009062000ac290830184620009d4565b9695505050505050565b60006020828403121562000adf57600080fd5b81516001600160e01b031981168114620004c257600080fd5b6119d58062000b086000396000f3fe608060405234801561001057600080fd5b50600436106101425760003560e01c80636352211e116100b8578063a22cb4651161007c578063a22cb465146102b0578063b88d4fde146102c3578063c87b56dd146102d6578063d5391393146102e9578063d547741f14610310578063e985e9c51461032357600080fd5b80636352211e1461026757806370a082311461027a57806391d148541461028d57806395d89b41146102a0578063a217fddf146102a857600080fd5b8063248a9ca31161010a578063248a9ca3146101d75780632f2ff15d1461020857806336568abe1461021b57806340c10f191461022e57806340d097c31461024157806342842e0e1461025457600080fd5b806301ffc9a71461014757806306fdde031461016f578063081812fc14610184578063095ea7b3146101af57806323b872dd146101c4575b600080fd5b61015a61015536600461145c565b61035f565b60405190151581526020015b60405180910390f35b610177610370565b60405161016691906114c9565b6101976101923660046114dc565b610402565b6040516001600160a01b039091168152602001610166565b6101c26101bd366004611511565b610429565b005b6101c26101d236600461153b565b610543565b6101fa6101e53660046114dc565b60009081526006602052604090206001015490565b604051908152602001610166565b6101c2610216366004611577565b610574565b6101c2610229366004611577565b610599565b6101c261023c366004611511565b610617565b6101c261024f3660046115a3565b610659565b6101c261026236600461153b565b6106a8565b6101976102753660046114dc565b6106c3565b6101fa6102883660046115a3565b610723565b61015a61029b366004611577565b6107a9565b6101776107d4565b6101fa600081565b6101c26102be3660046115be565b6107e3565b6101c26102d1366004611610565b6107ee565b6101776102e43660046114dc565b610826565b6101fa7f9f2df0fed2c77648de5860a4cc508cd0818c85b8b8a1ab4ceeef8d981c8956a681565b6101c261031e366004611577565b61089a565b61015a6103313660046116ec565b6001600160a01b03918216600090815260056020908152604080832093909416825291909152205460ff1690565b600061036a82610a89565b92915050565b60606000805461037f90611716565b80601f01602080910402602001604051908101604052809291908181526020018280546103ab90611716565b80156103f85780601f106103cd576101008083540402835291602001916103f8565b820191906000526020600020905b8154815290600101906020018083116103db57829003601f168201915b5050505050905090565b600061040d82610aae565b506000908152600460205260409020546001600160a01b031690565b6000610434826106c3565b9050806001600160a01b0316836001600160a01b0316036104a65760405162461bcd60e51b815260206004820152602160248201527f4552433732313a20617070726f76616c20746f2063757272656e74206f776e656044820152603960f91b60648201526084015b60405180910390fd5b336001600160a01b03821614806104c257506104c28133610331565b6105345760405162461bcd60e51b815260206004820152603d60248201527f4552433732313a20617070726f76652063616c6c6572206973206e6f7420746f60448201527f6b656e206f776e6572206f7220617070726f76656420666f7220616c6c000000606482015260840161049d565b61053e8383610b10565b505050565b61054d3382610b7e565b6105695760405162461bcd60e51b815260040161049d90611750565b61053e838383610bfd565b60008281526006602052604090206001015461058f81610d61565b61053e8383610d6b565b6001600160a01b03811633146106095760405162461bcd60e51b815260206004820152602f60248201527f416363657373436f6e74726f6c3a2063616e206f6e6c792072656e6f756e636560448201526e103937b632b9903337b91039b2b63360891b606482015260840161049d565b6106138282610df1565b5050565b7f9f2df0fed2c77648de5860a4cc508cd0818c85b8b8a1ab4ceeef8d981c8956a661064181610d61565b61064f600780546001019055565b61053e8383610e58565b7f9f2df0fed2c77648de5860a4cc508cd0818c85b8b8a1ab4ceeef8d981c8956a661068381610d61565b600061068e60075490565b905061069e600780546001019055565b61053e8382610e58565b61053e838383604051806020016040528060008152506107ee565b6000818152600260205260408120546001600160a01b03168061036a5760405162461bcd60e51b8152602060048201526018602482015277115490cdcc8c4e881a5b9d985b1a59081d1bdad95b88125160421b604482015260640161049d565b60006001600160a01b03821661078d5760405162461bcd60e51b815260206004820152602960248201527f4552433732313a2061646472657373207a65726f206973206e6f7420612076616044820152683634b21037bbb732b960b91b606482015260840161049d565b506001600160a01b031660009081526003602052604090205490565b60009182526006602090815260408084206001600160a01b0393909316845291905290205460ff1690565b60606001805461037f90611716565b610613338383610e72565b6107f83383610b7e565b6108145760405162461bcd60e51b815260040161049d90611750565b61082084848484610f40565b50505050565b606061083182610aae565b600061084860408051602081019091526000815290565b905060008151116108685760405180602001604052806000815250610893565b8061087284610f73565b60405160200161088392919061179d565b6040516020818303038152906040525b9392505050565b6000828152600660205260409020600101546108b581610d61565b61053e8383610df1565b5490565b80546001019055565b606061036a6001600160a01b03831660145b606060006108ed8360026117e2565b6108f89060026117f9565b67ffffffffffffffff811115610910576109106115fa565b6040519080825280601f01601f19166020018201604052801561093a576020820181803683370190505b509050600360fc1b816000815181106109555761095561180c565b60200101906001600160f81b031916908160001a905350600f60fb1b816001815181106109845761098461180c565b60200101906001600160f81b031916908160001a90535060006109a88460026117e2565b6109b39060016117f9565b90505b6001811115610a2b576f181899199a1a9b1b9c1cb0b131b232b360811b85600f16601081106109e7576109e761180c565b1a60f81b8282815181106109fd576109fd61180c565b60200101906001600160f81b031916908160001a90535060049490941c93610a2481611822565b90506109b6565b5083156108935760405162461bcd60e51b815260206004820181905260248201527f537472696e67733a20686578206c656e67746820696e73756666696369656e74604482015260640161049d565b6001600160a01b03163b151590565b60006001600160e01b03198216637965db0b60e01b148061036a575061036a82611006565b6000818152600260205260409020546001600160a01b0316610b0d5760405162461bcd60e51b8152602060048201526018602482015277115490cdcc8c4e881a5b9d985b1a59081d1bdad95b88125160421b604482015260640161049d565b50565b600081815260046020526040902080546001600160a01b0319166001600160a01b0384169081179091558190610b45826106c3565b6001600160a01b03167f8c5be1e5ebec7d5bd14f71427d1e84f3dd0314c0f7b2291e5b200ac8c7c3b92560405160405180910390a45050565b600080610b8a836106c3565b9050806001600160a01b0316846001600160a01b03161480610bd157506001600160a01b0380821660009081526005602090815260408083209388168352929052205460ff165b80610bf55750836001600160a01b0316610bea84610402565b6001600160a01b0316145b949350505050565b826001600160a01b0316610c10826106c3565b6001600160a01b031614610c365760405162461bcd60e51b815260040161049d90611839565b6001600160a01b038216610c985760405162461bcd60e51b8152602060048201526024808201527f4552433732313a207472616e7366657220746f20746865207a65726f206164646044820152637265737360e01b606482015260840161049d565b826001600160a01b0316610cab826106c3565b6001600160a01b031614610cd15760405162461bcd60e51b815260040161049d90611839565b600081815260046020908152604080832080546001600160a01b03199081169091556001600160a01b0387811680865260038552838620805460001901905590871680865283862080546001019055868652600290945282852080549092168417909155905184937fddf252ad1be2c89b69c2b068fc378daa952ba7f163c4a11628f55a4df523b3ef91a4505050565b610b0d8133611056565b610d7582826107a9565b6106135760008281526006602090815260408083206001600160a01b03851684529091529020805460ff19166001179055610dad3390565b6001600160a01b0316816001600160a01b0316837f2f8788117e7eff1d82e926ec794901d17c78024a50270940304540a733656f0d60405160405180910390a45050565b610dfb82826107a9565b156106135760008281526006602090815260408083206001600160a01b0385168085529252808320805460ff1916905551339285917ff6391f5c32d9c69d2a47ea670b442974b53935d1edc7fd64eb21e047a839171b9190a45050565b6106138282604051806020016040528060008152506110af565b816001600160a01b0316836001600160a01b031603610ed35760405162461bcd60e51b815260206004820152601960248201527f4552433732313a20617070726f766520746f2063616c6c657200000000000000604482015260640161049d565b6001600160a01b03838116600081815260056020908152604080832094871680845294825291829020805460ff191686151590811790915591519182527f17307eab39ab6107e8899845ad3d59bd9653f200f220920489ca2b5937696c31910160405180910390a3505050565b610f4b848484610bfd565b610f57848484846110e2565b6108205760405162461bcd60e51b815260040161049d9061187e565b60606000610f80836111e3565b600101905060008167ffffffffffffffff811115610fa057610fa06115fa565b6040519080825280601f01601f191660200182016040528015610fca576020820181803683370190505b5090508181016020015b600019016f181899199a1a9b1b9c1cb0b131b232b360811b600a86061a8153600a8504945084610fd457509392505050565b60006001600160e01b031982166380ac58cd60e01b148061103757506001600160e01b03198216635b5e139f60e01b145b8061036a57506301ffc9a760e01b6001600160e01b031983161461036a565b61106082826107a9565b6106135761106d816108cc565b6110788360206108de565b6040516020016110899291906118d0565b60408051601f198184030181529082905262461bcd60e51b825261049d916004016114c9565b6110b983836112bb565b6110c660008484846110e2565b61053e5760405162461bcd60e51b815260040161049d9061187e565b60006001600160a01b0384163b156111d857604051630a85bd0160e11b81526001600160a01b0385169063150b7a0290611126903390899088908890600401611945565b6020604051808303816000875af1925050508015611161575060408051601f3d908101601f1916820190925261115e91810190611982565b60015b6111be573d80801561118f576040519150601f19603f3d011682016040523d82523d6000602084013e611194565b606091505b5080516000036111b65760405162461bcd60e51b815260040161049d9061187e565b805181602001fd5b6001600160e01b031916630a85bd0160e11b149050610bf5565b506001949350505050565b60008072184f03e93ff9f4daa797ed6e38ed64bf6a1f0160401b83106112225772184f03e93ff9f4daa797ed6e38ed64bf6a1f0160401b830492506040015b6d04ee2d6d415b85acef8100000000831061124e576d04ee2d6d415b85acef8100000000830492506020015b662386f26fc10000831061126c57662386f26fc10000830492506010015b6305f5e1008310611284576305f5e100830492506008015b612710831061129857612710830492506004015b606483106112aa576064830492506002015b600a831061036a5760010192915050565b6001600160a01b0382166113115760405162461bcd60e51b815260206004820181905260248201527f4552433732313a206d696e7420746f20746865207a65726f2061646472657373604482015260640161049d565b6000818152600260205260409020546001600160a01b0316156113765760405162461bcd60e51b815260206004820152601c60248201527f4552433732313a20746f6b656e20616c7265616479206d696e74656400000000604482015260640161049d565b6000818152600260205260409020546001600160a01b0316156113db5760405162461bcd60e51b815260206004820152601c60248201527f4552433732313a20746f6b656e20616c7265616479206d696e74656400000000604482015260640161049d565b6001600160a01b038216600081815260036020908152604080832080546001019055848352600290915280822080546001600160a01b0319168417905551839291907fddf252ad1be2c89b69c2b068fc378daa952ba7f163c4a11628f55a4df523b3ef908290a45050565b6001600160e01b031981168114610b0d57600080fd5b60006020828403121561146e57600080fd5b813561089381611446565b60005b8381101561149457818101518382015260200161147c565b50506000910152565b600081518084526114b5816020860160208601611479565b601f01601f19169290920160200192915050565b602081526000610893602083018461149d565b6000602082840312156114ee57600080fd5b5035919050565b80356001600160a01b038116811461150c57600080fd5b919050565b6000806040838503121561152457600080fd5b61152d836114f5565b946020939093013593505050565b60008060006060848603121561155057600080fd5b611559846114f5565b9250611567602085016114f5565b9150604084013590509250925092565b6000806040838503121561158a57600080fd5b8235915061159a602084016114f5565b90509250929050565b6000602082840312156115b557600080fd5b610893826114f5565b600080604083850312156115d157600080fd5b6115da836114f5565b9150602083013580151581146115ef57600080fd5b809150509250929050565b634e487b7160e01b600052604160045260246000fd5b6000806000806080858703121561162657600080fd5b61162f856114f5565b935061163d602086016114f5565b925060408501359150606085013567ffffffffffffffff8082111561166157600080fd5b818701915087601f83011261167557600080fd5b813581811115611687576116876115fa565b604051601f8201601f19908116603f011681019083821181831017156116af576116af6115fa565b816040528281528a60208487010111156116c857600080fd5b82602086016020830137600060208483010152809550505050505092959194509250565b600080604083850312156116ff57600080fd5b611708836114f5565b915061159a602084016114f5565b600181811c9082168061172a57607f821691505b60208210810361174a57634e487b7160e01b600052602260045260246000fd5b50919050565b6020808252602d908201527f4552433732313a2063616c6c6572206973206e6f7420746f6b656e206f776e6560408201526c1c881bdc88185c1c1c9bdd9959609a1b606082015260800190565b600083516117af818460208801611479565b8351908301906117c3818360208801611479565b01949350505050565b634e487b7160e01b600052601160045260246000fd5b808202811582820484141761036a5761036a6117cc565b8082018082111561036a5761036a6117cc565b634e487b7160e01b600052603260045260246000fd5b600081611831576118316117cc565b506000190190565b60208082526025908201527f4552433732313a207472616e736665722066726f6d20696e636f72726563742060408201526437bbb732b960d91b606082015260800190565b60208082526032908201527f4552433732313a207472616e7366657220746f206e6f6e20455243373231526560408201527131b2b4bb32b91034b6b83632b6b2b73a32b960711b606082015260800190565b7f416363657373436f6e74726f6c3a206163636f756e7420000000000000000000815260008351611908816017850160208801611479565b7001034b99036b4b9b9b4b733903937b6329607d1b6017918401918201528351611939816028840160208801611479565b01602801949350505050565b6001600160a01b03858116825284166020820152604081018390526080606082018190526000906119789083018461149d565b9695505050505050565b60006020828403121561199457600080fd5b81516108938161144656fea26469706673582212209891e1fc39a68a91f77e3765fbdbd54f4af54374d8f7261091e5379076813fa264736f6c634300081100334552433732313a207472616e7366657220746f206e6f6e2045524337323152659f2df0fed2c77648de5860a4cc508cd0818c85b8b8a1ab4ceeef8d981c8956a6",
  "linkReferences": {},
  "deployedLinkReferences": {}
}