{
  "_format": "hh-sol-artifact-1",
  "contractName": "FuseAuction",
  "sourceName": "contracts/FuseAuction.sol",
  "abi": [
    {
      "inputs": [],
      "stateMutability": "nonpayable",
      "type": "constructor"
    },
    {
      "inputs": [
        {
          "internalType": "string",
          "name": "message",
          "type": "string"
        }
      ],
      "name": "ErrorMessage",
      "type": "error"
    },
    {
      "inputs": [
        {
          "internalType": "uint256",
          "name": "expected",
          "type": "uint256"
        }
      ],
      "name": "LowValue",
      "type": "error"
    },
    {
      "inputs": [],
      "name": "NoZeroValues",
      "type": "error"
    },
    {
      "inputs": [
        {
          "internalType": "bytes32",
          "name": "id",
          "type": "bytes32"
        }
      ],
      "name": "NotActive",
      "type": "error"
    },
    {
      "inputs": [],
      "name": "NotAuth",
      "type": "error"
    },
    {
      "inputs": [],
      "name": "NotTokenOwner",
      "type": "error"
    },
    {
      "inputs": [
        {
          "internalType": "uint256",
          "name": "",
          "type": "uint256"
        }
      ],
      "name": "isActiveItem",
      "type": "error"
    },
    {
      "inputs": [],
      "name": "notApproved",
      "type": "error"
    },
    {
      "anonymous": false,
      "inputs": [
        {
          "indexed": true,
          "internalType": "address",
          "name": "to",
          "type": "address"
        },
        {
          "indexed": true,
          "internalType": "address",
          "name": "collection",
          "type": "address"
        },
        {
          "indexed": true,
          "internalType": "uint256",
          "name": "tokenId",
          "type": "uint256"
        }
      ],
      "name": "AssetSent",
      "type": "event"
    },
    {
      "anonymous": false,
      "inputs": [
        {
          "indexed": true,
          "internalType": "bytes32",
          "name": "auctionId",
          "type": "bytes32"
        },
        {
          "indexed": true,
          "internalType": "uint256",
          "name": "itemId",
          "type": "uint256"
        },
        {
          "indexed": true,
          "internalType": "address",
          "name": "winner",
          "type": "address"
        },
        {
          "indexed": false,
          "internalType": "uint256",
          "name": "amount",
          "type": "uint256"
        }
      ],
      "name": "AuctionClaimed",
      "type": "event"
    },
    {
      "anonymous": false,
      "inputs": [
        {
          "indexed": true,
          "internalType": "bytes32",
          "name": "auctionId",
          "type": "bytes32"
        },
        {
          "indexed": true,
          "internalType": "uint256",
          "name": "itemId",
          "type": "uint256"
        },
        {
          "indexed": true,
          "internalType": "address",
          "name": "highestBidder",
          "type": "address"
        },
        {
          "indexed": false,
          "internalType": "uint256",
          "name": "highestBid",
          "type": "uint256"
        },
        {
          "indexed": false,
          "internalType": "uint256",
          "name": "timestamp",
          "type": "uint256"
        }
      ],
      "name": "AuctionRemoved",
      "type": "event"
    },
    {
      "anonymous": false,
      "inputs": [
        {
          "indexed": true,
          "internalType": "address",
          "name": "seller",
          "type": "address"
        },
        {
          "indexed": false,
          "internalType": "uint256",
          "name": "value",
          "type": "uint256"
        }
      ],
      "name": "DepositToEscrow",
      "type": "event"
    },
    {
      "anonymous": false,
      "inputs": [
        {
          "indexed": true,
          "internalType": "contract Escrow",
          "name": "escrow",
          "type": "address"
        },
        {
          "indexed": true,
          "internalType": "address",
          "name": "operator",
          "type": "address"
        }
      ],
      "name": "EscrowDeployed",
      "type": "event"
    },
    {
      "anonymous": false,
      "inputs": [
        {
          "indexed": true,
          "internalType": "bytes32",
          "name": "auctionId",
          "type": "bytes32"
        },
        {
          "indexed": true,
          "internalType": "address",
          "name": "bidder",
          "type": "address"
        },
        {
          "indexed": false,
          "internalType": "uint256",
          "name": "amount",
          "type": "uint256"
        }
      ],
      "name": "HighestBidIncrease",
      "type": "event"
    },
    {
      "anonymous": false,
      "inputs": [
        {
          "indexed": true,
          "internalType": "bytes32",
          "name": "auctionId",
          "type": "bytes32"
        },
        {
          "indexed": true,
          "internalType": "address",
          "name": "seller",
          "type": "address"
        }
      ],
      "name": "MarketAuctionCreated",
      "type": "event"
    },
    {
      "anonymous": false,
      "inputs": [
        {
          "indexed": true,
          "internalType": "bytes32",
          "name": "auctionId",
          "type": "bytes32"
        },
        {
          "indexed": true,
          "internalType": "uint256",
          "name": "itemId",
          "type": "uint256"
        }
      ],
      "name": "NoBuyer",
      "type": "event"
    },
    {
      "anonymous": false,
      "inputs": [
        {
          "indexed": true,
          "internalType": "bytes32",
          "name": "role",
          "type": "bytes32"
        },
        {
          "indexed": true,
          "internalType": "bytes32",
          "name": "previousAdminRole",
          "type": "bytes32"
        },
        {
          "indexed": true,
          "internalType": "bytes32",
          "name": "newAdminRole",
          "type": "bytes32"
        }
      ],
      "name": "RoleAdminChanged",
      "type": "event"
    },
    {
      "anonymous": false,
      "inputs": [
        {
          "indexed": true,
          "internalType": "bytes32",
          "name": "role",
          "type": "bytes32"
        },
        {
          "indexed": true,
          "internalType": "address",
          "name": "account",
          "type": "address"
        },
        {
          "indexed": true,
          "internalType": "address",
          "name": "sender",
          "type": "address"
        }
      ],
      "name": "RoleGranted",
      "type": "event"
    },
    {
      "anonymous": false,
      "inputs": [
        {
          "indexed": true,
          "internalType": "bytes32",
          "name": "role",
          "type": "bytes32"
        },
        {
          "indexed": true,
          "internalType": "address",
          "name": "account",
          "type": "address"
        },
        {
          "indexed": true,
          "internalType": "address",
          "name": "sender",
          "type": "address"
        }
      ],
      "name": "RoleRevoked",
      "type": "event"
    },
    {
      "anonymous": false,
      "inputs": [
        {
          "indexed": true,
          "internalType": "address",
          "name": "serviceWallet",
          "type": "address"
        },
        {
          "indexed": false,
          "internalType": "uint256",
          "name": "amount",
          "type": "uint256"
        }
      ],
      "name": "TransferServiceFee",
      "type": "event"
    },
    {
      "anonymous": false,
      "inputs": [
        {
          "indexed": true,
          "internalType": "address",
          "name": "seller",
          "type": "address"
        }
      ],
      "name": "WithdrawFromEscrow",
      "type": "event"
    },
    {
      "anonymous": false,
      "inputs": [
        {
          "indexed": true,
          "internalType": "address",
          "name": "to",
          "type": "address"
        },
        {
          "indexed": false,
          "internalType": "uint256",
          "name": "amount",
          "type": "uint256"
        }
      ],
      "name": "WithdrawPendingReturns",
      "type": "event"
    },
    {
      "inputs": [],
      "name": "ADMIN_ROLE",
      "outputs": [
        {
          "internalType": "bytes32",
          "name": "",
          "type": "bytes32"
        }
      ],
      "stateMutability": "view",
      "type": "function"
    },
    {
      "inputs": [],
      "name": "DEFAULT_ADMIN_ROLE",
      "outputs": [
        {
          "internalType": "bytes32",
          "name": "",
          "type": "bytes32"
        }
      ],
      "stateMutability": "view",
      "type": "function"
    },
    {
      "inputs": [
        {
          "internalType": "uint256",
          "name": "itemId",
          "type": "uint256"
        },
        {
          "internalType": "address",
          "name": "nftContract",
          "type": "address"
        }
      ],
      "name": "approveAuction",
      "outputs": [],
      "stateMutability": "nonpayable",
      "type": "function"
    },
    {
      "inputs": [
        {
          "internalType": "bytes32",
          "name": "",
          "type": "bytes32"
        }
      ],
      "name": "auctionsMapping",
      "outputs": [
        {
          "internalType": "bytes32",
          "name": "auctionId",
          "type": "bytes32"
        },
        {
          "internalType": "uint256",
          "name": "itemId",
          "type": "uint256"
        },
        {
          "internalType": "uint256",
          "name": "auctionEndTime",
          "type": "uint256"
        },
        {
          "internalType": "uint256",
          "name": "highestBid",
          "type": "uint256"
        },
        {
          "internalType": "address",
          "name": "nftContract",
          "type": "address"
        },
        {
          "internalType": "address",
          "name": "highestBidder",
          "type": "address"
        },
        {
          "internalType": "address payable",
          "name": "seller",
          "type": "address"
        },
        {
          "internalType": "bool",
          "name": "ended",
          "type": "bool"
        }
      ],
      "stateMutability": "view",
      "type": "function"
    },
    {
      "inputs": [
        {
          "internalType": "bytes32",
          "name": "auctionId",
          "type": "bytes32"
        }
      ],
      "name": "bid",
      "outputs": [],
      "stateMutability": "payable",
      "type": "function"
    },
    {
      "inputs": [
        {
          "internalType": "bytes32",
          "name": "auctionId",
          "type": "bytes32"
        }
      ],
      "name": "claimAuction",
      "outputs": [
        {
          "internalType": "bool",
          "name": "",
          "type": "bool"
        }
      ],
      "stateMutability": "nonpayable",
      "type": "function"
    },
    {
      "inputs": [
        {
          "components": [
            {
              "internalType": "uint256",
              "name": "itemId",
              "type": "uint256"
            },
            {
              "internalType": "uint256",
              "name": "biddingTime",
              "type": "uint256"
            },
            {
              "internalType": "uint256",
              "name": "minimumBid",
              "type": "uint256"
            },
            {
              "internalType": "address",
              "name": "nftContract",
              "type": "address"
            },
            {
              "internalType": "address payable",
              "name": "seller",
              "type": "address"
            }
          ],
          "internalType": "struct AuctionStorage.MarketAuctionInput",
          "name": "input",
          "type": "tuple"
        }
      ],
      "name": "createMarketAuction",
      "outputs": [
        {
          "internalType": "bytes32",
          "name": "_auctionId",
          "type": "bytes32"
        }
      ],
      "stateMutability": "nonpayable",
      "type": "function"
    },
    {
      "inputs": [],
      "name": "escrow",
      "outputs": [
        {
          "internalType": "contract Escrow",
          "name": "",
          "type": "address"
        }
      ],
      "stateMutability": "view",
      "type": "function"
    },
    {
      "inputs": [],
      "name": "fetchMarketAuctions",
      "outputs": [
        {
          "components": [
            {
              "internalType": "bytes32",
              "name": "auctionId",
              "type": "bytes32"
            },
            {
              "internalType": "uint256",
              "name": "itemId",
              "type": "uint256"
            },
            {
              "internalType": "uint256",
              "name": "auctionEndTime",
              "type": "uint256"
            },
            {
              "internalType": "uint256",
              "name": "highestBid",
              "type": "uint256"
            },
            {
              "internalType": "address",
              "name": "nftContract",
              "type": "address"
            },
            {
              "internalType": "address",
              "name": "highestBidder",
              "type": "address"
            },
            {
              "internalType": "address payable",
              "name": "seller",
              "type": "address"
            },
            {
              "internalType": "bool",
              "name": "ended",
              "type": "bool"
            }
          ],
          "internalType": "struct AuctionStorage.MarketAuction[]",
          "name": "",
          "type": "tuple[]"
        }
      ],
      "stateMutability": "view",
      "type": "function"
    },
    {
      "inputs": [
        {
          "internalType": "bytes32",
          "name": "auctionId",
          "type": "bytes32"
        }
      ],
      "name": "getMarketAuction",
      "outputs": [
        {
          "components": [
            {
              "internalType": "bytes32",
              "name": "auctionId",
              "type": "bytes32"
            },
            {
              "internalType": "uint256",
              "name": "itemId",
              "type": "uint256"
            },
            {
              "internalType": "uint256",
              "name": "auctionEndTime",
              "type": "uint256"
            },
            {
              "internalType": "uint256",
              "name": "highestBid",
              "type": "uint256"
            },
            {
              "internalType": "address",
              "name": "nftContract",
              "type": "address"
            },
            {
              "internalType": "address",
              "name": "highestBidder",
              "type": "address"
            },
            {
              "internalType": "address payable",
              "name": "seller",
              "type": "address"
            },
            {
              "internalType": "bool",
              "name": "ended",
              "type": "bool"
            }
          ],
          "internalType": "struct AuctionStorage.MarketAuction",
          "name": "marketAuction",
          "type": "tuple"
        }
      ],
      "stateMutability": "view",
      "type": "function"
    },
    {
      "inputs": [
        {
          "internalType": "bytes32",
          "name": "role",
          "type": "bytes32"
        }
      ],
      "name": "getRoleAdmin",
      "outputs": [
        {
          "internalType": "bytes32",
          "name": "",
          "type": "bytes32"
        }
      ],
      "stateMutability": "view",
      "type": "function"
    },
    {
      "inputs": [
        {
          "internalType": "bytes32",
          "name": "role",
          "type": "bytes32"
        },
        {
          "internalType": "uint256",
          "name": "index",
          "type": "uint256"
        }
      ],
      "name": "getRoleMember",
      "outputs": [
        {
          "internalType": "address",
          "name": "",
          "type": "address"
        }
      ],
      "stateMutability": "view",
      "type": "function"
    },
    {
      "inputs": [
        {
          "internalType": "bytes32",
          "name": "role",
          "type": "bytes32"
        }
      ],
      "name": "getRoleMemberCount",
      "outputs": [
        {
          "internalType": "uint256",
          "name": "",
          "type": "uint256"
        }
      ],
      "stateMutability": "view",
      "type": "function"
    },
    {
      "inputs": [
        {
          "internalType": "bytes32",
          "name": "role",
          "type": "bytes32"
        },
        {
          "internalType": "address",
          "name": "account",
          "type": "address"
        }
      ],
      "name": "grantRole",
      "outputs": [],
      "stateMutability": "nonpayable",
      "type": "function"
    },
    {
      "inputs": [
        {
          "internalType": "bytes32",
          "name": "role",
          "type": "bytes32"
        },
        {
          "internalType": "address",
          "name": "account",
          "type": "address"
        }
      ],
      "name": "hasRole",
      "outputs": [
        {
          "internalType": "bool",
          "name": "",
          "type": "bool"
        }
      ],
      "stateMutability": "view",
      "type": "function"
    },
    {
      "inputs": [
        {
          "internalType": "address",
          "name": "",
          "type": "address"
        },
        {
          "internalType": "uint256",
          "name": "",
          "type": "uint256"
        }
      ],
      "name": "isActiveTokenId",
      "outputs": [
        {
          "internalType": "bool",
          "name": "",
          "type": "bool"
        }
      ],
      "stateMutability": "view",
      "type": "function"
    },
    {
      "inputs": [
        {
          "internalType": "address",
          "name": "",
          "type": "address"
        },
        {
          "internalType": "address",
          "name": "",
          "type": "address"
        },
        {
          "internalType": "uint256",
          "name": "",
          "type": "uint256"
        },
        {
          "internalType": "bytes",
          "name": "",
          "type": "bytes"
        }
      ],
      "name": "onERC721Received",
      "outputs": [
        {
          "internalType": "bytes4",
          "name": "",
          "type": "bytes4"
        }
      ],
      "stateMutability": "nonpayable",
      "type": "function"
    },
    {
      "inputs": [
        {
          "internalType": "address",
          "name": "",
          "type": "address"
        }
      ],
      "name": "pendingReturns",
      "outputs": [
        {
          "internalType": "uint256",
          "name": "",
          "type": "uint256"
        }
      ],
      "stateMutability": "view",
      "type": "function"
    },
    {
      "inputs": [
        {
          "internalType": "bytes32",
          "name": "role",
          "type": "bytes32"
        },
        {
          "internalType": "address",
          "name": "account",
          "type": "address"
        }
      ],
      "name": "renounceRole",
      "outputs": [],
      "stateMutability": "nonpayable",
      "type": "function"
    },
    {
      "inputs": [
        {
          "internalType": "address",
          "name": "collection",
          "type": "address"
        },
        {
          "internalType": "uint256[]",
          "name": "tokenIds",
          "type": "uint256[]"
        },
        {
          "internalType": "address",
          "name": "receiver",
          "type": "address"
        }
      ],
      "name": "rescue",
      "outputs": [],
      "stateMutability": "nonpayable",
      "type": "function"
    },
    {
      "inputs": [
        {
          "internalType": "bytes32",
          "name": "role",
          "type": "bytes32"
        },
        {
          "internalType": "address",
          "name": "account",
          "type": "address"
        }
      ],
      "name": "revokeRole",
      "outputs": [],
      "stateMutability": "nonpayable",
      "type": "function"
    },
    {
      "inputs": [],
      "name": "serviceFee",
      "outputs": [
        {
          "internalType": "uint16",
          "name": "",
          "type": "uint16"
        }
      ],
      "stateMutability": "view",
      "type": "function"
    },
    {
      "inputs": [
        {
          "internalType": "address",
          "name": "nftContract",
          "type": "address"
        },
        {
          "internalType": "bool",
          "name": "approved",
          "type": "bool"
        }
      ],
      "name": "setApprovalForAllAuction",
      "outputs": [],
      "stateMutability": "nonpayable",
      "type": "function"
    },
    {
      "inputs": [
        {
          "internalType": "bytes4",
          "name": "interfaceId",
          "type": "bytes4"
        }
      ],
      "name": "supportsInterface",
      "outputs": [
        {
          "internalType": "bool",
          "name": "",
          "type": "bool"
        }
      ],
      "stateMutability": "view",
      "type": "function"
    },
    {
      "inputs": [],
      "name": "withdrawPendingReturns",
      "outputs": [
        {
          "internalType": "bool",
          "name": "success",
          "type": "bool"
        }
      ],
      "stateMutability": "nonpayable",
      "type": "function"
    },
    {
      "inputs": [
        {
          "internalType": "address payable",
          "name": "seller",
          "type": "address"
        }
      ],
      "name": "withdrawSellerRevenue",
      "outputs": [],
      "stateMutability": "nonpayable",
      "type": "function"
    },
    {
      "stateMutability": "payable",
      "type": "receive"
    }
  ],
  "bytecode": "0x60806040523480156200001157600080fd5b50600160025560405162000025906200009e565b604051809103906000f08015801562000042573d6000803e3d6000fd5b5060038054601960a31b6001600160b01b03199091166001600160a01b03938416171790819055604051309291909116907e21c494a404e0badb71d5d51d10ae4924bfa8bdd9dbb6cb89e60b4fb1210f0990600090a3620000ac565b61058c80620025a583390190565b6124e980620000bc6000396000f3fe6080604052600436106101855760003560e01c80639010d07c116100d1578063ca15c8731161008a578063e2fdcc1711610064578063e2fdcc17146105dc578063eb0ad83d146105fc578063ec29021514610629578063edd5e6e91461063e57600080fd5b8063ca15c8731461057c578063d4b2633b1461059c578063d547741f146105bc57600080fd5b80639010d07c146104ba57806391d14854146104f2578063957bb1e014610512578063a217fddf14610525578063b77472671461053a578063c99562f61461055a57600080fd5b806336568abe1161013e5780635e663569116101185780635e663569146103f65780636916956b1461043157806375b238fc146104515780638abdf5aa1461048557600080fd5b806336568abe146102f9578063418e4b3c146103195780635e2fc29b146103d657600080fd5b806301ffc9a7146101d357806307beac5514610208578063150b7a021461022a578063248a9ca31461026e57806326b387bb146102ac5780632f2ff15d146102d957600080fd5b366101ce5760405163a183e9a560e01b81526020600482015260136024820152724e6f742070617961626c65207265636569766560681b60448201526064015b60405180910390fd5b600080fd5b3480156101df57600080fd5b506101f36101ee366004611f68565b61065e565b60405190151581526020015b60405180910390f35b34801561021457600080fd5b50610228610223366004611fa7565b610689565b005b34801561023657600080fd5b50610255610245366004612058565b630a85bd0160e11b949350505050565b6040516001600160e01b031990911681526020016101ff565b34801561027a57600080fd5b5061029e610289366004612138565b60009081526020819052604090206001015490565b6040519081526020016101ff565b3480156102b857600080fd5b5061029e6102c7366004612151565b60066020526000908152604090205481565b3480156102e557600080fd5b506102286102f436600461216e565b61076b565b34801561030557600080fd5b5061022861031436600461216e565b610795565b34801561032557600080fd5b5061038a610334366004612138565b600460208190526000918252604090912080546001820154600283015460038401549484015460058501546006909501549395929491936001600160a01b0391821692821691811690600160a01b900460ff1688565b6040805198895260208901979097529587019490945260608601929092526001600160a01b03908116608086015290811660a08501521660c0830152151560e0820152610100016101ff565b3480156103e257600080fd5b506102286103f1366004612151565b610813565b34801561040257600080fd5b506101f361041136600461219e565b600560209081526000928352604080842090915290825290205460ff1681565b34801561043d57600080fd5b5061022861044c3660046121d8565b610846565b34801561045d57600080fd5b5061029e7fa49807205ce4d355092ef5a8a18f56e8913cf4a201fbe287825b095693c2177581565b34801561049157600080fd5b506003546104a790600160a01b900461ffff1681565b60405161ffff90911681526020016101ff565b3480156104c657600080fd5b506104da6104d5366004612206565b6108a4565b6040516001600160a01b0390911681526020016101ff565b3480156104fe57600080fd5b506101f361050d36600461216e565b6108c3565b610228610520366004612138565b6108ec565b34801561053157600080fd5b5061029e600081565b34801561054657600080fd5b506101f3610555366004612138565b610c2c565b34801561056657600080fd5b5061056f610f43565b6040516101ff9190612288565b34801561058857600080fd5b5061029e610597366004612138565b61109d565b3480156105a857600080fd5b506102286105b736600461216e565b6110b4565b3480156105c857600080fd5b506102286105d736600461216e565b6110e7565b3480156105e857600080fd5b506003546104da906001600160a01b031681565b34801561060857600080fd5b5061061c610617366004612138565b61110c565b6040516101ff91906122d7565b34801561063557600080fd5b506101f36111c4565b34801561064a57600080fd5b5061029e6106593660046122e6565b611286565b60006001600160e01b03198216635a05180f60e01b1480610683575061068382611691565b92915050565b7fa49807205ce4d355092ef5a8a18f56e8913cf4a201fbe287825b095693c217756106b3816116c6565b60005b8381101561076357856001600160a01b03166342842e0e30858888868181106106e1576106e16122fe565b6040516001600160e01b031960e088901b1681526001600160a01b03958616600482015294909316602485015250602090910201356044820152606401600060405180830381600087803b15801561073857600080fd5b505af115801561074c573d6000803e3d6000fd5b50505050808061075b9061232a565b9150506106b6565b505050505050565b600082815260208190526040902060010154610786816116c6565b61079083836116d3565b505050565b6001600160a01b03811633146108055760405162461bcd60e51b815260206004820152602f60248201527f416363657373436f6e74726f6c3a2063616e206f6e6c792072656e6f756e636560448201526e103937b632b9903337b91039b2b63360891b60648201526084016101c5565b61080f82826116f5565b5050565b806001600160a01b038116331461083d5760405163060a6aeb60e51b815260040160405180910390fd5b61080f82611717565b60405163a22cb46560e01b815230600482015281151560248201526001600160a01b0383169063a22cb465906044015b600060405180830381600087803b15801561089057600080fd5b505af1158015610763573d6000803e3d6000fd5b60008281526001602052604081206108bc90836117c2565b9392505050565b6000918252602082815260408084206001600160a01b0393909316845291905290205460ff1690565b60008181526004602081815260409283902083516101008101855281548152600182015492810192909252600281015493820193909352600383015460608201819052918301546001600160a01b0390811660808301526005840154811660a083015260069093015492831660c0820152600160a01b90920460ff16151560e083015282919034101561099a57806060015160405163723e6dc160e11b81526004016101c591815260200190565b6000838152600460208181526040928390208351610100810185528154815260018201549281019290925260028101549382019390935260038301546060820152908201546001600160a01b0390811660808301526005830154811660a083015260069092015491821660c0820152600160a01b90910460ff1615801560e0830152849190610a42578051604051636d9c892f60e11b815260048101919091526024016101c5565b60008581526004602081815260409283902083516101008101855281548152600182015492810192909252600281015493820193909352600383015460608201819052918301546001600160a01b0390811660808301526005840154811660a083015260069093015492831660c0820152600160a01b90920460ff16151560e08301528691903411610aef57806060015160405163723e6dc160e11b81526004016101c591815260200190565b60008781526004602052604090206005810154349033906001600160a01b03168103610b5e5760405163a183e9a560e01b815260206004820152601760248201527f416c72656164792068696768657374206269646465722100000000000000000060448201526064016101c5565b60058301546001600160a01b031615610bc457600383015460058401546001600160a01b031660009081526006602052604081208054909190610ba2908490612343565b909155505060058301546003840154610bc4916001600160a01b0316906117ce565b600383018290556005830180546001600160a01b0319166001600160a01b03831690811790915583546040518481527fa3eb7fe0be6b3d2c74cc2abe7b4cd0c8c2294a5ed1dcc026feb98da92264f3779060200160405180910390a350505050505050505050565b60008181526004602081815260408084208151610100810183528154815260018201549381019390935260028101549183019190915260038101546060830152918201546001600160a01b0390811660808301526005830154811660a083015260069092015491821660c0820152600160a01b90910460ff1615801560e0830152839190610cd3578051604051636d9c892f60e11b815260048101919091526024016101c5565b60008481526004602052604090206002810154421015610d215760405163a183e9a560e01b8152602060048201526008602482015267546f20736f6f6e2160c01b60448201526064016101c5565b6006810154600160a01b900460ff1615610d54578054604051636d9c892f60e11b815260048101919091526024016101c5565b60068101805460ff60a01b1916600160a01b17905560048101546001600160a01b03908116600090815260056020818152604080842060018701548552909152909120805460ff1916905582015416610dec578054610db290611876565b600181015481546040517fd241bcbb45fbc4555ae5438d31830c461eeea19690558825a270e35c017d67e590600090a36000935050610f3c565b600160086000828254610dff9190612343565b90915550506004818101546040516301ffc9a760e01b815263152a902d60e11b928101929092526000916001600160a01b03909116906301ffc9a790602401602060405180830381865afa158015610e5b573d6000803e3d6000fd5b505050506040513d601f19601f82011682018060405250810190610e7f9190612356565b905080610ec15760068201546003830154610ea3916001600160a01b0316906117ce565b6005820154610ebc9087906001600160a01b03166119b5565b610eda565b6005820154610eda9087906001600160a01b03166119b5565b60058201546001830154835460038501546040519081526001600160a01b03909316927fbeb8d99c57a7f2d4ed8b1bd14f308212af1c826c3e80016526b76ccc0eb4dd179060200160405180910390a48154610f3590611876565b6001945050505b5050919050565b60075460085460609190600090610f5a9083612373565b90506000808267ffffffffffffffff811115610f7857610f78612042565b604051908082528060200260200182016040528015610fb157816020015b610f9e611f24565b815260200190600190039081610f965790505b50905060005b84811015611094576000610fcc826001612343565b6000818152600460208181526040928390208351610100810185528154815260018201549281019290925260028101549382019390935260038301546060820152908201546001600160a01b0390811660808301526005830154811660a083015260069092015491821660c0820152600160a01b90910460ff16151560e08201528451919250908190859087908110611067576110676122fe565b602090810291909101015261107d600186612343565b94505050808061108c9061232a565b915050610fb7565b50949350505050565b600081815260016020526040812061068390611a94565b60405163095ea7b360e01b8152306004820152602481018390526001600160a01b0382169063095ea7b390604401610876565b600082815260208190526040902060010154611102816116c6565b61079083836116f5565b611114611f24565b7fa49807205ce4d355092ef5a8a18f56e8913cf4a201fbe287825b095693c2177561113e816116c6565b50506000908152600460208181526040928390208351610100810185528154815260018201549281019290925260028101549382019390935260038301546060820152908201546001600160a01b0390811660808301526005830154811660a083015260069092015491821660c0820152600160a01b90910460ff16151560e082015290565b3360009081526006602052604081205481036112195760405163a183e9a560e01b81526020600482015260136024820152724e6f2070656e64696e672052657475726e732160681b60448201526064016101c5565b33600090815260066020526040902054801561127e573360008181526006602052604081205561124890610813565b60405181815233907f776937c4d7f28ffdf4afa12dcfc0bdd3d0ac3ab2315fd5cc109ed2fed8e4d3c39060200160405180910390a25b600191505090565b6000813561129a6080840160608501612151565b6112aa60a0850160808601612151565b6040516331a9108f60e11b8152600481018490526001600160a01b03831690636352211e90602401602060405180830381865afa1580156112ef573d6000803e3d6000fd5b505050506040513d601f19601f820116820180604052508101906113139190612386565b6001600160a01b0316816001600160a01b031614611344576040516359dc379f60e01b815260040160405180910390fd5b84356113566080870160608801612151565b6001600160a01b038116600090815260056020908152604080832085845290915290205460ff16801561139f57604051636fcd528960e11b8152600481018490526024016101c5565b87356113b160808a0160608b01612151565b6113c160a08b0160808c01612151565b60405163020604bf60e21b81526004810184905230906001600160a01b0384169063081812fc90602401602060405180830381865afa158015611408573d6000803e3d6000fd5b505050506040513d601f19601f8201168201806040525081019061142c9190612386565b6001600160a01b031614806114ac575060405163e985e9c560e01b81526001600160a01b03828116600483015230602483015283169063e985e9c590604401602060405180830381865afa158015611488573d6000803e3d6000fd5b505050506040513d601f19601f820116820180604052508101906114ac9190612356565b156114ca57604051631c1a317160e11b815260040160405180910390fd5b60208b013515806114dd575060408b0135155b156114fb57604051630373865960e11b815260040160405180910390fd5b60016007600082825461150e9190612343565b918290555060008181526004602090815260409091208e356001820155919c5090915061153e908d013542612343565b600282015560408c0135600382015561155d60808d0160608e01612151565b6004820180546001600160a01b0319166001600160a01b039290921691909117905561158f60a08d0160808e01612151565b8160060160006101000a8154816001600160a01b0302191690836001600160a01b0316021790555060008160060160146101000a81548160ff0219169083151502179055506001600560008e60600160208101906115ed9190612151565b6001600160a01b03166001600160a01b0316815260200190815260200160002060008e60000135815260200190815260200160002060006101000a81548160ff0219169083151502179055508b608001602081019061164c9190612151565b6001600160a01b03168b7f6def2ac549c1f876cdd2db9973a8bcd6ede216c48ec1d0b23394a029ef4a376060405160405180910390a350505050505050505050919050565b60006001600160e01b03198216637965db0b60e01b148061068357506301ffc9a760e01b6001600160e01b0319831614610683565b6116d08133611a9e565b50565b6116dd8282611af7565b60008281526001602052604090206107909082611b7b565b6116ff8282611b90565b60008281526001602052604090206107909082611bf5565b6001600160a01b038181166000818152600660205260408082209190915560035490516351cff8d960e01b81526004810192909252909116906351cff8d990602401600060405180830381600087803b15801561177357600080fd5b505af1158015611787573d6000803e3d6000fd5b50506040516001600160a01b03841692507f8b893bcbc5bce509a4f8cf62a0fd8308f2ef068d8862ee06aef051027ca2a3229150600090a250565b60006108bc8383611c0a565b60035460405163f340fa0160e01b81526001600160a01b0384811660048301529091169063f340fa019083906024016000604051808303818588803b15801561181657600080fd5b505af115801561182a573d6000803e3d6000fd5b5050505050816001600160a01b03167f0fba8404439890021adb1c06dce3dc283974eb639a2dc521dca0c8d6378f582f8260405161186a91815260200190565b60405180910390a25050565b6000818152600460208181526040928390208351610100810185528154815260018201549281019290925260028101549382019390935260038301546060820152908201546001600160a01b0390811660808301526005830154811660a083015260069092015491821660c0820152600160a01b90910460ff1615801560e083015261080f578060a001516001600160a01b0316816020015182600001517f9c70fe4e3788f0b14341c49d1600f1cae04fb0f9932ec6ca4643b844ae46e23a846060015142604051611952929190918252602082015260400190565b60405180910390a4506000908152600460208190526040822082815560018101839055600281018390556003810192909255810180546001600160a01b0319908116909155600582018054909116905560060180546001600160a81b0319169055565b60008281526004602081905260408083208083015460068201546001909201548351632142170760e11b81526001600160a01b03938416958101959095528683166024860152604485015291519116926342842e0e926064808201939182900301818387803b158015611a2757600080fd5b505af1158015611a3b573d6000803e3d6000fd5b5050506000838152600460208190526040808320600181015492015490519193506001600160a01b0390811692908516917ff89c3306c782ffbbe4593aa5673e97e9ad6a8c65d240405e8986363fada663929190a45050565b6000610683825490565b611aa882826108c3565b61080f57611ab581611c34565b611ac0836020611c46565b604051602001611ad19291906123c7565b60408051601f198184030181529082905262461bcd60e51b82526101c59160040161243c565b611b0182826108c3565b61080f576000828152602081815260408083206001600160a01b03851684529091529020805460ff19166001179055611b373390565b6001600160a01b0316816001600160a01b0316837f2f8788117e7eff1d82e926ec794901d17c78024a50270940304540a733656f0d60405160405180910390a45050565b60006108bc836001600160a01b038416611de2565b611b9a82826108c3565b1561080f576000828152602081815260408083206001600160a01b0385168085529252808320805460ff1916905551339285917ff6391f5c32d9c69d2a47ea670b442974b53935d1edc7fd64eb21e047a839171b9190a45050565b60006108bc836001600160a01b038416611e31565b6000826000018281548110611c2157611c216122fe565b9060005260206000200154905092915050565b60606106836001600160a01b03831660145b60606000611c5583600261246f565b611c60906002612343565b67ffffffffffffffff811115611c7857611c78612042565b6040519080825280601f01601f191660200182016040528015611ca2576020820181803683370190505b509050600360fc1b81600081518110611cbd57611cbd6122fe565b60200101906001600160f81b031916908160001a905350600f60fb1b81600181518110611cec57611cec6122fe565b60200101906001600160f81b031916908160001a9053506000611d1084600261246f565b611d1b906001612343565b90505b6001811115611d93576f181899199a1a9b1b9c1cb0b131b232b360811b85600f1660108110611d4f57611d4f6122fe565b1a60f81b828281518110611d6557611d656122fe565b60200101906001600160f81b031916908160001a90535060049490941c93611d8c81612486565b9050611d1e565b5083156108bc5760405162461bcd60e51b815260206004820181905260248201527f537472696e67733a20686578206c656e67746820696e73756666696369656e7460448201526064016101c5565b6000818152600183016020526040812054611e2957508154600181810184556000848152602080822090930184905584548482528286019093526040902091909155610683565b506000610683565b60008181526001830160205260408120548015611f1a576000611e55600183612373565b8554909150600090611e6990600190612373565b9050818114611ece576000866000018281548110611e8957611e896122fe565b9060005260206000200154905080876000018481548110611eac57611eac6122fe565b6000918252602080832090910192909255918252600188019052604090208390555b8554869080611edf57611edf61249d565b600190038181906000526020600020016000905590558560010160008681526020019081526020016000206000905560019350505050610683565b6000915050610683565b6040805161010081018252600080825260208201819052918101829052606081018290526080810182905260a0810182905260c0810182905260e081019190915290565b600060208284031215611f7a57600080fd5b81356001600160e01b0319811681146108bc57600080fd5b6001600160a01b03811681146116d057600080fd5b60008060008060608587031215611fbd57600080fd5b8435611fc881611f92565b9350602085013567ffffffffffffffff80821115611fe557600080fd5b818701915087601f830112611ff957600080fd5b81358181111561200857600080fd5b8860208260051b850101111561201d57600080fd5b602083019550809450505050604085013561203781611f92565b939692955090935050565b634e487b7160e01b600052604160045260246000fd5b6000806000806080858703121561206e57600080fd5b843561207981611f92565b9350602085013561208981611f92565b925060408501359150606085013567ffffffffffffffff808211156120ad57600080fd5b818701915087601f8301126120c157600080fd5b8135818111156120d3576120d3612042565b604051601f8201601f19908116603f011681019083821181831017156120fb576120fb612042565b816040528281528a602084870101111561211457600080fd5b82602086016020830137600060208483010152809550505050505092959194509250565b60006020828403121561214a57600080fd5b5035919050565b60006020828403121561216357600080fd5b81356108bc81611f92565b6000806040838503121561218157600080fd5b82359150602083013561219381611f92565b809150509250929050565b600080604083850312156121b157600080fd5b82356121bc81611f92565b946020939093013593505050565b80151581146116d057600080fd5b600080604083850312156121eb57600080fd5b82356121f681611f92565b91506020830135612193816121ca565b6000806040838503121561221957600080fd5b50508035926020909101359150565b80518252602081015160208301526040810151604083015260608101516060830152608081015160018060a01b0380821660808501528060a08401511660a08501528060c08401511660c0850152505060e0810151151560e08301525050565b6020808252825182820181905260009190848201906040850190845b818110156122cb576122b7838551612228565b9284019261010092909201916001016122a4565b50909695505050505050565b61010081016106838284612228565b600060a082840312156122f857600080fd5b50919050565b634e487b7160e01b600052603260045260246000fd5b634e487b7160e01b600052601160045260246000fd5b60006001820161233c5761233c612314565b5060010190565b8082018082111561068357610683612314565b60006020828403121561236857600080fd5b81516108bc816121ca565b8181038181111561068357610683612314565b60006020828403121561239857600080fd5b81516108bc81611f92565b60005b838110156123be5781810151838201526020016123a6565b50506000910152565b7f416363657373436f6e74726f6c3a206163636f756e74200000000000000000008152600083516123ff8160178501602088016123a3565b7001034b99036b4b9b9b4b733903937b6329607d1b60179184019182015283516124308160288401602088016123a3565b01602801949350505050565b602081526000825180602084015261245b8160408501602087016123a3565b601f01601f19169190910160400192915050565b808202811582820484141761068357610683612314565b60008161249557612495612314565b506000190190565b634e487b7160e01b600052603160045260246000fdfea26469706673582212209aa6e09590acc0427d9a84e797118e519d665dc8d1898c8983453b54fbbf69b264736f6c63430008110033608060405234801561001057600080fd5b5061001a3361001f565b61006f565b600080546001600160a01b038381166001600160a01b0319831681178455604051919092169283917f8be0079c531659141344cd1fd0a4f28419497f9722a3daafe3b4186f6b6457e09190a35050565b61050e8061007e6000396000f3fe6080604052600436106100555760003560e01c806351cff8d91461005a578063715018a61461007c5780638da5cb5b14610091578063e3a9db1a146100be578063f2fde38b14610102578063f340fa0114610122575b600080fd5b34801561006657600080fd5b5061007a61007536600461048d565b610135565b005b34801561008857600080fd5b5061007a6101ac565b34801561009d57600080fd5b506000546040516001600160a01b0390911681526020015b60405180910390f35b3480156100ca57600080fd5b506100f46100d936600461048d565b6001600160a01b031660009081526001602052604090205490565b6040519081526020016100b5565b34801561010e57600080fd5b5061007a61011d36600461048d565b6101c0565b61007a61013036600461048d565b61023e565b61013d6102b0565b6001600160a01b0381166000818152600160205260408120805491905590610165908261030a565b816001600160a01b03167f7084f5476618d8e60b11ef0d7d3f06914655adb8793e28ff7f018d4c76d505d5826040516101a091815260200190565b60405180910390a25050565b6101b46102b0565b6101be6000610428565b565b6101c86102b0565b6001600160a01b0381166102325760405162461bcd60e51b815260206004820152602660248201527f4f776e61626c653a206e6577206f776e657220697320746865207a65726f206160448201526564647265737360d01b60648201526084015b60405180910390fd5b61023b81610428565b50565b6102466102b0565b6001600160a01b0381166000908152600160205260408120805434928392916102709084906104b1565b90915550506040518181526001600160a01b038316907f2da466a7b24304f47e87fa2e1e5a81b9831ce54fec19055ce277ca2f39ba42c4906020016101a0565b6000546001600160a01b031633146101be5760405162461bcd60e51b815260206004820181905260248201527f4f776e61626c653a2063616c6c6572206973206e6f7420746865206f776e65726044820152606401610229565b8047101561035a5760405162461bcd60e51b815260206004820152601d60248201527f416464726573733a20696e73756666696369656e742062616c616e63650000006044820152606401610229565b6000826001600160a01b03168260405160006040518083038185875af1925050503d80600081146103a7576040519150601f19603f3d011682016040523d82523d6000602084013e6103ac565b606091505b50509050806104235760405162461bcd60e51b815260206004820152603a60248201527f416464726573733a20756e61626c6520746f2073656e642076616c75652c207260448201527f6563697069656e74206d617920686176652072657665727465640000000000006064820152608401610229565b505050565b600080546001600160a01b038381166001600160a01b0319831681178455604051919092169283917f8be0079c531659141344cd1fd0a4f28419497f9722a3daafe3b4186f6b6457e09190a35050565b6001600160a01b038116811461023b57600080fd5b60006020828403121561049f57600080fd5b81356104aa81610478565b9392505050565b808201808211156104d257634e487b7160e01b600052601160045260246000fd5b9291505056fea26469706673582212208ca39532fe736bc67d94c3b851989e9fe84a837724bbf0cbfed050c1a22843bb64736f6c63430008110033",
  "linkReferences": {},
  "deployedLinkReferences": {}
}