{
  "_format": "hh-sol-artifact-1",
  "contractName": "FuseAuction",
  "sourceName": "contracts/FuseAuction.sol",
  "abi": [
    {
      "inputs": [],
      "stateMutability": "nonpayable",
      "type": "constructor"
    },
    {
      "inputs": [
        {
          "internalType": "string",
          "name": "message",
          "type": "string"
        }
      ],
      "name": "ErrorMessage",
      "type": "error"
    },
    {
      "inputs": [
        {
          "internalType": "string",
          "name": "failed",
          "type": "string"
        }
      ],
      "name": "FailedTransaction",
      "type": "error"
    },
    {
      "inputs": [
        {
          "internalType": "uint256",
          "name": "expected",
          "type": "uint256"
        },
        {
          "internalType": "uint256",
          "name": "amount",
          "type": "uint256"
        }
      ],
      "name": "LowAmount",
      "type": "error"
    },
    {
      "inputs": [
        {
          "internalType": "uint256",
          "name": "expected",
          "type": "uint256"
        }
      ],
      "name": "LowValue",
      "type": "error"
    },
    {
      "inputs": [],
      "name": "NoZeroValues",
      "type": "error"
    },
    {
      "inputs": [
        {
          "internalType": "bytes32",
          "name": "id",
          "type": "bytes32"
        }
      ],
      "name": "NotActive",
      "type": "error"
    },
    {
      "inputs": [],
      "name": "NotAuth",
      "type": "error"
    },
    {
      "inputs": [],
      "name": "NotTokenOwner",
      "type": "error"
    },
    {
      "inputs": [],
      "name": "bidderIsSeller",
      "type": "error"
    },
    {
      "inputs": [],
      "name": "funsNotTransfered",
      "type": "error"
    },
    {
      "inputs": [
        {
          "internalType": "uint256",
          "name": "",
          "type": "uint256"
        }
      ],
      "name": "isActiveItem",
      "type": "error"
    },
    {
      "inputs": [],
      "name": "notApproved",
      "type": "error"
    },
    {
      "inputs": [],
      "name": "tokenNotSupported",
      "type": "error"
    },
    {
      "inputs": [],
      "name": "transferFunds",
      "type": "error"
    },
    {
      "inputs": [],
      "name": "transferRoyaltiesFunds",
      "type": "error"
    },
    {
      "anonymous": false,
      "inputs": [
        {
          "indexed": true,
          "internalType": "address",
          "name": "to",
          "type": "address"
        },
        {
          "indexed": true,
          "internalType": "address",
          "name": "collection",
          "type": "address"
        },
        {
          "indexed": true,
          "internalType": "uint256",
          "name": "tokenId",
          "type": "uint256"
        }
      ],
      "name": "AssetSent",
      "type": "event"
    },
    {
      "anonymous": false,
      "inputs": [
        {
          "indexed": true,
          "internalType": "bytes32",
          "name": "auctionId",
          "type": "bytes32"
        },
        {
          "indexed": true,
          "internalType": "uint256",
          "name": "itemId",
          "type": "uint256"
        },
        {
          "indexed": true,
          "internalType": "address",
          "name": "winner",
          "type": "address"
        },
        {
          "indexed": false,
          "internalType": "uint256",
          "name": "amount",
          "type": "uint256"
        }
      ],
      "name": "AuctionClaimed",
      "type": "event"
    },
    {
      "anonymous": false,
      "inputs": [
        {
          "indexed": true,
          "internalType": "bytes32",
          "name": "auctionId",
          "type": "bytes32"
        },
        {
          "indexed": true,
          "internalType": "uint256",
          "name": "itemId",
          "type": "uint256"
        },
        {
          "indexed": true,
          "internalType": "address",
          "name": "highestBidder",
          "type": "address"
        },
        {
          "indexed": false,
          "internalType": "uint256",
          "name": "highestBid",
          "type": "uint256"
        },
        {
          "indexed": false,
          "internalType": "uint256",
          "name": "timestamp",
          "type": "uint256"
        }
      ],
      "name": "AuctionRemoved",
      "type": "event"
    },
    {
      "anonymous": false,
      "inputs": [
        {
          "indexed": true,
          "internalType": "address",
          "name": "seller",
          "type": "address"
        },
        {
          "indexed": false,
          "internalType": "uint256",
          "name": "value",
          "type": "uint256"
        }
      ],
      "name": "DepositToEscrow",
      "type": "event"
    },
    {
      "anonymous": false,
      "inputs": [
        {
          "indexed": true,
          "internalType": "contract Escrow",
          "name": "escrow",
          "type": "address"
        },
        {
          "indexed": true,
          "internalType": "contract TokenEscrow",
          "name": "tokenEscrow",
          "type": "address"
        },
        {
          "indexed": true,
          "internalType": "address",
          "name": "operator",
          "type": "address"
        }
      ],
      "name": "EscrowDeployed",
      "type": "event"
    },
    {
      "anonymous": false,
      "inputs": [
        {
          "indexed": true,
          "internalType": "bytes32",
          "name": "auctionId",
          "type": "bytes32"
        },
        {
          "indexed": true,
          "internalType": "address",
          "name": "bidder",
          "type": "address"
        },
        {
          "indexed": false,
          "internalType": "uint256",
          "name": "amount",
          "type": "uint256"
        }
      ],
      "name": "HighestBidIncrease",
      "type": "event"
    },
    {
      "anonymous": false,
      "inputs": [
        {
          "indexed": true,
          "internalType": "bytes32",
          "name": "auctionId",
          "type": "bytes32"
        },
        {
          "indexed": true,
          "internalType": "address",
          "name": "seller",
          "type": "address"
        }
      ],
      "name": "MarketAuctionCreated",
      "type": "event"
    },
    {
      "anonymous": false,
      "inputs": [
        {
          "indexed": true,
          "internalType": "bytes32",
          "name": "auctionId",
          "type": "bytes32"
        },
        {
          "indexed": true,
          "internalType": "uint256",
          "name": "itemId",
          "type": "uint256"
        }
      ],
      "name": "NoBuyer",
      "type": "event"
    },
    {
      "anonymous": false,
      "inputs": [
        {
          "indexed": true,
          "internalType": "bytes32",
          "name": "role",
          "type": "bytes32"
        },
        {
          "indexed": true,
          "internalType": "bytes32",
          "name": "previousAdminRole",
          "type": "bytes32"
        },
        {
          "indexed": true,
          "internalType": "bytes32",
          "name": "newAdminRole",
          "type": "bytes32"
        }
      ],
      "name": "RoleAdminChanged",
      "type": "event"
    },
    {
      "anonymous": false,
      "inputs": [
        {
          "indexed": true,
          "internalType": "bytes32",
          "name": "role",
          "type": "bytes32"
        },
        {
          "indexed": true,
          "internalType": "address",
          "name": "account",
          "type": "address"
        },
        {
          "indexed": true,
          "internalType": "address",
          "name": "sender",
          "type": "address"
        }
      ],
      "name": "RoleGranted",
      "type": "event"
    },
    {
      "anonymous": false,
      "inputs": [
        {
          "indexed": true,
          "internalType": "bytes32",
          "name": "role",
          "type": "bytes32"
        },
        {
          "indexed": true,
          "internalType": "address",
          "name": "account",
          "type": "address"
        },
        {
          "indexed": true,
          "internalType": "address",
          "name": "sender",
          "type": "address"
        }
      ],
      "name": "RoleRevoked",
      "type": "event"
    },
    {
      "anonymous": false,
      "inputs": [
        {
          "indexed": true,
          "internalType": "address",
          "name": "receiver",
          "type": "address"
        },
        {
          "indexed": false,
          "internalType": "uint256",
          "name": "amount",
          "type": "uint256"
        }
      ],
      "name": "TransferRoyalty",
      "type": "event"
    },
    {
      "anonymous": false,
      "inputs": [
        {
          "indexed": true,
          "internalType": "address",
          "name": "serviceWallet",
          "type": "address"
        },
        {
          "indexed": false,
          "internalType": "uint256",
          "name": "amount",
          "type": "uint256"
        }
      ],
      "name": "TransferServiceFee",
      "type": "event"
    },
    {
      "anonymous": false,
      "inputs": [
        {
          "indexed": true,
          "internalType": "address",
          "name": "seller",
          "type": "address"
        }
      ],
      "name": "WithdrawFromEscrow",
      "type": "event"
    },
    {
      "anonymous": false,
      "inputs": [
        {
          "indexed": true,
          "internalType": "address",
          "name": "to",
          "type": "address"
        },
        {
          "indexed": false,
          "internalType": "uint256",
          "name": "amount",
          "type": "uint256"
        }
      ],
      "name": "WithdrawPendingReturns",
      "type": "event"
    },
    {
      "inputs": [],
      "name": "ADMIN_ROLE",
      "outputs": [
        {
          "internalType": "bytes32",
          "name": "",
          "type": "bytes32"
        }
      ],
      "stateMutability": "view",
      "type": "function"
    },
    {
      "inputs": [],
      "name": "DEFAULT_ADMIN_ROLE",
      "outputs": [
        {
          "internalType": "bytes32",
          "name": "",
          "type": "bytes32"
        }
      ],
      "stateMutability": "view",
      "type": "function"
    },
    {
      "inputs": [
        {
          "internalType": "bytes32",
          "name": "",
          "type": "bytes32"
        }
      ],
      "name": "auctionsMapping",
      "outputs": [
        {
          "internalType": "bytes32",
          "name": "auctionId",
          "type": "bytes32"
        },
        {
          "internalType": "uint256",
          "name": "itemId",
          "type": "uint256"
        },
        {
          "internalType": "uint256",
          "name": "auctionEndTime",
          "type": "uint256"
        },
        {
          "internalType": "uint256",
          "name": "highestBid",
          "type": "uint256"
        },
        {
          "internalType": "address",
          "name": "nftContract",
          "type": "address"
        },
        {
          "internalType": "address",
          "name": "ERC20Contract",
          "type": "address"
        },
        {
          "internalType": "address",
          "name": "highestBidder",
          "type": "address"
        },
        {
          "internalType": "address payable",
          "name": "seller",
          "type": "address"
        },
        {
          "internalType": "bool",
          "name": "isERC20",
          "type": "bool"
        },
        {
          "internalType": "bool",
          "name": "ended",
          "type": "bool"
        }
      ],
      "stateMutability": "view",
      "type": "function"
    },
    {
      "inputs": [
        {
          "internalType": "bytes32",
          "name": "auctionId",
          "type": "bytes32"
        }
      ],
      "name": "bid",
      "outputs": [],
      "stateMutability": "payable",
      "type": "function"
    },
    {
      "inputs": [
        {
          "internalType": "bytes32",
          "name": "auctionId",
          "type": "bytes32"
        },
        {
          "internalType": "uint256",
          "name": "bidAmount",
          "type": "uint256"
        }
      ],
      "name": "bidERC20",
      "outputs": [],
      "stateMutability": "payable",
      "type": "function"
    },
    {
      "inputs": [
        {
          "internalType": "bytes32",
          "name": "auctionId",
          "type": "bytes32"
        }
      ],
      "name": "claimAuction",
      "outputs": [
        {
          "internalType": "bool",
          "name": "",
          "type": "bool"
        }
      ],
      "stateMutability": "nonpayable",
      "type": "function"
    },
    {
      "inputs": [
        {
          "internalType": "uint256",
          "name": "itemId",
          "type": "uint256"
        },
        {
          "internalType": "uint256",
          "name": "biddingTime",
          "type": "uint256"
        },
        {
          "internalType": "uint256",
          "name": "minimumBid",
          "type": "uint256"
        },
        {
          "internalType": "address",
          "name": "nftContract",
          "type": "address"
        },
        {
          "internalType": "address",
          "name": "tokenAdrress",
          "type": "address"
        }
      ],
      "name": "createERC20Auction",
      "outputs": [
        {
          "internalType": "bytes32",
          "name": "_auctionId",
          "type": "bytes32"
        }
      ],
      "stateMutability": "nonpayable",
      "type": "function"
    },
    {
      "inputs": [
        {
          "internalType": "uint256",
          "name": "itemId",
          "type": "uint256"
        },
        {
          "internalType": "uint256",
          "name": "biddingTime",
          "type": "uint256"
        },
        {
          "internalType": "uint256",
          "name": "minimumBid",
          "type": "uint256"
        },
        {
          "internalType": "address",
          "name": "nftContract",
          "type": "address"
        }
      ],
      "name": "createNativeAuction",
      "outputs": [
        {
          "internalType": "bytes32",
          "name": "_auctionId",
          "type": "bytes32"
        }
      ],
      "stateMutability": "nonpayable",
      "type": "function"
    },
    {
      "inputs": [],
      "name": "escrow",
      "outputs": [
        {
          "internalType": "contract Escrow",
          "name": "",
          "type": "address"
        }
      ],
      "stateMutability": "view",
      "type": "function"
    },
    {
      "inputs": [],
      "name": "fetchMarketAuctions",
      "outputs": [
        {
          "components": [
            {
              "internalType": "bytes32",
              "name": "auctionId",
              "type": "bytes32"
            },
            {
              "internalType": "uint256",
              "name": "itemId",
              "type": "uint256"
            },
            {
              "internalType": "uint256",
              "name": "auctionEndTime",
              "type": "uint256"
            },
            {
              "internalType": "uint256",
              "name": "highestBid",
              "type": "uint256"
            },
            {
              "internalType": "address",
              "name": "nftContract",
              "type": "address"
            },
            {
              "internalType": "address",
              "name": "ERC20Contract",
              "type": "address"
            },
            {
              "internalType": "address",
              "name": "highestBidder",
              "type": "address"
            },
            {
              "internalType": "address payable",
              "name": "seller",
              "type": "address"
            },
            {
              "internalType": "bool",
              "name": "isERC20",
              "type": "bool"
            },
            {
              "internalType": "bool",
              "name": "ended",
              "type": "bool"
            }
          ],
          "internalType": "struct AuctionStorage.MarketAuction[]",
          "name": "",
          "type": "tuple[]"
        }
      ],
      "stateMutability": "view",
      "type": "function"
    },
    {
      "inputs": [
        {
          "internalType": "address",
          "name": "account",
          "type": "address"
        }
      ],
      "name": "getBalance",
      "outputs": [
        {
          "internalType": "uint256",
          "name": "",
          "type": "uint256"
        }
      ],
      "stateMutability": "view",
      "type": "function"
    },
    {
      "inputs": [
        {
          "internalType": "bytes32",
          "name": "role",
          "type": "bytes32"
        }
      ],
      "name": "getRoleAdmin",
      "outputs": [
        {
          "internalType": "bytes32",
          "name": "",
          "type": "bytes32"
        }
      ],
      "stateMutability": "view",
      "type": "function"
    },
    {
      "inputs": [
        {
          "internalType": "bytes32",
          "name": "role",
          "type": "bytes32"
        },
        {
          "internalType": "uint256",
          "name": "index",
          "type": "uint256"
        }
      ],
      "name": "getRoleMember",
      "outputs": [
        {
          "internalType": "address",
          "name": "",
          "type": "address"
        }
      ],
      "stateMutability": "view",
      "type": "function"
    },
    {
      "inputs": [
        {
          "internalType": "bytes32",
          "name": "role",
          "type": "bytes32"
        }
      ],
      "name": "getRoleMemberCount",
      "outputs": [
        {
          "internalType": "uint256",
          "name": "",
          "type": "uint256"
        }
      ],
      "stateMutability": "view",
      "type": "function"
    },
    {
      "inputs": [
        {
          "internalType": "bytes32",
          "name": "role",
          "type": "bytes32"
        },
        {
          "internalType": "address",
          "name": "account",
          "type": "address"
        }
      ],
      "name": "grantRole",
      "outputs": [],
      "stateMutability": "nonpayable",
      "type": "function"
    },
    {
      "inputs": [
        {
          "internalType": "bytes32",
          "name": "role",
          "type": "bytes32"
        },
        {
          "internalType": "address",
          "name": "account",
          "type": "address"
        }
      ],
      "name": "hasRole",
      "outputs": [
        {
          "internalType": "bool",
          "name": "",
          "type": "bool"
        }
      ],
      "stateMutability": "view",
      "type": "function"
    },
    {
      "inputs": [
        {
          "internalType": "address",
          "name": "",
          "type": "address"
        },
        {
          "internalType": "uint256",
          "name": "",
          "type": "uint256"
        }
      ],
      "name": "isActiveTokenId",
      "outputs": [
        {
          "internalType": "bool",
          "name": "",
          "type": "bool"
        }
      ],
      "stateMutability": "view",
      "type": "function"
    },
    {
      "inputs": [
        {
          "internalType": "address",
          "name": "",
          "type": "address"
        },
        {
          "internalType": "address",
          "name": "",
          "type": "address"
        },
        {
          "internalType": "uint256",
          "name": "",
          "type": "uint256"
        },
        {
          "internalType": "bytes",
          "name": "",
          "type": "bytes"
        }
      ],
      "name": "onERC721Received",
      "outputs": [
        {
          "internalType": "bytes4",
          "name": "",
          "type": "bytes4"
        }
      ],
      "stateMutability": "nonpayable",
      "type": "function"
    },
    {
      "inputs": [
        {
          "internalType": "address",
          "name": "",
          "type": "address"
        },
        {
          "internalType": "address",
          "name": "",
          "type": "address"
        }
      ],
      "name": "pendingFunds",
      "outputs": [
        {
          "internalType": "uint256",
          "name": "",
          "type": "uint256"
        }
      ],
      "stateMutability": "view",
      "type": "function"
    },
    {
      "inputs": [
        {
          "internalType": "address",
          "name": "",
          "type": "address"
        }
      ],
      "name": "pendingReturns",
      "outputs": [
        {
          "internalType": "uint256",
          "name": "",
          "type": "uint256"
        }
      ],
      "stateMutability": "view",
      "type": "function"
    },
    {
      "inputs": [
        {
          "internalType": "bytes32",
          "name": "role",
          "type": "bytes32"
        },
        {
          "internalType": "address",
          "name": "account",
          "type": "address"
        }
      ],
      "name": "renounceRole",
      "outputs": [],
      "stateMutability": "nonpayable",
      "type": "function"
    },
    {
      "inputs": [
        {
          "internalType": "address",
          "name": "collection",
          "type": "address"
        },
        {
          "internalType": "uint256[]",
          "name": "tokenIds",
          "type": "uint256[]"
        },
        {
          "internalType": "address",
          "name": "receiver",
          "type": "address"
        }
      ],
      "name": "rescue",
      "outputs": [],
      "stateMutability": "nonpayable",
      "type": "function"
    },
    {
      "inputs": [
        {
          "internalType": "bytes32",
          "name": "role",
          "type": "bytes32"
        },
        {
          "internalType": "address",
          "name": "account",
          "type": "address"
        }
      ],
      "name": "revokeRole",
      "outputs": [],
      "stateMutability": "nonpayable",
      "type": "function"
    },
    {
      "inputs": [],
      "name": "serviceFee",
      "outputs": [
        {
          "internalType": "uint16",
          "name": "",
          "type": "uint16"
        }
      ],
      "stateMutability": "view",
      "type": "function"
    },
    {
      "inputs": [
        {
          "internalType": "bytes4",
          "name": "interfaceId",
          "type": "bytes4"
        }
      ],
      "name": "supportsInterface",
      "outputs": [
        {
          "internalType": "bool",
          "name": "",
          "type": "bool"
        }
      ],
      "stateMutability": "view",
      "type": "function"
    },
    {
      "inputs": [],
      "name": "tokenEscrow",
      "outputs": [
        {
          "internalType": "contract TokenEscrow",
          "name": "",
          "type": "address"
        }
      ],
      "stateMutability": "view",
      "type": "function"
    },
    {
      "inputs": [
        {
          "internalType": "bytes32",
          "name": "auctionId",
          "type": "bytes32"
        }
      ],
      "name": "withdrawPendingFunds",
      "outputs": [
        {
          "internalType": "bool",
          "name": "success",
          "type": "bool"
        }
      ],
      "stateMutability": "nonpayable",
      "type": "function"
    },
    {
      "inputs": [],
      "name": "withdrawPendingReturns",
      "outputs": [
        {
          "internalType": "bool",
          "name": "success",
          "type": "bool"
        }
      ],
      "stateMutability": "nonpayable",
      "type": "function"
    },
    {
      "inputs": [
        {
          "internalType": "address payable",
          "name": "seller",
          "type": "address"
        },
        {
          "internalType": "address",
          "name": "tokenContract",
          "type": "address"
        }
      ],
      "name": "withdrawSellerFunds",
      "outputs": [
        {
          "internalType": "bool",
          "name": "",
          "type": "bool"
        }
      ],
      "stateMutability": "nonpayable",
      "type": "function"
    },
    {
      "inputs": [
        {
          "internalType": "address payable",
          "name": "seller",
          "type": "address"
        }
      ],
      "name": "withdrawSellerRevenue",
      "outputs": [],
      "stateMutability": "nonpayable",
      "type": "function"
    },
    {
      "stateMutability": "payable",
      "type": "receive"
    }
  ],
  "bytecode": "0x60806040523480156200001157600080fd5b5060016002556004805461ffff60a01b1916601960a31b1790556040516200003990620000fb565b604051809103906000f08015801562000056573d6000803e3d6000fd5b50600380546001600160a01b0319166001600160a01b0392909216919091179055604051620000859062000109565b604051809103906000f080158015620000a2573d6000803e3d6000fd5b50600480546001600160a01b0319166001600160a01b03928316908117909155600354604051309391909116907f04ad8067d2072c63826dba7c22aa29d981d2dac03be43ba810d465c759529de790600090a462000117565b61058c806200341883390190565b61059a80620039a483390190565b6132f180620001276000396000f3fe6080604052600436106101d15760003560e01c80638abdf5aa116100f7578063b774726711610095578063de344c7c11610064578063de344c7c146106da578063e2fdcc17146106fa578063ec2902151461071a578063f8b2cb4f1461072f57600080fd5b8063b774726714610658578063c99562f614610678578063ca15c8731461069a578063d547741f146106ba57600080fd5b8063957bb1e0116100d1578063957bb1e0146105d85780639621099b146105eb578063a217fddf14610623578063aac41ed61461063857600080fd5b80638abdf5aa1461054b5780639010d07c1461058057806391d14854146105b857600080fd5b80633836be451161016f578063694887f91161013e578063694887f9146104c457806375b238fc146104e4578063830d974d1461051857806389f6710d1461052b57600080fd5b80633836be4514610365578063418e4b3c146103855780635e2fc29b146104695780635e6635691461048957600080fd5b8063248a9ca3116101ab578063248a9ca3146102ba57806326b387bb146102f85780632f2ff15d1461032557806336568abe1461034557600080fd5b806301ffc9a71461021f57806307beac5514610254578063150b7a021461027657600080fd5b3661021a5760405163a183e9a560e01b81526020600482015260136024820152724e6f742070617961626c65207265636569766560681b60448201526064015b60405180910390fd5b600080fd5b34801561022b57600080fd5b5061023f61023a366004612c96565b610757565b60405190151581526020015b60405180910390f35b34801561026057600080fd5b5061027461026f366004612cd5565b610782565b005b34801561028257600080fd5b506102a1610291366004612d86565b630a85bd0160e11b949350505050565b6040516001600160e01b0319909116815260200161024b565b3480156102c657600080fd5b506102ea6102d5366004612e66565b60009081526020819052604090206001015490565b60405190815260200161024b565b34801561030457600080fd5b506102ea610313366004612e7f565b60076020526000908152604090205481565b34801561033157600080fd5b50610274610340366004612e9c565b61084c565b34801561035157600080fd5b50610274610360366004612e9c565b610876565b34801561037157600080fd5b5061023f610380366004612e66565b6108f4565b34801561039157600080fd5b5061040d6103a0366004612e66565b60056020819052600091825260409091208054600182015460028301546003840154600485015495850154600686015460079096015494969395929491936001600160a01b039081169391811692918116919081169060ff600160a01b8204811691600160a81b9004168a565b604080519a8b5260208b01999099529789019690965260608801949094526001600160a01b03928316608088015290821660a0870152811660c08601521660e0840152151561010083015215156101208201526101400161024b565b34801561047557600080fd5b50610274610484366004612e7f565b610a95565b34801561049557600080fd5b5061023f6104a4366004612ecc565b600660209081526000928352604080842090915290825290205460ff1681565b3480156104d057600080fd5b506102ea6104df366004612ef8565b610ac8565b3480156104f057600080fd5b506102ea7fa49807205ce4d355092ef5a8a18f56e8913cf4a201fbe287825b095693c2177581565b610274610526366004612f2e565b610cd8565b34801561053757600080fd5b5061023f610546366004612f50565b6110db565b34801561055757600080fd5b5060045461056d90600160a01b900461ffff1681565b60405161ffff909116815260200161024b565b34801561058c57600080fd5b506105a061059b366004612f2e565b61111c565b6040516001600160a01b03909116815260200161024b565b3480156105c457600080fd5b5061023f6105d3366004612e9c565b61113b565b6102746105e6366004612e66565b611164565b3480156105f757600080fd5b506102ea610606366004612f50565b600860209081526000928352604080842090915290825290205481565b34801561062f57600080fd5b506102ea600081565b34801561064457600080fd5b506004546105a0906001600160a01b031681565b34801561066457600080fd5b5061023f610673366004612e66565b61145a565b34801561068457600080fd5b5061068d6117cc565b60405161024b9190612f7e565b3480156106a657600080fd5b506102ea6106b5366004612e66565b61198a565b3480156106c657600080fd5b506102746106d5366004612e9c565b6119a1565b3480156106e657600080fd5b506102ea6106f536600461303a565b6119c6565b34801561070657600080fd5b506003546105a0906001600160a01b031681565b34801561072657600080fd5b5061023f611c02565b34801561073b57600080fd5b506102ea61074a366004612e7f565b6001600160a01b03163190565b60006001600160e01b03198216635a05180f60e01b148061077c575061077c82611cc4565b92915050565b7fa49807205ce4d355092ef5a8a18f56e8913cf4a201fbe287825b095693c217756107ac81611cf9565b60005b8381101561084457856001600160a01b03166342842e0e30858888868181106107da576107da613090565b905060200201356040518463ffffffff1660e01b81526004016107ff939291906130a6565b600060405180830381600087803b15801561081957600080fd5b505af115801561082d573d6000803e3d6000fd5b50505050808061083c906130e0565b9150506107af565b505050505050565b60008281526020819052604090206001015461086781611cf9565b6108718383611d06565b505050565b6001600160a01b03811633146108e65760405162461bcd60e51b815260206004820152602f60248201527f416363657373436f6e74726f6c3a2063616e206f6e6c792072656e6f756e636560448201526e103937b632b9903337b91039b2b63360891b6064820152608401610211565b6108f08282611d28565b5050565b6000818152600560208181526040808420815161014081018352815481526001820154818501526002820154818401526003820154606082015260048201546001600160a01b03908116608083015294820154851660a082018190526006830154861660c083015260079092015494851660e082015260ff600160a01b860481161515610100830152600160a81b9095049094161515610120850152845260089091528220826109a13390565b6001600160a01b03166001600160a01b0316815260200190815260200160002054600003610a085760405163a183e9a560e01b81526020600482015260136024820152724e6f2070656e64696e672052657475726e732160681b6044820152606401610211565b60a08101516001600160a01b031660009081526008602090815260408083203384529091529020548015610a8b5760a0820180516001600160a01b031660009081526008602090815260408083203380855292528220919091559051610a6e91906110db565b610a8b5760405163246d7d1f60e21b815260040160405180910390fd5b5060019392505050565b806001600160a01b0381163314610abf5760405163060a6aeb60e51b815260040160405180910390fd5b6108f082611d4a565b60008482806001600160a01b0316636352211e836040518263ffffffff1660e01b8152600401610afa91815260200190565b602060405180830381865afa158015610b17573d6000803e3d6000fd5b505050506040513d601f19601f82011682018060405250810190610b3b91906130f9565b6001600160a01b0316336001600160a01b031614610b6c576040516359dc379f60e01b815260040160405180910390fd5b6001600160a01b03841660009081526006602090815260408083208a84529091529020548790859060ff168015610bb957604051636fcd528960e11b815260048101849052602401610211565b881580610bc4575087155b15610be257604051630373865960e11b815260040160405180910390fd5b600160096000828254610bf59190613116565b91829055506000818152600560205260409020600181018d90559097509050610c1e8a42613116565b6002820155600381018990556004810180546001600160a01b0319166001600160a01b038a1617905533600782018054600161ff0160a01b0319166001600160a01b03928316179055881660009081526006602090815260408083208e84529091529020805460ff19166001179055610c943390565b6001600160a01b0316877f6def2ac549c1f876cdd2db9973a8bcd6ede216c48ec1d0b23394a029ef4a376060405160405180910390a3505050505050949350505050565b6000828152600560208181526040928390208351610140810185528154815260018201549281019290925260028101549382019390935260038301546060820181905260048401546001600160a01b03908116608084015292840154831660a08301526006840154831660c083015260079093015491821660e082015260ff600160a01b830481161515610100830152600160a81b909204909116151561012082015283918391908211610daf576060810151604051633099c14760e11b8152600481019190915260248101839052604401610211565b600085815260056020818152604092839020835161014081018552815481526001820154928101929092526002810154938201939093526003830154606082015260048301546001600160a01b03908116608083015291830154821660a08201526006830154821660c082015260079092015490811660e083015260ff600160a01b820481161515610100840152600160a81b90910416158015610120830152869190610e75578051604051636d9c892f60e11b81526004810191909152602401610211565b60008781526005602052604090206007810154600160a01b900460ff16610eaf5760405163583ee6d560e11b815260040160405180910390fd5b6007810154336001600160a01b0390911603610ede5760405163313a640d60e21b815260040160405180910390fd5b600681015433906001600160a01b03168103610f375760405163a183e9a560e01b8152602060048201526017602482015276416c72656164792068696768657374206269646465722160481b6044820152606401610211565b60068201546001600160a01b031615610fd957600682015460058301546003840154610f70926001600160a01b03908116921690611df5565b610f8d5760405163246d7d1f60e21b815260040160405180910390fd5b600382015460058301546001600160a01b039081166000908152600860209081526040808320600688015490941683529290529081208054909190610fd3908490613116565b90915550505b60058201546040516323b872dd60e01b81526000916001600160a01b0316906323b872dd9061101090339030908e906004016130a6565b6020604051808303816000875af115801561102f573d6000803e3d6000fd5b505050506040513d601f19601f820116820180604052508101906110539190613129565b9050806110735760405163246d7d1f60e21b815260040160405180910390fd5b600383018990556006830180546001600160a01b0319166001600160a01b03841690811790915583546040518b81527fa3eb7fe0be6b3d2c74cc2abe7b4cd0c8c2294a5ed1dcc026feb98da92264f3779060200160405180910390a350505050505050505050565b6000826001600160a01b03811633146111075760405163060a6aeb60e51b815260040160405180910390fd5b60006111138585611e70565b95945050505050565b60008281526001602052604081206111349083611f16565b9392505050565b6000918252602082815260408084206001600160a01b0393909316845291905290205460ff1690565b6000818152600560208181526040928390208351610140810185528154815260018201549281019290925260028101549382019390935260038301546060820181905260048401546001600160a01b03908116608084015292840154831660a08301526006840154831660c083015260079093015491821660e082015260ff600160a01b830481161515610100830152600160a81b90920490911615156101208201528291341161123057806060015160405163723e6dc160e11b815260040161021191815260200190565b600083815260056020818152604092839020835161014081018552815481526001820154928101929092526002810154938201939093526003830154606082015260048301546001600160a01b03908116608083015291830154821660a08201526006830154821660c082015260079092015490811660e083015260ff600160a01b820481161515610100840152600160a81b909104161580156101208301528491906112f6578051604051636d9c892f60e11b81526004810191909152602401610211565b60008581526005602052604090206007810154336001600160a01b03909116036113335760405163313a640d60e21b815260040160405180910390fd5b6006810154349033906001600160a01b0316810361138e5760405163a183e9a560e01b8152602060048201526017602482015276416c72656164792068696768657374206269646465722160481b6044820152606401610211565b60068301546001600160a01b0316156113f457600383015460068401546001600160a01b0316600090815260076020526040812080549091906113d2908490613116565b9091555050600683015460038401546113f4916001600160a01b031690611f22565b600383018290556006830180546001600160a01b0319166001600160a01b03831690811790915583546040518481527fa3eb7fe0be6b3d2c74cc2abe7b4cd0c8c2294a5ed1dcc026feb98da92264f3779060200160405180910390a35050505050505050565b6000818152600560208181526040808420815161014081018352815481526001820154938101939093526002810154918301919091526003810154606083015260048101546001600160a01b03908116608084015292810154831660a08301526006810154831660c08301526007015491821660e082015260ff600160a01b830481161515610100830152600160a81b90920490911615801561012083015283919061151f578051604051636d9c892f60e11b81526004810191909152602401610211565b6000848152600560205260409020600281015442101561156d5760405163a183e9a560e01b8152602060048201526008602482015267546f20736f6f6e2160c01b6044820152606401610211565b6007810154600160a81b900460ff16156115a0578054604051636d9c892f60e11b81526004810191909152602401610211565b60078101805460ff60a81b1916600160a81b17905560048101546001600160a01b03908116600090815260066020818152604080842060018701548552909152909120805460ff19169055820154166116385780546115fe90611fca565b600181015481546040517fd241bcbb45fbc4555ae5438d31830c461eeea19690558825a270e35c017d67e590600090a360009350506117c5565b6001600a600082825461164b9190613116565b90915550506004818101546040516301ffc9a760e01b815263152a902d60e11b928101929092526000916001600160a01b03909116906301ffc9a790602401602060405180830381865afa1580156116a7573d6000803e3d6000fd5b505050506040513d601f19601f820116820180604052508101906116cb9190613129565b90508061171f576007820154600160a01b900460ff1615611716576116ef86612132565b151560011461171157604051633c68eb8160e01b815260040160405180910390fd5b61174a565b6116ef86612283565b6117288661238e565b151560011461174a576040516355c3717160e01b815260040160405180910390fd5b60068201546117639087906001600160a01b0316612731565b60068201546001830154835460038501546040519081526001600160a01b03909316927fbeb8d99c57a7f2d4ed8b1bd14f308212af1c826c3e80016526b76ccc0eb4dd179060200160405180910390a481546117be90611fca565b6001945050505b5050919050565b600954600a54606091906000906117e3908361314b565b90506000808267ffffffffffffffff81111561180157611801612d70565b60405190808252806020026020018201604052801561188057816020015b604080516101408101825260008082526020808301829052928201819052606082018190526080820181905260a0820181905260c0820181905260e082018190526101008201819052610120820152825260001990920191018161181f5790505b50905060005b8481101561198157600061189b826001613116565b600081815260056020818152604092839020835161014081018552815481526001820154928101929092526002810154938201939093526003830154606082015260048301546001600160a01b03908116608083015291830154821660a08201526006830154821660c082015260079092015490811660e083015260ff600160a01b820481161515610100840152600160a81b909104161515610120820152845191925090819085908790811061195457611954613090565b602090810291909101015261196a600186613116565b945050508080611979906130e0565b915050611886565b50949350505050565b600081815260016020526040812061077c90612806565b6000828152602081905260409020600101546119bc81611cf9565b6108718383611d28565b60008583806001600160a01b0316636352211e836040518263ffffffff1660e01b81526004016119f891815260200190565b602060405180830381865afa158015611a15573d6000803e3d6000fd5b505050506040513d601f19601f82011682018060405250810190611a3991906130f9565b6001600160a01b0316336001600160a01b031614611a6a576040516359dc379f60e01b815260040160405180910390fd5b6001600160a01b03851660009081526006602090815260408083208b84529091529020548890869060ff168015611ab757604051636fcd528960e11b815260048101849052602401610211565b891580611ac2575088155b15611ae057604051630373865960e11b815260040160405180910390fd5b600160096000828254611af39190613116565b91829055506000818152600560205260409020600181018e90559097509050611b1c8b42613116565b6002820155600381018a90556004810180546001600160a01b03808c166001600160a01b031992831617909255600583018054928b1692909116919091179055611b633390565b60078201805460ff60a81b196001600160a81b03199091166001600160a01b0393841617600160a01b17169055891660009081526006602090815260408083208f84529091529020805460ff19166001179055611bbd3390565b6001600160a01b0316877f6def2ac549c1f876cdd2db9973a8bcd6ede216c48ec1d0b23394a029ef4a376060405160405180910390a350505050505095945050505050565b336000908152600760205260408120548103611c575760405163a183e9a560e01b81526020600482015260136024820152724e6f2070656e64696e672052657475726e732160681b6044820152606401610211565b336000908152600760205260409020548015611cbc5733600081815260076020526040812055611c8690610a95565b60405181815233907f776937c4d7f28ffdf4afa12dcfc0bdd3d0ac3ab2315fd5cc109ed2fed8e4d3c39060200160405180910390a25b600191505090565b60006001600160e01b03198216637965db0b60e01b148061077c57506301ffc9a760e01b6001600160e01b031983161461077c565b611d038133612810565b50565b611d108282612869565b600082815260016020526040902061087190826128ed565b611d328282612902565b60008281526001602052604090206108719082612967565b6001600160a01b038181166000818152600760205260408082209190915560035490516351cff8d960e01b81526004810192909252909116906351cff8d990602401600060405180830381600087803b158015611da657600080fd5b505af1158015611dba573d6000803e3d6000fd5b50506040516001600160a01b03841692507f8b893bcbc5bce509a4f8cf62a0fd8308f2ef068d8862ee06aef051027ca2a3229150600090a250565b600480546040516323b872dd60e01b815260009283926001600160a01b03808816936323b872dd93611e2d938b9316918991016130a6565b6020604051808303816000875af1158015611e4c573d6000803e3d6000fd5b505050506040513d601f19601f820116820180604052508101906111139190613129565b6001600160a01b038181166000818152600860209081526040808320338452825280832083905560048054825163f940e38560e01b8152898816928101929092526024820195909552905192948594169263f940e38592604480840193919291829003018187875af1158015611eea573d6000803e3d6000fd5b505050506040513d601f19601f82011682018060405250810190611f0e9190613129565b949350505050565b6000611134838361297c565b60035460405163f340fa0160e01b81526001600160a01b0384811660048301529091169063f340fa019083906024016000604051808303818588803b158015611f6a57600080fd5b505af1158015611f7e573d6000803e3d6000fd5b5050505050816001600160a01b03167f0fba8404439890021adb1c06dce3dc283974eb639a2dc521dca0c8d6378f582f82604051611fbe91815260200190565b60405180910390a25050565b600081815260056020818152604092839020835161014081018552815481526001820154928101929092526002810154938201939093526003830154606082015260048301546001600160a01b03908116608083015291830154821660a08201526006830154821660c082015260079092015490811660e083015260ff600160a01b820481161515610100840152600160a81b909104161580156101208301526108f0578060c001516001600160a01b0316816020015182600001517f9c70fe4e3788f0b14341c49d1600f1cae04fb0f9932ec6ca4643b844ae46e23a8460600151426040516120c4929190918252602082015260400190565b60405180910390a45060009081526005602081905260408220828155600181018390556002810183905560038101929092556004820180546001600160a01b0319908116909155908201805482169055600682018054909116905560070180546001600160b01b0319169055565b60008181526005602081815260408084208151610140810183528154815260018201549381019390935260028101549183019190915260038101546060830181905260048201546001600160a01b03908116608085015293820154841660a084018190526006830154851660c085015260079092015493841660e084015260ff600160a01b850481161515610100850152600160a81b9094049093161515610120830152909190839063a9059cbb6121e73390565b6040516001600160e01b031960e084901b1681526001600160a01b039091166004820152602481018590526044016020604051808303816000875af1158015612234573d6000803e3d6000fd5b505050506040513d601f19601f820116820180604052508101906122589190613129565b905080612278576040516314314f9760e31b81526004016102119061315e565b506001949350505050565b60008181526005602081815260408084208151610140810183528154815260018201549381019390935260028101548383015260038101546060840181905260048201546001600160a01b03908116608086015294820154851660a08501526006820154851660c085015260079091015493841660e0840181905260ff600160a01b860481161515610100860152600160a81b909504909416151561012084015290519192909184919083908381818185875af1925050503d8060008114612367576040519150601f19603f3d011682016040523d82523d6000602084013e61236c565b606091505b5050905080612278576040516314314f9760e31b81526004016102119061315e565b60008181526005602081815260408084208151610140810183528154815260018201549381018490526002820154818401526003820154606082018190526004808401546001600160a01b039081166080850181905297850154811660a08501526006850154811660c085015260079094015493841660e084015260ff600160a01b850481161515610100850152600160a81b9094049093161515610120830152925163152a902d60e11b81529094869485949193632a55205a9361245d939101918252602082015260400190565b6040805180830381865afa158015612479573d6000803e3d6000fd5b505050506040513d601f19601f8201168201806040525081019061249d919061317d565b9150915060008184606001516124b3919061314b565b90508361010001511561261d5760a084015160e085015160405163a9059cbb60e01b81526001600160a01b03918216600482015260248101849052600092919091169063a9059cbb906044016020604051808303816000875af115801561251e573d6000803e3d6000fd5b505050506040513d601f19601f820116820180604052508101906125429190613129565b905080612562576040516314314f9760e31b81526004016102119061315e565b60a085015160405163a9059cbb60e01b81526001600160a01b03868116600483015260248201869052600092169063a9059cbb906044016020604051808303816000875af11580156125b8573d6000803e3d6000fd5b505050506040513d601f19601f820116820180604052508101906125dc9190613129565b905080612616576040516314314f9760e31b8152602060048201526007602482015266526f79616c747960c81b6044820152606401610211565b50506117be565b60008460e001516001600160a01b03168260405160006040518083038185875af1925050503d806000811461266e576040519150601f19603f3d011682016040523d82523d6000602084013e612673565b606091505b5050905080612695576040516314314f9760e31b81526004016102119061315e565b6000846001600160a01b03168460405160006040518083038185875af1925050503d80600081146126e2576040519150601f19603f3d011682016040523d82523d6000602084013e6126e7565b606091505b5050905080612723576040516314314f9760e31b8152602060048201526007602482015266526f79616c747960c81b6044820152606401610211565b505050600195945050505050565b6000828152600560205260409081902060048082015460078301546001909301549351632142170760e11b81526001600160a01b03918216946342842e0e9461277f949316928792016130a6565b600060405180830381600087803b15801561279957600080fd5b505af11580156127ad573d6000803e3d6000fd5b505050600083815260056020526040808220600181015460049091015491519093506001600160a01b0391821692918516917ff89c3306c782ffbbe4593aa5673e97e9ad6a8c65d240405e8986363fada6639291a45050565b600061077c825490565b61281a828261113b565b6108f057612827816129a6565b6128328360206129b8565b6040516020016128439291906131cf565b60408051601f198184030181529082905262461bcd60e51b825261021191600401613244565b612873828261113b565b6108f0576000828152602081815260408083206001600160a01b03851684529091529020805460ff191660011790556128a93390565b6001600160a01b0316816001600160a01b0316837f2f8788117e7eff1d82e926ec794901d17c78024a50270940304540a733656f0d60405160405180910390a45050565b6000611134836001600160a01b038416612b54565b61290c828261113b565b156108f0576000828152602081815260408083206001600160a01b0385168085529252808320805460ff1916905551339285917ff6391f5c32d9c69d2a47ea670b442974b53935d1edc7fd64eb21e047a839171b9190a45050565b6000611134836001600160a01b038416612ba3565b600082600001828154811061299357612993613090565b9060005260206000200154905092915050565b606061077c6001600160a01b03831660145b606060006129c7836002613277565b6129d2906002613116565b67ffffffffffffffff8111156129ea576129ea612d70565b6040519080825280601f01601f191660200182016040528015612a14576020820181803683370190505b509050600360fc1b81600081518110612a2f57612a2f613090565b60200101906001600160f81b031916908160001a905350600f60fb1b81600181518110612a5e57612a5e613090565b60200101906001600160f81b031916908160001a9053506000612a82846002613277565b612a8d906001613116565b90505b6001811115612b05576f181899199a1a9b1b9c1cb0b131b232b360811b85600f1660108110612ac157612ac1613090565b1a60f81b828281518110612ad757612ad7613090565b60200101906001600160f81b031916908160001a90535060049490941c93612afe8161328e565b9050612a90565b5083156111345760405162461bcd60e51b815260206004820181905260248201527f537472696e67733a20686578206c656e67746820696e73756666696369656e746044820152606401610211565b6000818152600183016020526040812054612b9b5750815460018181018455600084815260208082209093018490558454848252828601909352604090209190915561077c565b50600061077c565b60008181526001830160205260408120548015612c8c576000612bc760018361314b565b8554909150600090612bdb9060019061314b565b9050818114612c40576000866000018281548110612bfb57612bfb613090565b9060005260206000200154905080876000018481548110612c1e57612c1e613090565b6000918252602080832090910192909255918252600188019052604090208390555b8554869080612c5157612c516132a5565b60019003818190600052602060002001600090559055856001016000868152602001908152602001600020600090556001935050505061077c565b600091505061077c565b600060208284031215612ca857600080fd5b81356001600160e01b03198116811461113457600080fd5b6001600160a01b0381168114611d0357600080fd5b60008060008060608587031215612ceb57600080fd5b8435612cf681612cc0565b9350602085013567ffffffffffffffff80821115612d1357600080fd5b818701915087601f830112612d2757600080fd5b813581811115612d3657600080fd5b8860208260051b8501011115612d4b57600080fd5b6020830195508094505050506040850135612d6581612cc0565b939692955090935050565b634e487b7160e01b600052604160045260246000fd5b60008060008060808587031215612d9c57600080fd5b8435612da781612cc0565b93506020850135612db781612cc0565b925060408501359150606085013567ffffffffffffffff80821115612ddb57600080fd5b818701915087601f830112612def57600080fd5b813581811115612e0157612e01612d70565b604051601f8201601f19908116603f01168101908382118183101715612e2957612e29612d70565b816040528281528a6020848701011115612e4257600080fd5b82602086016020830137600060208483010152809550505050505092959194509250565b600060208284031215612e7857600080fd5b5035919050565b600060208284031215612e9157600080fd5b813561113481612cc0565b60008060408385031215612eaf57600080fd5b823591506020830135612ec181612cc0565b809150509250929050565b60008060408385031215612edf57600080fd5b8235612eea81612cc0565b946020939093013593505050565b60008060008060808587031215612f0e57600080fd5b8435935060208501359250604085013591506060850135612d6581612cc0565b60008060408385031215612f4157600080fd5b50508035926020909101359150565b60008060408385031215612f6357600080fd5b8235612f6e81612cc0565b91506020830135612ec181612cc0565b602080825282518282018190526000919060409081850190868401855b8281101561302d5781518051855286810151878601528581015186860152606080820151908601526080808201516001600160a01b039081169187019190915260a08083015182169087015260c08083015182169087015260e0808301519091169086015261010080820151151590860152610120908101511515908501526101409093019290850190600101612f9b565b5091979650505050505050565b600080600080600060a0868803121561305257600080fd5b853594506020860135935060408601359250606086013561307281612cc0565b9150608086013561308281612cc0565b809150509295509295909350565b634e487b7160e01b600052603260045260246000fd5b6001600160a01b039384168152919092166020820152604081019190915260600190565b634e487b7160e01b600052601160045260246000fd5b6000600182016130f2576130f26130ca565b5060010190565b60006020828403121561310b57600080fd5b815161113481612cc0565b8082018082111561077c5761077c6130ca565b60006020828403121561313b57600080fd5b8151801515811461113457600080fd5b8181038181111561077c5761077c6130ca565b60208082526005908201526446756e647360d81b604082015260600190565b6000806040838503121561319057600080fd5b825161319b81612cc0565b6020939093015192949293505050565b60005b838110156131c65781810151838201526020016131ae565b50506000910152565b7f416363657373436f6e74726f6c3a206163636f756e74200000000000000000008152600083516132078160178501602088016131ab565b7001034b99036b4b9b9b4b733903937b6329607d1b60179184019182015283516132388160288401602088016131ab565b01602801949350505050565b60208152600082518060208401526132638160408501602087016131ab565b601f01601f19169190910160400192915050565b808202811582820484141761077c5761077c6130ca565b60008161329d5761329d6130ca565b506000190190565b634e487b7160e01b600052603160045260246000fdfea2646970667358221220070ce4b49e846ac61c5a34da1380f4dabbbc47fe04083446cc8c3a9611e5dc6664736f6c63430008110033608060405234801561001057600080fd5b5061001a3361001f565b61006f565b600080546001600160a01b038381166001600160a01b0319831681178455604051919092169283917f8be0079c531659141344cd1fd0a4f28419497f9722a3daafe3b4186f6b6457e09190a35050565b61050e8061007e6000396000f3fe6080604052600436106100555760003560e01c806351cff8d91461005a578063715018a61461007c5780638da5cb5b14610091578063e3a9db1a146100be578063f2fde38b14610102578063f340fa0114610122575b600080fd5b34801561006657600080fd5b5061007a61007536600461048d565b610135565b005b34801561008857600080fd5b5061007a6101ac565b34801561009d57600080fd5b506000546040516001600160a01b0390911681526020015b60405180910390f35b3480156100ca57600080fd5b506100f46100d936600461048d565b6001600160a01b031660009081526001602052604090205490565b6040519081526020016100b5565b34801561010e57600080fd5b5061007a61011d36600461048d565b6101c0565b61007a61013036600461048d565b61023e565b61013d6102b0565b6001600160a01b0381166000818152600160205260408120805491905590610165908261030a565b816001600160a01b03167f7084f5476618d8e60b11ef0d7d3f06914655adb8793e28ff7f018d4c76d505d5826040516101a091815260200190565b60405180910390a25050565b6101b46102b0565b6101be6000610428565b565b6101c86102b0565b6001600160a01b0381166102325760405162461bcd60e51b815260206004820152602660248201527f4f776e61626c653a206e6577206f776e657220697320746865207a65726f206160448201526564647265737360d01b60648201526084015b60405180910390fd5b61023b81610428565b50565b6102466102b0565b6001600160a01b0381166000908152600160205260408120805434928392916102709084906104b1565b90915550506040518181526001600160a01b038316907f2da466a7b24304f47e87fa2e1e5a81b9831ce54fec19055ce277ca2f39ba42c4906020016101a0565b6000546001600160a01b031633146101be5760405162461bcd60e51b815260206004820181905260248201527f4f776e61626c653a2063616c6c6572206973206e6f7420746865206f776e65726044820152606401610229565b8047101561035a5760405162461bcd60e51b815260206004820152601d60248201527f416464726573733a20696e73756666696369656e742062616c616e63650000006044820152606401610229565b6000826001600160a01b03168260405160006040518083038185875af1925050503d80600081146103a7576040519150601f19603f3d011682016040523d82523d6000602084013e6103ac565b606091505b50509050806104235760405162461bcd60e51b815260206004820152603a60248201527f416464726573733a20756e61626c6520746f2073656e642076616c75652c207260448201527f6563697069656e74206d617920686176652072657665727465640000000000006064820152608401610229565b505050565b600080546001600160a01b038381166001600160a01b0319831681178455604051919092169283917f8be0079c531659141344cd1fd0a4f28419497f9722a3daafe3b4186f6b6457e09190a35050565b6001600160a01b038116811461023b57600080fd5b60006020828403121561049f57600080fd5b81356104aa81610478565b9392505050565b808201808211156104d257634e487b7160e01b600052601160045260246000fd5b9291505056fea2646970667358221220149cb0c5849cd1afdca855219c22222dc904c54635c1f3832c93b62ffb0b7f4c64736f6c63430008110033608060405234801561001057600080fd5b5061001a3361001f565b61006f565b600080546001600160a01b038381166001600160a01b0319831681178455604051919092169283917f8be0079c531659141344cd1fd0a4f28419497f9722a3daafe3b4186f6b6457e09190a35050565b61051c8061007e6000396000f3fe608060405234801561001057600080fd5b50600436106100625760003560e01c8063715018a6146100675780638340f549146100715780638da5cb5b14610084578063e763ca16146100a4578063f2fde38b146100c5578063f940e385146100d8575b600080fd5b61006f6100fb565b005b61006f61007f3660046103f7565b61010f565b6000546040516001600160a01b0390911681526020015b60405180910390f35b6100b76100b2366004610433565b610158565b60405190815260200161009b565b61006f6100d3366004610466565b610185565b6100eb6100e6366004610433565b610203565b604051901515815260200161009b565b610103610331565b61010d600061038b565b565b610117610331565b6001600160a01b0380841660009081526001602090815260408083209386168352929052908120805483929061014e90849061049e565b9091555050505050565b6001600160a01b038083166000908152600160209081526040808320938516835292905220545b92915050565b61018d610331565b6001600160a01b0381166101f75760405162461bcd60e51b815260206004820152602660248201527f4f776e61626c653a206e6577206f776e657220697320746865207a65726f206160448201526564647265737360d01b60648201526084015b60405180910390fd5b6102008161038b565b50565b600061020d610331565b6001600160a01b03808416600090815260016020908152604080832093861683529290522054806102755760405162461bcd60e51b8152602060048201526012602482015271496e73756666696369656e742066756e647360701b60448201526064016101ee565b6001600160a01b038085166000908152600160209081526040808320938716835292905290812080548392906102ac9084906104b1565b909155505060405163a9059cbb60e01b81526001600160a01b038581166004830152602482018390526000919085169063a9059cbb906044016020604051808303816000875af1158015610304573d6000803e3d6000fd5b505050506040513d601f19601f8201168201806040525081019061032891906104c4565b95945050505050565b6000546001600160a01b0316331461010d5760405162461bcd60e51b815260206004820181905260248201527f4f776e61626c653a2063616c6c6572206973206e6f7420746865206f776e657260448201526064016101ee565b600080546001600160a01b038381166001600160a01b0319831681178455604051919092169283917f8be0079c531659141344cd1fd0a4f28419497f9722a3daafe3b4186f6b6457e09190a35050565b80356001600160a01b03811681146103f257600080fd5b919050565b60008060006060848603121561040c57600080fd5b610415846103db565b9250610423602085016103db565b9150604084013590509250925092565b6000806040838503121561044657600080fd5b61044f836103db565b915061045d602084016103db565b90509250929050565b60006020828403121561047857600080fd5b610481826103db565b9392505050565b634e487b7160e01b600052601160045260246000fd5b8082018082111561017f5761017f610488565b8181038181111561017f5761017f610488565b6000602082840312156104d657600080fd5b8151801515811461048157600080fdfea26469706673582212205cc5fb277289e28f714739248ea1407c07dd55cfb36b8876f8e04cad4c2545e364736f6c63430008110033",
  "linkReferences": {},
  "deployedLinkReferences": {}
}