{
  "_format": "hh-sol-artifact-1",
  "contractName": "FuseAuction",
  "sourceName": "contracts/FuseAuction.sol",
  "abi": [
    {
      "inputs": [],
      "stateMutability": "nonpayable",
      "type": "constructor"
    },
    {
      "inputs": [
        {
          "internalType": "string",
          "name": "message",
          "type": "string"
        }
      ],
      "name": "ErrorMessage",
      "type": "error"
    },
    {
      "inputs": [
        {
          "internalType": "string",
          "name": "failed",
          "type": "string"
        }
      ],
      "name": "FailedTransaction",
      "type": "error"
    },
    {
      "inputs": [
        {
          "internalType": "uint256",
          "name": "expected",
          "type": "uint256"
        },
        {
          "internalType": "uint256",
          "name": "amount",
          "type": "uint256"
        }
      ],
      "name": "LowAmount",
      "type": "error"
    },
    {
      "inputs": [
        {
          "internalType": "uint256",
          "name": "expected",
          "type": "uint256"
        }
      ],
      "name": "LowValue",
      "type": "error"
    },
    {
      "inputs": [],
      "name": "NoZeroValues",
      "type": "error"
    },
    {
      "inputs": [
        {
          "internalType": "bytes32",
          "name": "id",
          "type": "bytes32"
        }
      ],
      "name": "NotActive",
      "type": "error"
    },
    {
      "inputs": [],
      "name": "NotAuth",
      "type": "error"
    },
    {
      "inputs": [],
      "name": "NotTokenOwner",
      "type": "error"
    },
    {
      "inputs": [],
      "name": "bidderIsSeller",
      "type": "error"
    },
    {
      "inputs": [],
      "name": "funsNotTransfered",
      "type": "error"
    },
    {
      "inputs": [
        {
          "internalType": "uint256",
          "name": "",
          "type": "uint256"
        }
      ],
      "name": "isActiveItem",
      "type": "error"
    },
    {
      "inputs": [],
      "name": "notApproved",
      "type": "error"
    },
    {
      "inputs": [],
      "name": "tokenNotSupported",
      "type": "error"
    },
    {
      "inputs": [],
      "name": "transferFunds",
      "type": "error"
    },
    {
      "inputs": [],
      "name": "transferRoyaltiesFunds",
      "type": "error"
    },
    {
      "anonymous": false,
      "inputs": [
        {
          "indexed": true,
          "internalType": "address",
          "name": "to",
          "type": "address"
        },
        {
          "indexed": true,
          "internalType": "address",
          "name": "collection",
          "type": "address"
        },
        {
          "indexed": true,
          "internalType": "uint256",
          "name": "tokenId",
          "type": "uint256"
        }
      ],
      "name": "AssetSent",
      "type": "event"
    },
    {
      "anonymous": false,
      "inputs": [
        {
          "indexed": true,
          "internalType": "bytes32",
          "name": "auctionId",
          "type": "bytes32"
        },
        {
          "indexed": true,
          "internalType": "uint256",
          "name": "itemId",
          "type": "uint256"
        },
        {
          "indexed": true,
          "internalType": "address",
          "name": "winner",
          "type": "address"
        },
        {
          "indexed": false,
          "internalType": "uint256",
          "name": "amount",
          "type": "uint256"
        }
      ],
      "name": "AuctionClaimed",
      "type": "event"
    },
    {
      "anonymous": false,
      "inputs": [
        {
          "indexed": true,
          "internalType": "bytes32",
          "name": "auctionId",
          "type": "bytes32"
        },
        {
          "indexed": true,
          "internalType": "uint256",
          "name": "itemId",
          "type": "uint256"
        },
        {
          "indexed": true,
          "internalType": "address",
          "name": "highestBidder",
          "type": "address"
        },
        {
          "indexed": false,
          "internalType": "uint256",
          "name": "highestBid",
          "type": "uint256"
        },
        {
          "indexed": false,
          "internalType": "uint256",
          "name": "timestamp",
          "type": "uint256"
        }
      ],
      "name": "AuctionRemoved",
      "type": "event"
    },
    {
      "anonymous": false,
      "inputs": [
        {
          "indexed": true,
          "internalType": "address",
          "name": "seller",
          "type": "address"
        },
        {
          "indexed": false,
          "internalType": "uint256",
          "name": "value",
          "type": "uint256"
        }
      ],
      "name": "DepositToEscrow",
      "type": "event"
    },
    {
      "anonymous": false,
      "inputs": [
        {
          "indexed": true,
          "internalType": "contract Escrow",
          "name": "escrow",
          "type": "address"
        },
        {
          "indexed": true,
          "internalType": "contract TokenEscrow",
          "name": "tokenEscrow",
          "type": "address"
        },
        {
          "indexed": true,
          "internalType": "address",
          "name": "operator",
          "type": "address"
        }
      ],
      "name": "EscrowDeployed",
      "type": "event"
    },
    {
      "anonymous": false,
      "inputs": [
        {
          "indexed": true,
          "internalType": "bytes32",
          "name": "auctionId",
          "type": "bytes32"
        },
        {
          "indexed": true,
          "internalType": "address",
          "name": "bidder",
          "type": "address"
        },
        {
          "indexed": false,
          "internalType": "uint256",
          "name": "amount",
          "type": "uint256"
        }
      ],
      "name": "HighestBidIncrease",
      "type": "event"
    },
    {
      "anonymous": false,
      "inputs": [
        {
          "indexed": true,
          "internalType": "bytes32",
          "name": "auctionId",
          "type": "bytes32"
        },
        {
          "indexed": true,
          "internalType": "address",
          "name": "seller",
          "type": "address"
        }
      ],
      "name": "MarketAuctionCreated",
      "type": "event"
    },
    {
      "anonymous": false,
      "inputs": [
        {
          "indexed": true,
          "internalType": "bytes32",
          "name": "auctionId",
          "type": "bytes32"
        },
        {
          "indexed": true,
          "internalType": "uint256",
          "name": "itemId",
          "type": "uint256"
        }
      ],
      "name": "NoBuyer",
      "type": "event"
    },
    {
      "anonymous": false,
      "inputs": [
        {
          "indexed": true,
          "internalType": "bytes32",
          "name": "role",
          "type": "bytes32"
        },
        {
          "indexed": true,
          "internalType": "bytes32",
          "name": "previousAdminRole",
          "type": "bytes32"
        },
        {
          "indexed": true,
          "internalType": "bytes32",
          "name": "newAdminRole",
          "type": "bytes32"
        }
      ],
      "name": "RoleAdminChanged",
      "type": "event"
    },
    {
      "anonymous": false,
      "inputs": [
        {
          "indexed": true,
          "internalType": "bytes32",
          "name": "role",
          "type": "bytes32"
        },
        {
          "indexed": true,
          "internalType": "address",
          "name": "account",
          "type": "address"
        },
        {
          "indexed": true,
          "internalType": "address",
          "name": "sender",
          "type": "address"
        }
      ],
      "name": "RoleGranted",
      "type": "event"
    },
    {
      "anonymous": false,
      "inputs": [
        {
          "indexed": true,
          "internalType": "bytes32",
          "name": "role",
          "type": "bytes32"
        },
        {
          "indexed": true,
          "internalType": "address",
          "name": "account",
          "type": "address"
        },
        {
          "indexed": true,
          "internalType": "address",
          "name": "sender",
          "type": "address"
        }
      ],
      "name": "RoleRevoked",
      "type": "event"
    },
    {
      "anonymous": false,
      "inputs": [
        {
          "indexed": true,
          "internalType": "address",
          "name": "receiver",
          "type": "address"
        },
        {
          "indexed": false,
          "internalType": "uint256",
          "name": "amount",
          "type": "uint256"
        }
      ],
      "name": "TransferRoyalty",
      "type": "event"
    },
    {
      "anonymous": false,
      "inputs": [
        {
          "indexed": true,
          "internalType": "address",
          "name": "serviceWallet",
          "type": "address"
        },
        {
          "indexed": false,
          "internalType": "uint256",
          "name": "amount",
          "type": "uint256"
        }
      ],
      "name": "TransferServiceFee",
      "type": "event"
    },
    {
      "anonymous": false,
      "inputs": [
        {
          "indexed": true,
          "internalType": "address",
          "name": "seller",
          "type": "address"
        }
      ],
      "name": "WithdrawFromEscrow",
      "type": "event"
    },
    {
      "anonymous": false,
      "inputs": [
        {
          "indexed": true,
          "internalType": "address",
          "name": "to",
          "type": "address"
        },
        {
          "indexed": false,
          "internalType": "uint256",
          "name": "amount",
          "type": "uint256"
        }
      ],
      "name": "WithdrawPendingReturns",
      "type": "event"
    },
    {
      "inputs": [],
      "name": "ADMIN_ROLE",
      "outputs": [
        {
          "internalType": "bytes32",
          "name": "",
          "type": "bytes32"
        }
      ],
      "stateMutability": "view",
      "type": "function"
    },
    {
      "inputs": [],
      "name": "DEFAULT_ADMIN_ROLE",
      "outputs": [
        {
          "internalType": "bytes32",
          "name": "",
          "type": "bytes32"
        }
      ],
      "stateMutability": "view",
      "type": "function"
    },
    {
      "inputs": [
        {
          "internalType": "bytes32",
          "name": "",
          "type": "bytes32"
        }
      ],
      "name": "auctionsMapping",
      "outputs": [
        {
          "internalType": "bytes32",
          "name": "auctionId",
          "type": "bytes32"
        },
        {
          "internalType": "uint256",
          "name": "itemId",
          "type": "uint256"
        },
        {
          "internalType": "uint256",
          "name": "auctionEndTime",
          "type": "uint256"
        },
        {
          "internalType": "uint256",
          "name": "highestBid",
          "type": "uint256"
        },
        {
          "internalType": "address",
          "name": "nftContract",
          "type": "address"
        },
        {
          "internalType": "address",
          "name": "ERC20Contract",
          "type": "address"
        },
        {
          "internalType": "address",
          "name": "highestBidder",
          "type": "address"
        },
        {
          "internalType": "address payable",
          "name": "seller",
          "type": "address"
        },
        {
          "internalType": "bool",
          "name": "isERC20",
          "type": "bool"
        },
        {
          "internalType": "bool",
          "name": "ended",
          "type": "bool"
        }
      ],
      "stateMutability": "view",
      "type": "function"
    },
    {
      "inputs": [
        {
          "internalType": "bytes32",
          "name": "auctionId",
          "type": "bytes32"
        }
      ],
      "name": "bid",
      "outputs": [],
      "stateMutability": "payable",
      "type": "function"
    },
    {
      "inputs": [
        {
          "internalType": "bytes32",
          "name": "auctionId",
          "type": "bytes32"
        },
        {
          "internalType": "uint256",
          "name": "bidAmount",
          "type": "uint256"
        }
      ],
      "name": "bidERC20",
      "outputs": [],
      "stateMutability": "payable",
      "type": "function"
    },
    {
      "inputs": [
        {
          "internalType": "bytes32",
          "name": "auctionId",
          "type": "bytes32"
        }
      ],
      "name": "claimAuction",
      "outputs": [
        {
          "internalType": "bool",
          "name": "",
          "type": "bool"
        }
      ],
      "stateMutability": "nonpayable",
      "type": "function"
    },
    {
      "inputs": [
        {
          "internalType": "uint256",
          "name": "itemId",
          "type": "uint256"
        },
        {
          "internalType": "uint256",
          "name": "biddingTime",
          "type": "uint256"
        },
        {
          "internalType": "uint256",
          "name": "minimumBid",
          "type": "uint256"
        },
        {
          "internalType": "address",
          "name": "nftContract",
          "type": "address"
        },
        {
          "internalType": "address",
          "name": "tokenAdrress",
          "type": "address"
        }
      ],
      "name": "createERC20Auction",
      "outputs": [
        {
          "internalType": "bytes32",
          "name": "_auctionId",
          "type": "bytes32"
        }
      ],
      "stateMutability": "nonpayable",
      "type": "function"
    },
    {
      "inputs": [
        {
          "internalType": "uint256",
          "name": "itemId",
          "type": "uint256"
        },
        {
          "internalType": "uint256",
          "name": "biddingTime",
          "type": "uint256"
        },
        {
          "internalType": "uint256",
          "name": "minimumBid",
          "type": "uint256"
        },
        {
          "internalType": "address",
          "name": "nftContract",
          "type": "address"
        }
      ],
      "name": "createNativeAuction",
      "outputs": [
        {
          "internalType": "bytes32",
          "name": "_auctionId",
          "type": "bytes32"
        }
      ],
      "stateMutability": "nonpayable",
      "type": "function"
    },
    {
      "inputs": [],
      "name": "escrow",
      "outputs": [
        {
          "internalType": "contract Escrow",
          "name": "",
          "type": "address"
        }
      ],
      "stateMutability": "view",
      "type": "function"
    },
    {
      "inputs": [],
      "name": "fetchMarketAuctions",
      "outputs": [
        {
          "components": [
            {
              "internalType": "bytes32",
              "name": "auctionId",
              "type": "bytes32"
            },
            {
              "internalType": "uint256",
              "name": "itemId",
              "type": "uint256"
            },
            {
              "internalType": "uint256",
              "name": "auctionEndTime",
              "type": "uint256"
            },
            {
              "internalType": "uint256",
              "name": "highestBid",
              "type": "uint256"
            },
            {
              "internalType": "address",
              "name": "nftContract",
              "type": "address"
            },
            {
              "internalType": "address",
              "name": "ERC20Contract",
              "type": "address"
            },
            {
              "internalType": "address",
              "name": "highestBidder",
              "type": "address"
            },
            {
              "internalType": "address payable",
              "name": "seller",
              "type": "address"
            },
            {
              "internalType": "bool",
              "name": "isERC20",
              "type": "bool"
            },
            {
              "internalType": "bool",
              "name": "ended",
              "type": "bool"
            }
          ],
          "internalType": "struct AuctionStorage.MarketAuction[]",
          "name": "",
          "type": "tuple[]"
        }
      ],
      "stateMutability": "view",
      "type": "function"
    },
    {
      "inputs": [],
      "name": "getAuctionId",
      "outputs": [
        {
          "internalType": "bytes32",
          "name": "",
          "type": "bytes32"
        }
      ],
      "stateMutability": "view",
      "type": "function"
    },
    {
      "inputs": [
        {
          "internalType": "address",
          "name": "account",
          "type": "address"
        }
      ],
      "name": "getBalance",
      "outputs": [
        {
          "internalType": "uint256",
          "name": "",
          "type": "uint256"
        }
      ],
      "stateMutability": "view",
      "type": "function"
    },
    {
      "inputs": [
        {
          "internalType": "bytes32",
          "name": "role",
          "type": "bytes32"
        }
      ],
      "name": "getRoleAdmin",
      "outputs": [
        {
          "internalType": "bytes32",
          "name": "",
          "type": "bytes32"
        }
      ],
      "stateMutability": "view",
      "type": "function"
    },
    {
      "inputs": [
        {
          "internalType": "bytes32",
          "name": "role",
          "type": "bytes32"
        },
        {
          "internalType": "uint256",
          "name": "index",
          "type": "uint256"
        }
      ],
      "name": "getRoleMember",
      "outputs": [
        {
          "internalType": "address",
          "name": "",
          "type": "address"
        }
      ],
      "stateMutability": "view",
      "type": "function"
    },
    {
      "inputs": [
        {
          "internalType": "bytes32",
          "name": "role",
          "type": "bytes32"
        }
      ],
      "name": "getRoleMemberCount",
      "outputs": [
        {
          "internalType": "uint256",
          "name": "",
          "type": "uint256"
        }
      ],
      "stateMutability": "view",
      "type": "function"
    },
    {
      "inputs": [
        {
          "internalType": "bytes32",
          "name": "role",
          "type": "bytes32"
        },
        {
          "internalType": "address",
          "name": "account",
          "type": "address"
        }
      ],
      "name": "grantRole",
      "outputs": [],
      "stateMutability": "nonpayable",
      "type": "function"
    },
    {
      "inputs": [
        {
          "internalType": "bytes32",
          "name": "role",
          "type": "bytes32"
        },
        {
          "internalType": "address",
          "name": "account",
          "type": "address"
        }
      ],
      "name": "hasRole",
      "outputs": [
        {
          "internalType": "bool",
          "name": "",
          "type": "bool"
        }
      ],
      "stateMutability": "view",
      "type": "function"
    },
    {
      "inputs": [
        {
          "internalType": "address",
          "name": "",
          "type": "address"
        },
        {
          "internalType": "uint256",
          "name": "",
          "type": "uint256"
        }
      ],
      "name": "isActiveTokenId",
      "outputs": [
        {
          "internalType": "bool",
          "name": "",
          "type": "bool"
        }
      ],
      "stateMutability": "view",
      "type": "function"
    },
    {
      "inputs": [
        {
          "internalType": "address",
          "name": "",
          "type": "address"
        },
        {
          "internalType": "address",
          "name": "",
          "type": "address"
        },
        {
          "internalType": "uint256",
          "name": "",
          "type": "uint256"
        },
        {
          "internalType": "bytes",
          "name": "",
          "type": "bytes"
        }
      ],
      "name": "onERC721Received",
      "outputs": [
        {
          "internalType": "bytes4",
          "name": "",
          "type": "bytes4"
        }
      ],
      "stateMutability": "nonpayable",
      "type": "function"
    },
    {
      "inputs": [
        {
          "internalType": "address",
          "name": "",
          "type": "address"
        },
        {
          "internalType": "address",
          "name": "",
          "type": "address"
        }
      ],
      "name": "pendingFunds",
      "outputs": [
        {
          "internalType": "uint256",
          "name": "",
          "type": "uint256"
        }
      ],
      "stateMutability": "view",
      "type": "function"
    },
    {
      "inputs": [
        {
          "internalType": "address",
          "name": "",
          "type": "address"
        }
      ],
      "name": "pendingReturns",
      "outputs": [
        {
          "internalType": "uint256",
          "name": "",
          "type": "uint256"
        }
      ],
      "stateMutability": "view",
      "type": "function"
    },
    {
      "inputs": [
        {
          "internalType": "bytes32",
          "name": "role",
          "type": "bytes32"
        },
        {
          "internalType": "address",
          "name": "account",
          "type": "address"
        }
      ],
      "name": "renounceRole",
      "outputs": [],
      "stateMutability": "nonpayable",
      "type": "function"
    },
    {
      "inputs": [
        {
          "internalType": "address",
          "name": "collection",
          "type": "address"
        },
        {
          "internalType": "uint256[]",
          "name": "tokenIds",
          "type": "uint256[]"
        },
        {
          "internalType": "address",
          "name": "receiver",
          "type": "address"
        }
      ],
      "name": "rescue",
      "outputs": [],
      "stateMutability": "nonpayable",
      "type": "function"
    },
    {
      "inputs": [
        {
          "internalType": "bytes32",
          "name": "role",
          "type": "bytes32"
        },
        {
          "internalType": "address",
          "name": "account",
          "type": "address"
        }
      ],
      "name": "revokeRole",
      "outputs": [],
      "stateMutability": "nonpayable",
      "type": "function"
    },
    {
      "inputs": [],
      "name": "serviceFee",
      "outputs": [
        {
          "internalType": "uint16",
          "name": "",
          "type": "uint16"
        }
      ],
      "stateMutability": "view",
      "type": "function"
    },
    {
      "inputs": [
        {
          "internalType": "bytes4",
          "name": "interfaceId",
          "type": "bytes4"
        }
      ],
      "name": "supportsInterface",
      "outputs": [
        {
          "internalType": "bool",
          "name": "",
          "type": "bool"
        }
      ],
      "stateMutability": "view",
      "type": "function"
    },
    {
      "inputs": [],
      "name": "tokenEscrow",
      "outputs": [
        {
          "internalType": "contract TokenEscrow",
          "name": "",
          "type": "address"
        }
      ],
      "stateMutability": "view",
      "type": "function"
    },
    {
      "inputs": [
        {
          "internalType": "bytes32",
          "name": "auctionId",
          "type": "bytes32"
        }
      ],
      "name": "withdrawPendingFunds",
      "outputs": [
        {
          "internalType": "bool",
          "name": "success",
          "type": "bool"
        }
      ],
      "stateMutability": "nonpayable",
      "type": "function"
    },
    {
      "inputs": [],
      "name": "withdrawPendingReturns",
      "outputs": [
        {
          "internalType": "bool",
          "name": "success",
          "type": "bool"
        }
      ],
      "stateMutability": "nonpayable",
      "type": "function"
    },
    {
      "inputs": [
        {
          "internalType": "address payable",
          "name": "seller",
          "type": "address"
        },
        {
          "internalType": "address",
          "name": "tokenContract",
          "type": "address"
        }
      ],
      "name": "withdrawPendingTokens",
      "outputs": [
        {
          "internalType": "bool",
          "name": "",
          "type": "bool"
        }
      ],
      "stateMutability": "nonpayable",
      "type": "function"
    },
    {
      "inputs": [
        {
          "internalType": "address payable",
          "name": "seller",
          "type": "address"
        }
      ],
      "name": "withdrawSellerRevenue",
      "outputs": [],
      "stateMutability": "nonpayable",
      "type": "function"
    },
    {
      "stateMutability": "payable",
      "type": "receive"
    }
  ],
  "bytecode": "0x60806040523480156200001157600080fd5b5060016002556004805461ffff60a01b1916601960a31b1790556040516200003990620000fb565b604051809103906000f08015801562000056573d6000803e3d6000fd5b50600380546001600160a01b0319166001600160a01b0392909216919091179055604051620000859062000109565b604051809103906000f080158015620000a2573d6000803e3d6000fd5b50600480546001600160a01b0319166001600160a01b03928316908117909155600354604051309391909116907f04ad8067d2072c63826dba7c22aa29d981d2dac03be43ba810d465c759529de790600090a462000117565b61058c806200348583390190565b61059a8062003a1183390190565b61335e80620001276000396000f3fe6080604052600436106101dc5760003560e01c80639010d07c11610102578063ca15c87311610095578063e2fdcc1711610064578063e2fdcc17146106fa578063ec2902151461071a578063f5f482d91461072f578063f8b2cb4f1461074f57600080fd5b8063ca15c87314610685578063cdc90bfe146106a5578063d547741f146106ba578063de344c7c146106da57600080fd5b8063a217fddf116100d1578063a217fddf1461060e578063aac41ed614610623578063b774726714610643578063c99562f61461066357600080fd5b80639010d07c1461056b57806391d14854146105a3578063957bb1e0146105c35780639621099b146105d657600080fd5b80633836be451161017a578063694887f911610149578063694887f9146104cf57806375b238fc146104ef578063830d974d146105235780638abdf5aa1461053657600080fd5b80633836be4514610370578063418e4b3c146103905780635e2fc29b146104745780635e6635691461049457600080fd5b8063248a9ca3116101b6578063248a9ca3146102c557806326b387bb146103035780632f2ff15d1461033057806336568abe1461035057600080fd5b806301ffc9a71461022a57806307beac551461025f578063150b7a021461028157600080fd5b366102255760405163a183e9a560e01b81526020600482015260136024820152724e6f742070617961626c65207265636569766560681b60448201526064015b60405180910390fd5b600080fd5b34801561023657600080fd5b5061024a610245366004612d03565b610777565b60405190151581526020015b60405180910390f35b34801561026b57600080fd5b5061027f61027a366004612d42565b6107a2565b005b34801561028d57600080fd5b506102ac61029c366004612df3565b630a85bd0160e11b949350505050565b6040516001600160e01b03199091168152602001610256565b3480156102d157600080fd5b506102f56102e0366004612ed3565b60009081526020819052604090206001015490565b604051908152602001610256565b34801561030f57600080fd5b506102f561031e366004612eec565b60076020526000908152604090205481565b34801561033c57600080fd5b5061027f61034b366004612f09565b61086c565b34801561035c57600080fd5b5061027f61036b366004612f09565b610896565b34801561037c57600080fd5b5061024a61038b366004612ed3565b610914565b34801561039c57600080fd5b506104186103ab366004612ed3565b60056020819052600091825260409091208054600182015460028301546003840154600485015495850154600686015460079096015494969395929491936001600160a01b039081169391811692918116919081169060ff600160a01b8204811691600160a81b9004168a565b604080519a8b5260208b01999099529789019690965260608801949094526001600160a01b03928316608088015290821660a0870152811660c08601521660e08401521515610100830152151561012082015261014001610256565b34801561048057600080fd5b5061027f61048f366004612eec565b610ab4565b3480156104a057600080fd5b5061024a6104af366004612f39565b600660209081526000928352604080842090915290825290205460ff1681565b3480156104db57600080fd5b506102f56104ea366004612f65565b610ae7565b3480156104fb57600080fd5b506102f57fa49807205ce4d355092ef5a8a18f56e8913cf4a201fbe287825b095693c2177581565b61027f610531366004612f9b565b610cf7565b34801561054257600080fd5b5060045461055890600160a01b900461ffff1681565b60405161ffff9091168152602001610256565b34801561057757600080fd5b5061058b610586366004612f9b565b6110f1565b6040516001600160a01b039091168152602001610256565b3480156105af57600080fd5b5061024a6105be366004612f09565b611110565b61027f6105d1366004612ed3565b611139565b3480156105e257600080fd5b506102f56105f1366004612fbd565b600860209081526000928352604080842090915290825290205481565b34801561061a57600080fd5b506102f5600081565b34801561062f57600080fd5b5060045461058b906001600160a01b031681565b34801561064f57600080fd5b5061024a61065e366004612ed3565b61142f565b34801561066f57600080fd5b506106786117a1565b6040516102569190612feb565b34801561069157600080fd5b506102f56106a0366004612ed3565b61195f565b3480156106b157600080fd5b506009546102f5565b3480156106c657600080fd5b5061027f6106d5366004612f09565b611976565b3480156106e657600080fd5b506102f56106f53660046130a7565b61199b565b34801561070657600080fd5b5060035461058b906001600160a01b031681565b34801561072657600080fd5b5061024a611bd7565b34801561073b57600080fd5b5061024a61074a366004612fbd565b611c99565b34801561075b57600080fd5b506102f561076a366004612eec565b6001600160a01b03163190565b60006001600160e01b03198216635a05180f60e01b148061079c575061079c82611cda565b92915050565b7fa49807205ce4d355092ef5a8a18f56e8913cf4a201fbe287825b095693c217756107cc81611d0f565b60005b8381101561086457856001600160a01b03166342842e0e30858888868181106107fa576107fa6130fd565b905060200201356040518463ffffffff1660e01b815260040161081f93929190613113565b600060405180830381600087803b15801561083957600080fd5b505af115801561084d573d6000803e3d6000fd5b50505050808061085c9061314d565b9150506107cf565b505050505050565b60008281526020819052604090206001015461088781611d0f565b6108918383611d1c565b505050565b6001600160a01b03811633146109065760405162461bcd60e51b815260206004820152602f60248201527f416363657373436f6e74726f6c3a2063616e206f6e6c792072656e6f756e636560448201526e103937b632b9903337b91039b2b63360891b606482015260840161021c565b6109108282611d3e565b5050565b6000818152600560208181526040808420815161014081018352815481526001820154818501526002820154818401526003820154606082015260048201546001600160a01b03908116608083015294820154851660a082018190526006830154861660c083015260079092015494851660e082015260ff600160a01b860481161515610100830152600160a81b9095049094161515610120850152845260089091528220826109c13390565b6001600160a01b03166001600160a01b0316815260200190815260200160002054600003610a285760405163a183e9a560e01b81526020600482015260136024820152724e6f2070656e64696e672052657475726e732160681b604482015260640161021c565b60a08101516001600160a01b031660009081526008602090815260408083203384529091529020548015610aaa57610a64338360a00151611c99565b610a815760405163246d7d1f60e21b815260040160405180910390fd5b60a08201516001600160a01b031660009081526008602090815260408083203384529091528120555b5060019392505050565b806001600160a01b0381163314610ade5760405163060a6aeb60e51b815260040160405180910390fd5b61091082611d60565b60008482806001600160a01b0316636352211e836040518263ffffffff1660e01b8152600401610b1991815260200190565b602060405180830381865afa158015610b36573d6000803e3d6000fd5b505050506040513d601f19601f82011682018060405250810190610b5a9190613166565b6001600160a01b0316336001600160a01b031614610b8b576040516359dc379f60e01b815260040160405180910390fd5b6001600160a01b03841660009081526006602090815260408083208a84529091529020548790859060ff168015610bd857604051636fcd528960e11b81526004810184905260240161021c565b881580610be3575087155b15610c0157604051630373865960e11b815260040160405180910390fd5b600160096000828254610c149190613183565b91829055506000818152600560205260409020600181018d90559097509050610c3d8a42613183565b6002820155600381018990556004810180546001600160a01b0319166001600160a01b038a1617905533600782018054600161ff0160a01b0319166001600160a01b03928316179055881660009081526006602090815260408083208e84529091529020805460ff19166001179055610cb33390565b6001600160a01b0316877f6def2ac549c1f876cdd2db9973a8bcd6ede216c48ec1d0b23394a029ef4a376060405160405180910390a3505050505050949350505050565b6000828152600560208181526040928390208351610140810185528154815260018201549281019290925260028101549382019390935260038301546060820181905260048401546001600160a01b03908116608084015292840154831660a08301526006840154831660c083015260079093015491821660e082015260ff600160a01b830481161515610100830152600160a81b909204909116151561012082015283918391908211610dce576060810151604051633099c14760e11b815260048101919091526024810183905260440161021c565b600085815260056020818152604092839020835161014081018552815481526001820154928101929092526002810154938201939093526003830154606082015260048301546001600160a01b03908116608083015291830154821660a08201526006830154821660c082015260079092015490811660e083015260ff600160a01b820481161515610100840152600160a81b90910416158015610120830152869190610e94578051604051636d9c892f60e11b8152600481019190915260240161021c565b60008781526005602052604090206007810154600160a01b900460ff16610ece5760405163583ee6d560e11b815260040160405180910390fd5b6007810154336001600160a01b0390911603610efd5760405163313a640d60e21b815260040160405180910390fd5b600681015433906001600160a01b03168103610f565760405163a183e9a560e01b8152602060048201526017602482015276416c72656164792068696768657374206269646465722160481b604482015260640161021c565b60068201546001600160a01b031615610fef5760058201546003830154610f86916001600160a01b031690611e0b565b610fa35760405163246d7d1f60e21b815260040160405180910390fd5b600382015460058301546001600160a01b039081166000908152600860209081526040808320600688015490941683529290529081208054909190610fe9908490613183565b90915550505b60058201546040516323b872dd60e01b81526000916001600160a01b0316906323b872dd9061102690339030908e90600401613113565b6020604051808303816000875af1158015611045573d6000803e3d6000fd5b505050506040513d601f19601f820116820180604052508101906110699190613196565b9050806110895760405163246d7d1f60e21b815260040160405180910390fd5b600383018990556006830180546001600160a01b0319166001600160a01b03841690811790915583546040518b81527fa3eb7fe0be6b3d2c74cc2abe7b4cd0c8c2294a5ed1dcc026feb98da92264f3779060200160405180910390a350505050505050505050565b60008281526001602052604081206111099083611ef7565b9392505050565b6000918252602082815260408084206001600160a01b0393909316845291905290205460ff1690565b6000818152600560208181526040928390208351610140810185528154815260018201549281019290925260028101549382019390935260038301546060820181905260048401546001600160a01b03908116608084015292840154831660a08301526006840154831660c083015260079093015491821660e082015260ff600160a01b830481161515610100830152600160a81b90920490911615156101208201528291341161120557806060015160405163723e6dc160e11b815260040161021c91815260200190565b600083815260056020818152604092839020835161014081018552815481526001820154928101929092526002810154938201939093526003830154606082015260048301546001600160a01b03908116608083015291830154821660a08201526006830154821660c082015260079092015490811660e083015260ff600160a01b820481161515610100840152600160a81b909104161580156101208301528491906112cb578051604051636d9c892f60e11b8152600481019190915260240161021c565b60008581526005602052604090206007810154336001600160a01b03909116036113085760405163313a640d60e21b815260040160405180910390fd5b6006810154349033906001600160a01b031681036113635760405163a183e9a560e01b8152602060048201526017602482015276416c72656164792068696768657374206269646465722160481b604482015260640161021c565b60068301546001600160a01b0316156113c957600383015460068401546001600160a01b0316600090815260076020526040812080549091906113a7908490613183565b9091555050600683015460038401546113c9916001600160a01b031690611f03565b600383018290556006830180546001600160a01b0319166001600160a01b03831690811790915583546040518481527fa3eb7fe0be6b3d2c74cc2abe7b4cd0c8c2294a5ed1dcc026feb98da92264f3779060200160405180910390a35050505050505050565b6000818152600560208181526040808420815161014081018352815481526001820154938101939093526002810154918301919091526003810154606083015260048101546001600160a01b03908116608084015292810154831660a08301526006810154831660c08301526007015491821660e082015260ff600160a01b830481161515610100830152600160a81b9092049091161580156101208301528391906114f4578051604051636d9c892f60e11b8152600481019190915260240161021c565b600084815260056020526040902060028101544210156115425760405163a183e9a560e01b8152602060048201526008602482015267546f20736f6f6e2160c01b604482015260640161021c565b6007810154600160a81b900460ff1615611575578054604051636d9c892f60e11b8152600481019190915260240161021c565b60078101805460ff60a81b1916600160a81b17905560048101546001600160a01b03908116600090815260066020818152604080842060018701548552909152909120805460ff191690558201541661160d5780546115d390611fab565b600181015481546040517fd241bcbb45fbc4555ae5438d31830c461eeea19690558825a270e35c017d67e590600090a3600093505061179a565b6001600a60008282546116209190613183565b90915550506004818101546040516301ffc9a760e01b815263152a902d60e11b928101929092526000916001600160a01b03909116906301ffc9a790602401602060405180830381865afa15801561167c573d6000803e3d6000fd5b505050506040513d601f19601f820116820180604052508101906116a09190613196565b9050806116f4576007820154600160a01b900460ff16156116eb576116c486612113565b15156001146116e657604051633c68eb8160e01b815260040160405180910390fd5b61171f565b6116c48661224d565b6116fd86612358565b151560011461171f576040516355c3717160e01b815260040160405180910390fd5b60068201546117389087906001600160a01b03166126fb565b60068201546001830154835460038501546040519081526001600160a01b03909316927fbeb8d99c57a7f2d4ed8b1bd14f308212af1c826c3e80016526b76ccc0eb4dd179060200160405180910390a4815461179390611fab565b6001945050505b5050919050565b600954600a54606091906000906117b890836131b8565b90506000808267ffffffffffffffff8111156117d6576117d6612ddd565b60405190808252806020026020018201604052801561185557816020015b604080516101408101825260008082526020808301829052928201819052606082018190526080820181905260a0820181905260c0820181905260e08201819052610100820181905261012082015282526000199092019101816117f45790505b50905060005b84811015611956576000611870826001613183565b600081815260056020818152604092839020835161014081018552815481526001820154928101929092526002810154938201939093526003830154606082015260048301546001600160a01b03908116608083015291830154821660a08201526006830154821660c082015260079092015490811660e083015260ff600160a01b820481161515610100840152600160a81b9091041615156101208201528451919250908190859087908110611929576119296130fd565b602090810291909101015261193f600186613183565b94505050808061194e9061314d565b91505061185b565b50949350505050565b600081815260016020526040812061079c906127d0565b60008281526020819052604090206001015461199181611d0f565b6108918383611d3e565b60008583806001600160a01b0316636352211e836040518263ffffffff1660e01b81526004016119cd91815260200190565b602060405180830381865afa1580156119ea573d6000803e3d6000fd5b505050506040513d601f19601f82011682018060405250810190611a0e9190613166565b6001600160a01b0316336001600160a01b031614611a3f576040516359dc379f60e01b815260040160405180910390fd5b6001600160a01b03851660009081526006602090815260408083208b84529091529020548890869060ff168015611a8c57604051636fcd528960e11b81526004810184905260240161021c565b891580611a97575088155b15611ab557604051630373865960e11b815260040160405180910390fd5b600160096000828254611ac89190613183565b91829055506000818152600560205260409020600181018e90559097509050611af18b42613183565b6002820155600381018a90556004810180546001600160a01b03808c166001600160a01b031992831617909255600583018054928b1692909116919091179055611b383390565b60078201805460ff60a81b196001600160a81b03199091166001600160a01b0393841617600160a01b17169055891660009081526006602090815260408083208f84529091529020805460ff19166001179055611b923390565b6001600160a01b0316877f6def2ac549c1f876cdd2db9973a8bcd6ede216c48ec1d0b23394a029ef4a376060405160405180910390a350505050505095945050505050565b336000908152600760205260408120548103611c2c5760405163a183e9a560e01b81526020600482015260136024820152724e6f2070656e64696e672052657475726e732160681b604482015260640161021c565b336000908152600760205260409020548015611c915733600081815260076020526040812055611c5b90610ab4565b60405181815233907f776937c4d7f28ffdf4afa12dcfc0bdd3d0ac3ab2315fd5cc109ed2fed8e4d3c39060200160405180910390a25b600191505090565b6000826001600160a01b0381163314611cc55760405163060a6aeb60e51b815260040160405180910390fd5b6000611cd185856127da565b95945050505050565b60006001600160e01b03198216637965db0b60e01b148061079c57506301ffc9a760e01b6001600160e01b031983161461079c565b611d19813361287d565b50565b611d2682826128d6565b6000828152600160205260409020610891908261295a565b611d48828261296f565b600082815260016020526040902061089190826129d4565b6001600160a01b038181166000818152600760205260408082209190915560035490516351cff8d960e01b81526004810192909252909116906351cff8d990602401600060405180830381600087803b158015611dbc57600080fd5b505af1158015611dd0573d6000803e3d6000fd5b50506040516001600160a01b03841692507f8b893bcbc5bce509a4f8cf62a0fd8308f2ef068d8862ee06aef051027ca2a3229150600090a250565b6004805460405163a9059cbb60e01b81526001600160a01b039182169281019290925260248201839052600091829185169063a9059cbb906044016020604051808303816000875af1158015611e65573d6000803e3d6000fd5b505050506040513d601f19601f82011682018060405250810190611e899190613196565b60048054604051638340f54960e01b81529293506001600160a01b031691638340f54991611ebd9133918991899101613113565b600060405180830381600087803b158015611ed757600080fd5b505af1158015611eeb573d6000803e3d6000fd5b50929695505050505050565b600061110983836129e9565b60035460405163f340fa0160e01b81526001600160a01b0384811660048301529091169063f340fa019083906024016000604051808303818588803b158015611f4b57600080fd5b505af1158015611f5f573d6000803e3d6000fd5b5050505050816001600160a01b03167f0fba8404439890021adb1c06dce3dc283974eb639a2dc521dca0c8d6378f582f82604051611f9f91815260200190565b60405180910390a25050565b600081815260056020818152604092839020835161014081018552815481526001820154928101929092526002810154938201939093526003830154606082015260048301546001600160a01b03908116608083015291830154821660a08201526006830154821660c082015260079092015490811660e083015260ff600160a01b820481161515610100840152600160a81b90910416158015610120830152610910578060c001516001600160a01b0316816020015182600001517f9c70fe4e3788f0b14341c49d1600f1cae04fb0f9932ec6ca4643b844ae46e23a8460600151426040516120a5929190918252602082015260400190565b60405180910390a45060009081526005602081905260408220828155600181018390556002810183905560038101929092556004820180546001600160a01b0319908116909155908201805482169055600682018054909116905560070180546001600160b01b0319169055565b6000818152600560208181526040808420815161014081018352815481526001820154938101939093526002810154838301526003810154606084018190526004808301546001600160a01b03908116608087015295830154861660a086018190526006840154871660c087015260079093015495861660e0860181905260ff600160a01b880481161515610100880152600160a81b9097049096161515610120860152925163a9059cbb60e01b81529283019490945260248201849052919291849163a9059cbb906044016020604051808303816000875af11580156121fe573d6000803e3d6000fd5b505050506040513d601f19601f820116820180604052508101906122229190613196565b905080612242576040516314314f9760e31b815260040161021c906131cb565b506001949350505050565b60008181526005602081815260408084208151610140810183528154815260018201549381019390935260028101548383015260038101546060840181905260048201546001600160a01b03908116608086015294820154851660a08501526006820154851660c085015260079091015493841660e0840181905260ff600160a01b860481161515610100860152600160a81b909504909416151561012084015290519192909184919083908381818185875af1925050503d8060008114612331576040519150601f19603f3d011682016040523d82523d6000602084013e612336565b606091505b5050905080612242576040516314314f9760e31b815260040161021c906131cb565b60008181526005602081815260408084208151610140810183528154815260018201549381018490526002820154818401526003820154606082018190526004808401546001600160a01b039081166080850181905297850154811660a08501526006850154811660c085015260079094015493841660e084015260ff600160a01b850481161515610100850152600160a81b9094049093161515610120830152925163152a902d60e11b81529094869485949193632a55205a93612427939101918252602082015260400190565b6040805180830381865afa158015612443573d6000803e3d6000fd5b505050506040513d601f19601f8201168201806040525081019061246791906131ea565b91509150600081846060015161247d91906131b8565b9050836101000151156125e75760a084015160e085015160405163a9059cbb60e01b81526001600160a01b03918216600482015260248101849052600092919091169063a9059cbb906044016020604051808303816000875af11580156124e8573d6000803e3d6000fd5b505050506040513d601f19601f8201168201806040525081019061250c9190613196565b90508061252c576040516314314f9760e31b815260040161021c906131cb565b60a085015160405163a9059cbb60e01b81526001600160a01b03868116600483015260248201869052600092169063a9059cbb906044016020604051808303816000875af1158015612582573d6000803e3d6000fd5b505050506040513d601f19601f820116820180604052508101906125a69190613196565b9050806125e0576040516314314f9760e31b8152602060048201526007602482015266526f79616c747960c81b604482015260640161021c565b5050611793565b60008460e001516001600160a01b03168260405160006040518083038185875af1925050503d8060008114612638576040519150601f19603f3d011682016040523d82523d6000602084013e61263d565b606091505b505090508061265f576040516314314f9760e31b815260040161021c906131cb565b6000846001600160a01b03168460405160006040518083038185875af1925050503d80600081146126ac576040519150601f19603f3d011682016040523d82523d6000602084013e6126b1565b606091505b50509050806126ed576040516314314f9760e31b8152602060048201526007602482015266526f79616c747960c81b604482015260640161021c565b505050600195945050505050565b6000828152600560205260409081902060048082015460078301546001909301549351632142170760e11b81526001600160a01b03918216946342842e0e9461274994931692879201613113565b600060405180830381600087803b15801561276357600080fd5b505af1158015612777573d6000803e3d6000fd5b505050600083815260056020526040808220600181015460049091015491519093506001600160a01b0391821692918516917ff89c3306c782ffbbe4593aa5673e97e9ad6a8c65d240405e8986363fada6639291a45050565b600061079c825490565b6001600160a01b038181166000818152600860209081526040808320878616808552925280832083905560048054915163f940e38560e01b815290810192909252602482019390935290928392169063f940e385906044016020604051808303816000875af1158015612851573d6000803e3d6000fd5b505050506040513d601f19601f820116820180604052508101906128759190613196565b949350505050565b6128878282611110565b6109105761289481612a13565b61289f836020612a25565b6040516020016128b092919061323c565b60408051601f198184030181529082905262461bcd60e51b825261021c916004016132b1565b6128e08282611110565b610910576000828152602081815260408083206001600160a01b03851684529091529020805460ff191660011790556129163390565b6001600160a01b0316816001600160a01b0316837f2f8788117e7eff1d82e926ec794901d17c78024a50270940304540a733656f0d60405160405180910390a45050565b6000611109836001600160a01b038416612bc1565b6129798282611110565b15610910576000828152602081815260408083206001600160a01b0385168085529252808320805460ff1916905551339285917ff6391f5c32d9c69d2a47ea670b442974b53935d1edc7fd64eb21e047a839171b9190a45050565b6000611109836001600160a01b038416612c10565b6000826000018281548110612a0057612a006130fd565b9060005260206000200154905092915050565b606061079c6001600160a01b03831660145b60606000612a348360026132e4565b612a3f906002613183565b67ffffffffffffffff811115612a5757612a57612ddd565b6040519080825280601f01601f191660200182016040528015612a81576020820181803683370190505b509050600360fc1b81600081518110612a9c57612a9c6130fd565b60200101906001600160f81b031916908160001a905350600f60fb1b81600181518110612acb57612acb6130fd565b60200101906001600160f81b031916908160001a9053506000612aef8460026132e4565b612afa906001613183565b90505b6001811115612b72576f181899199a1a9b1b9c1cb0b131b232b360811b85600f1660108110612b2e57612b2e6130fd565b1a60f81b828281518110612b4457612b446130fd565b60200101906001600160f81b031916908160001a90535060049490941c93612b6b816132fb565b9050612afd565b5083156111095760405162461bcd60e51b815260206004820181905260248201527f537472696e67733a20686578206c656e67746820696e73756666696369656e74604482015260640161021c565b6000818152600183016020526040812054612c085750815460018181018455600084815260208082209093018490558454848252828601909352604090209190915561079c565b50600061079c565b60008181526001830160205260408120548015612cf9576000612c346001836131b8565b8554909150600090612c48906001906131b8565b9050818114612cad576000866000018281548110612c6857612c686130fd565b9060005260206000200154905080876000018481548110612c8b57612c8b6130fd565b6000918252602080832090910192909255918252600188019052604090208390555b8554869080612cbe57612cbe613312565b60019003818190600052602060002001600090559055856001016000868152602001908152602001600020600090556001935050505061079c565b600091505061079c565b600060208284031215612d1557600080fd5b81356001600160e01b03198116811461110957600080fd5b6001600160a01b0381168114611d1957600080fd5b60008060008060608587031215612d5857600080fd5b8435612d6381612d2d565b9350602085013567ffffffffffffffff80821115612d8057600080fd5b818701915087601f830112612d9457600080fd5b813581811115612da357600080fd5b8860208260051b8501011115612db857600080fd5b6020830195508094505050506040850135612dd281612d2d565b939692955090935050565b634e487b7160e01b600052604160045260246000fd5b60008060008060808587031215612e0957600080fd5b8435612e1481612d2d565b93506020850135612e2481612d2d565b925060408501359150606085013567ffffffffffffffff80821115612e4857600080fd5b818701915087601f830112612e5c57600080fd5b813581811115612e6e57612e6e612ddd565b604051601f8201601f19908116603f01168101908382118183101715612e9657612e96612ddd565b816040528281528a6020848701011115612eaf57600080fd5b82602086016020830137600060208483010152809550505050505092959194509250565b600060208284031215612ee557600080fd5b5035919050565b600060208284031215612efe57600080fd5b813561110981612d2d565b60008060408385031215612f1c57600080fd5b823591506020830135612f2e81612d2d565b809150509250929050565b60008060408385031215612f4c57600080fd5b8235612f5781612d2d565b946020939093013593505050565b60008060008060808587031215612f7b57600080fd5b8435935060208501359250604085013591506060850135612dd281612d2d565b60008060408385031215612fae57600080fd5b50508035926020909101359150565b60008060408385031215612fd057600080fd5b8235612fdb81612d2d565b91506020830135612f2e81612d2d565b602080825282518282018190526000919060409081850190868401855b8281101561309a5781518051855286810151878601528581015186860152606080820151908601526080808201516001600160a01b039081169187019190915260a08083015182169087015260c08083015182169087015260e0808301519091169086015261010080820151151590860152610120908101511515908501526101409093019290850190600101613008565b5091979650505050505050565b600080600080600060a086880312156130bf57600080fd5b85359450602086013593506040860135925060608601356130df81612d2d565b915060808601356130ef81612d2d565b809150509295509295909350565b634e487b7160e01b600052603260045260246000fd5b6001600160a01b039384168152919092166020820152604081019190915260600190565b634e487b7160e01b600052601160045260246000fd5b60006001820161315f5761315f613137565b5060010190565b60006020828403121561317857600080fd5b815161110981612d2d565b8082018082111561079c5761079c613137565b6000602082840312156131a857600080fd5b8151801515811461110957600080fd5b8181038181111561079c5761079c613137565b60208082526005908201526446756e647360d81b604082015260600190565b600080604083850312156131fd57600080fd5b825161320881612d2d565b6020939093015192949293505050565b60005b8381101561323357818101518382015260200161321b565b50506000910152565b7f416363657373436f6e74726f6c3a206163636f756e7420000000000000000000815260008351613274816017850160208801613218565b7001034b99036b4b9b9b4b733903937b6329607d1b60179184019182015283516132a5816028840160208801613218565b01602801949350505050565b60208152600082518060208401526132d0816040850160208701613218565b601f01601f19169190910160400192915050565b808202811582820484141761079c5761079c613137565b60008161330a5761330a613137565b506000190190565b634e487b7160e01b600052603160045260246000fdfea2646970667358221220361fd9e0067289e25b82d89c104a9c766356d3a0fa132eec46089565d515501b64736f6c63430008110033608060405234801561001057600080fd5b5061001a3361001f565b61006f565b600080546001600160a01b038381166001600160a01b0319831681178455604051919092169283917f8be0079c531659141344cd1fd0a4f28419497f9722a3daafe3b4186f6b6457e09190a35050565b61050e8061007e6000396000f3fe6080604052600436106100555760003560e01c806351cff8d91461005a578063715018a61461007c5780638da5cb5b14610091578063e3a9db1a146100be578063f2fde38b14610102578063f340fa0114610122575b600080fd5b34801561006657600080fd5b5061007a61007536600461048d565b610135565b005b34801561008857600080fd5b5061007a6101ac565b34801561009d57600080fd5b506000546040516001600160a01b0390911681526020015b60405180910390f35b3480156100ca57600080fd5b506100f46100d936600461048d565b6001600160a01b031660009081526001602052604090205490565b6040519081526020016100b5565b34801561010e57600080fd5b5061007a61011d36600461048d565b6101c0565b61007a61013036600461048d565b61023e565b61013d6102b0565b6001600160a01b0381166000818152600160205260408120805491905590610165908261030a565b816001600160a01b03167f7084f5476618d8e60b11ef0d7d3f06914655adb8793e28ff7f018d4c76d505d5826040516101a091815260200190565b60405180910390a25050565b6101b46102b0565b6101be6000610428565b565b6101c86102b0565b6001600160a01b0381166102325760405162461bcd60e51b815260206004820152602660248201527f4f776e61626c653a206e6577206f776e657220697320746865207a65726f206160448201526564647265737360d01b60648201526084015b60405180910390fd5b61023b81610428565b50565b6102466102b0565b6001600160a01b0381166000908152600160205260408120805434928392916102709084906104b1565b90915550506040518181526001600160a01b038316907f2da466a7b24304f47e87fa2e1e5a81b9831ce54fec19055ce277ca2f39ba42c4906020016101a0565b6000546001600160a01b031633146101be5760405162461bcd60e51b815260206004820181905260248201527f4f776e61626c653a2063616c6c6572206973206e6f7420746865206f776e65726044820152606401610229565b8047101561035a5760405162461bcd60e51b815260206004820152601d60248201527f416464726573733a20696e73756666696369656e742062616c616e63650000006044820152606401610229565b6000826001600160a01b03168260405160006040518083038185875af1925050503d80600081146103a7576040519150601f19603f3d011682016040523d82523d6000602084013e6103ac565b606091505b50509050806104235760405162461bcd60e51b815260206004820152603a60248201527f416464726573733a20756e61626c6520746f2073656e642076616c75652c207260448201527f6563697069656e74206d617920686176652072657665727465640000000000006064820152608401610229565b505050565b600080546001600160a01b038381166001600160a01b0319831681178455604051919092169283917f8be0079c531659141344cd1fd0a4f28419497f9722a3daafe3b4186f6b6457e09190a35050565b6001600160a01b038116811461023b57600080fd5b60006020828403121561049f57600080fd5b81356104aa81610478565b9392505050565b808201808211156104d257634e487b7160e01b600052601160045260246000fd5b9291505056fea2646970667358221220149cb0c5849cd1afdca855219c22222dc904c54635c1f3832c93b62ffb0b7f4c64736f6c63430008110033608060405234801561001057600080fd5b5061001a3361001f565b61006f565b600080546001600160a01b038381166001600160a01b0319831681178455604051919092169283917f8be0079c531659141344cd1fd0a4f28419497f9722a3daafe3b4186f6b6457e09190a35050565b61051c8061007e6000396000f3fe608060405234801561001057600080fd5b50600436106100625760003560e01c8063715018a6146100675780638340f549146100715780638da5cb5b14610084578063e763ca16146100a4578063f2fde38b146100c5578063f940e385146100d8575b600080fd5b61006f6100fb565b005b61006f61007f3660046103f7565b61010f565b6000546040516001600160a01b0390911681526020015b60405180910390f35b6100b76100b2366004610433565b610158565b60405190815260200161009b565b61006f6100d3366004610466565b610185565b6100eb6100e6366004610433565b610203565b604051901515815260200161009b565b610103610331565b61010d600061038b565b565b610117610331565b6001600160a01b0380841660009081526001602090815260408083209386168352929052908120805483929061014e90849061049e565b9091555050505050565b6001600160a01b038083166000908152600160209081526040808320938516835292905220545b92915050565b61018d610331565b6001600160a01b0381166101f75760405162461bcd60e51b815260206004820152602660248201527f4f776e61626c653a206e6577206f776e657220697320746865207a65726f206160448201526564647265737360d01b60648201526084015b60405180910390fd5b6102008161038b565b50565b600061020d610331565b6001600160a01b03808416600090815260016020908152604080832093861683529290522054806102755760405162461bcd60e51b8152602060048201526012602482015271496e73756666696369656e742066756e647360701b60448201526064016101ee565b6001600160a01b038085166000908152600160209081526040808320938716835292905290812080548392906102ac9084906104b1565b909155505060405163a9059cbb60e01b81526001600160a01b038581166004830152602482018390526000919085169063a9059cbb906044016020604051808303816000875af1158015610304573d6000803e3d6000fd5b505050506040513d601f19601f8201168201806040525081019061032891906104c4565b95945050505050565b6000546001600160a01b0316331461010d5760405162461bcd60e51b815260206004820181905260248201527f4f776e61626c653a2063616c6c6572206973206e6f7420746865206f776e657260448201526064016101ee565b600080546001600160a01b038381166001600160a01b0319831681178455604051919092169283917f8be0079c531659141344cd1fd0a4f28419497f9722a3daafe3b4186f6b6457e09190a35050565b80356001600160a01b03811681146103f257600080fd5b919050565b60008060006060848603121561040c57600080fd5b610415846103db565b9250610423602085016103db565b9150604084013590509250925092565b6000806040838503121561044657600080fd5b61044f836103db565b915061045d602084016103db565b90509250929050565b60006020828403121561047857600080fd5b610481826103db565b9392505050565b634e487b7160e01b600052601160045260246000fd5b8082018082111561017f5761017f610488565b8181038181111561017f5761017f610488565b6000602082840312156104d657600080fd5b8151801515811461048157600080fdfea26469706673582212205cc5fb277289e28f714739248ea1407c07dd55cfb36b8876f8e04cad4c2545e364736f6c63430008110033",
  "linkReferences": {},
  "deployedLinkReferences": {}
}