{
  "_format": "hh-sol-artifact-1",
  "contractName": "GLDToken",
  "sourceName": "contracts/GLDToken.sol",
  "abi": [
    {
      "inputs": [],
      "stateMutability": "nonpayable",
      "type": "constructor"
    },
    {
      "anonymous": false,
      "inputs": [
        {
          "indexed": true,
          "internalType": "address",
          "name": "owner",
          "type": "address"
        },
        {
          "indexed": true,
          "internalType": "address",
          "name": "spender",
          "type": "address"
        },
        {
          "indexed": false,
          "internalType": "uint256",
          "name": "value",
          "type": "uint256"
        }
      ],
      "name": "Approval",
      "type": "event"
    },
    {
      "anonymous": false,
      "inputs": [
        {
          "indexed": true,
          "internalType": "address",
          "name": "previousOwner",
          "type": "address"
        },
        {
          "indexed": true,
          "internalType": "address",
          "name": "newOwner",
          "type": "address"
        }
      ],
      "name": "OwnershipTransferred",
      "type": "event"
    },
    {
      "anonymous": false,
      "inputs": [
        {
          "indexed": true,
          "internalType": "address",
          "name": "from",
          "type": "address"
        },
        {
          "indexed": true,
          "internalType": "address",
          "name": "to",
          "type": "address"
        },
        {
          "indexed": false,
          "internalType": "uint256",
          "name": "value",
          "type": "uint256"
        }
      ],
      "name": "Transfer",
      "type": "event"
    },
    {
      "inputs": [],
      "name": "MAX_SUPPLY",
      "outputs": [
        {
          "internalType": "uint256",
          "name": "",
          "type": "uint256"
        }
      ],
      "stateMutability": "view",
      "type": "function"
    },
    {
      "inputs": [
        {
          "internalType": "address",
          "name": "owner",
          "type": "address"
        },
        {
          "internalType": "address",
          "name": "spender",
          "type": "address"
        }
      ],
      "name": "allowance",
      "outputs": [
        {
          "internalType": "uint256",
          "name": "",
          "type": "uint256"
        }
      ],
      "stateMutability": "view",
      "type": "function"
    },
    {
      "inputs": [
        {
          "internalType": "address",
          "name": "spender",
          "type": "address"
        },
        {
          "internalType": "uint256",
          "name": "amount",
          "type": "uint256"
        }
      ],
      "name": "approve",
      "outputs": [
        {
          "internalType": "bool",
          "name": "",
          "type": "bool"
        }
      ],
      "stateMutability": "nonpayable",
      "type": "function"
    },
    {
      "inputs": [
        {
          "internalType": "address",
          "name": "tokenAddress",
          "type": "address"
        },
        {
          "internalType": "address",
          "name": "spender",
          "type": "address"
        }
      ],
      "name": "approveForAll",
      "outputs": [],
      "stateMutability": "nonpayable",
      "type": "function"
    },
    {
      "inputs": [
        {
          "internalType": "address",
          "name": "account",
          "type": "address"
        }
      ],
      "name": "balanceOf",
      "outputs": [
        {
          "internalType": "uint256",
          "name": "",
          "type": "uint256"
        }
      ],
      "stateMutability": "view",
      "type": "function"
    },
    {
      "inputs": [],
      "name": "decimals",
      "outputs": [
        {
          "internalType": "uint8",
          "name": "",
          "type": "uint8"
        }
      ],
      "stateMutability": "view",
      "type": "function"
    },
    {
      "inputs": [
        {
          "internalType": "address",
          "name": "spender",
          "type": "address"
        },
        {
          "internalType": "uint256",
          "name": "subtractedValue",
          "type": "uint256"
        }
      ],
      "name": "decreaseAllowance",
      "outputs": [
        {
          "internalType": "bool",
          "name": "",
          "type": "bool"
        }
      ],
      "stateMutability": "nonpayable",
      "type": "function"
    },
    {
      "inputs": [
        {
          "internalType": "address",
          "name": "spender",
          "type": "address"
        },
        {
          "internalType": "uint256",
          "name": "addedValue",
          "type": "uint256"
        }
      ],
      "name": "increaseAllowance",
      "outputs": [
        {
          "internalType": "bool",
          "name": "",
          "type": "bool"
        }
      ],
      "stateMutability": "nonpayable",
      "type": "function"
    },
    {
      "inputs": [
        {
          "internalType": "address",
          "name": "to",
          "type": "address"
        },
        {
          "internalType": "uint256",
          "name": "amount",
          "type": "uint256"
        }
      ],
      "name": "mint",
      "outputs": [],
      "stateMutability": "nonpayable",
      "type": "function"
    },
    {
      "inputs": [],
      "name": "name",
      "outputs": [
        {
          "internalType": "string",
          "name": "",
          "type": "string"
        }
      ],
      "stateMutability": "view",
      "type": "function"
    },
    {
      "inputs": [],
      "name": "owner",
      "outputs": [
        {
          "internalType": "address",
          "name": "",
          "type": "address"
        }
      ],
      "stateMutability": "view",
      "type": "function"
    },
    {
      "inputs": [],
      "name": "renounceOwnership",
      "outputs": [],
      "stateMutability": "nonpayable",
      "type": "function"
    },
    {
      "inputs": [],
      "name": "symbol",
      "outputs": [
        {
          "internalType": "string",
          "name": "",
          "type": "string"
        }
      ],
      "stateMutability": "view",
      "type": "function"
    },
    {
      "inputs": [],
      "name": "totalSupply",
      "outputs": [
        {
          "internalType": "uint256",
          "name": "",
          "type": "uint256"
        }
      ],
      "stateMutability": "view",
      "type": "function"
    },
    {
      "inputs": [
        {
          "internalType": "address",
          "name": "to",
          "type": "address"
        },
        {
          "internalType": "uint256",
          "name": "amount",
          "type": "uint256"
        }
      ],
      "name": "transfer",
      "outputs": [
        {
          "internalType": "bool",
          "name": "",
          "type": "bool"
        }
      ],
      "stateMutability": "nonpayable",
      "type": "function"
    },
    {
      "inputs": [
        {
          "internalType": "address",
          "name": "from",
          "type": "address"
        },
        {
          "internalType": "address",
          "name": "to",
          "type": "address"
        },
        {
          "internalType": "uint256",
          "name": "amount",
          "type": "uint256"
        }
      ],
      "name": "transferFrom",
      "outputs": [
        {
          "internalType": "bool",
          "name": "",
          "type": "bool"
        }
      ],
      "stateMutability": "nonpayable",
      "type": "function"
    },
    {
      "inputs": [
        {
          "internalType": "address",
          "name": "newOwner",
          "type": "address"
        }
      ],
      "name": "transferOwnership",
      "outputs": [],
      "stateMutability": "nonpayable",
      "type": "function"
    }
  ],
  "bytecode": "0x60806040523480156200001157600080fd5b506040518060400160405280600481526020016311dbdb1960e21b8152506040518060400160405280600381526020016211d31160ea1b81525081600390816200005c91906200030a565b5060046200006b82826200030a565b50505062000088620000826200009f60201b60201c565b620000a3565b620f4240620000983382620000f5565b50620003fe565b3390565b600580546001600160a01b038381166001600160a01b0319831681179093556040519116919082907f8be0079c531659141344cd1fd0a4f28419497f9722a3daafe3b4186f6b6457e090600090a35050565b69d3c21bcecceda1000000816200010b60025490565b620001179190620003d6565b11156200017e5760405162461bcd60e51b815260206004820152602a60248201527f474c44546f6b656e3a2043616e6e6f74206d696e74206d6f7265207468616e206044820152696d617820737570706c7960b01b60648201526084015b60405180910390fd5b6200019582826200019960201b620005441760201c565b5050565b6001600160a01b038216620001f15760405162461bcd60e51b815260206004820152601f60248201527f45524332303a206d696e7420746f20746865207a65726f206164647265737300604482015260640162000175565b8060026000828254620002059190620003d6565b90915550506001600160a01b038216600081815260208181526040808320805486019055518481527fddf252ad1be2c89b69c2b068fc378daa952ba7f163c4a11628f55a4df523b3ef910160405180910390a362000195600083835b505050565b634e487b7160e01b600052604160045260246000fd5b600181811c908216806200029157607f821691505b602082108103620002b257634e487b7160e01b600052602260045260246000fd5b50919050565b601f8211156200026157600081815260208120601f850160051c81016020861015620002e15750805b601f850160051c820191505b818110156200030257828155600101620002ed565b505050505050565b81516001600160401b0381111562000326576200032662000266565b6200033e816200033784546200027c565b84620002b8565b602080601f8311600181146200037657600084156200035d5750858301515b600019600386901b1c1916600185901b17855562000302565b600085815260208120601f198616915b82811015620003a75788860151825594840194600190910190840162000386565b5085821015620003c65787850151600019600388901b60f8161c191681555b5050505050600190811b01905550565b80820180821115620003f857634e487b7160e01b600052601160045260246000fd5b92915050565b610c4d806200040e6000396000f3fe608060405234801561001057600080fd5b506004361061010b5760003560e01c806370a08231116100a2578063a457c2d711610071578063a457c2d714610212578063a9059cbb14610225578063dd62ed3e14610238578063f2fde38b1461024b578063f7f60ab61461025e57600080fd5b806370a08231146101be578063715018a6146101e75780638da5cb5b146101ef57806395d89b411461020a57600080fd5b8063313ce567116100de578063313ce5671461017657806332cb6b0c14610185578063395093511461019657806340c10f19146101a957600080fd5b806306fdde0314610110578063095ea7b31461012e57806318160ddd1461015157806323b872dd14610163575b600080fd5b610118610271565b6040516101259190610a75565b60405180910390f35b61014161013c366004610adf565b610303565b6040519015158152602001610125565b6002545b604051908152602001610125565b610141610171366004610b09565b61031d565b60405160128152602001610125565b61015569d3c21bcecceda100000081565b6101416101a4366004610adf565b610341565b6101bc6101b7366004610adf565b610363565b005b6101556101cc366004610b45565b6001600160a01b031660009081526020819052604090205490565b6101bc610371565b6005546040516001600160a01b039091168152602001610125565b610118610385565b610141610220366004610adf565b610394565b610141610233366004610adf565b610414565b610155610246366004610b67565b610422565b6101bc610259366004610b45565b61044d565b6101bc61026c366004610b67565b6104c6565b60606003805461028090610b9a565b80601f01602080910402602001604051908101604052809291908181526020018280546102ac90610b9a565b80156102f95780601f106102ce576101008083540402835291602001916102f9565b820191906000526020600020905b8154815290600101906020018083116102dc57829003601f168201915b5050505050905090565b600033610311818585610603565b60019150505b92915050565b60003361032b858285610727565b61033685858561079b565b506001949350505050565b6000336103118185856103548383610422565b61035e9190610bd4565b610603565b61036d828261093f565b5050565b6103796109c9565b6103836000610a23565b565b60606004805461028090610b9a565b600033816103a28286610422565b9050838110156104075760405162461bcd60e51b815260206004820152602560248201527f45524332303a2064656372656173656420616c6c6f77616e63652062656c6f77604482015264207a65726f60d81b60648201526084015b60405180910390fd5b6103368286868403610603565b60003361031181858561079b565b6001600160a01b03918216600090815260016020908152604080832093909416825291909152205490565b6104556109c9565b6001600160a01b0381166104ba5760405162461bcd60e51b815260206004820152602660248201527f4f776e61626c653a206e6577206f776e657220697320746865207a65726f206160448201526564647265737360d01b60648201526084016103fe565b6104c381610a23565b50565b60405163095ea7b360e01b81526001600160a01b03828116600483015260001960248301819052919084169063095ea7b3906044016020604051808303816000875af115801561051a573d6000803e3d6000fd5b505050506040513d601f19601f8201168201806040525081019061053e9190610bf5565b50505050565b6001600160a01b03821661059a5760405162461bcd60e51b815260206004820152601f60248201527f45524332303a206d696e7420746f20746865207a65726f20616464726573730060448201526064016103fe565b80600260008282546105ac9190610bd4565b90915550506001600160a01b038216600081815260208181526040808320805486019055518481527fddf252ad1be2c89b69c2b068fc378daa952ba7f163c4a11628f55a4df523b3ef910160405180910390a35050565b6001600160a01b0383166106655760405162461bcd60e51b8152602060048201526024808201527f45524332303a20617070726f76652066726f6d20746865207a65726f206164646044820152637265737360e01b60648201526084016103fe565b6001600160a01b0382166106c65760405162461bcd60e51b815260206004820152602260248201527f45524332303a20617070726f766520746f20746865207a65726f206164647265604482015261737360f01b60648201526084016103fe565b6001600160a01b0383811660008181526001602090815260408083209487168084529482529182902085905590518481527f8c5be1e5ebec7d5bd14f71427d1e84f3dd0314c0f7b2291e5b200ac8c7c3b925910160405180910390a3505050565b60006107338484610422565b9050600019811461053e578181101561078e5760405162461bcd60e51b815260206004820152601d60248201527f45524332303a20696e73756666696369656e7420616c6c6f77616e636500000060448201526064016103fe565b61053e8484848403610603565b6001600160a01b0383166107ff5760405162461bcd60e51b815260206004820152602560248201527f45524332303a207472616e736665722066726f6d20746865207a65726f206164604482015264647265737360d81b60648201526084016103fe565b6001600160a01b0382166108615760405162461bcd60e51b815260206004820152602360248201527f45524332303a207472616e7366657220746f20746865207a65726f206164647260448201526265737360e81b60648201526084016103fe565b6001600160a01b038316600090815260208190526040902054818110156108d95760405162461bcd60e51b815260206004820152602660248201527f45524332303a207472616e7366657220616d6f756e7420657863656564732062604482015265616c616e636560d01b60648201526084016103fe565b6001600160a01b03848116600081815260208181526040808320878703905593871680835291849020805487019055925185815290927fddf252ad1be2c89b69c2b068fc378daa952ba7f163c4a11628f55a4df523b3ef910160405180910390a361053e565b69d3c21bcecceda10000008161095460025490565b61095e9190610bd4565b11156109bf5760405162461bcd60e51b815260206004820152602a60248201527f474c44546f6b656e3a2043616e6e6f74206d696e74206d6f7265207468616e206044820152696d617820737570706c7960b01b60648201526084016103fe565b61036d8282610544565b6005546001600160a01b031633146103835760405162461bcd60e51b815260206004820181905260248201527f4f776e61626c653a2063616c6c6572206973206e6f7420746865206f776e657260448201526064016103fe565b600580546001600160a01b038381166001600160a01b0319831681179093556040519116919082907f8be0079c531659141344cd1fd0a4f28419497f9722a3daafe3b4186f6b6457e090600090a35050565b600060208083528351808285015260005b81811015610aa257858101830151858201604001528201610a86565b506000604082860101526040601f19601f8301168501019250505092915050565b80356001600160a01b0381168114610ada57600080fd5b919050565b60008060408385031215610af257600080fd5b610afb83610ac3565b946020939093013593505050565b600080600060608486031215610b1e57600080fd5b610b2784610ac3565b9250610b3560208501610ac3565b9150604084013590509250925092565b600060208284031215610b5757600080fd5b610b6082610ac3565b9392505050565b60008060408385031215610b7a57600080fd5b610b8383610ac3565b9150610b9160208401610ac3565b90509250929050565b600181811c90821680610bae57607f821691505b602082108103610bce57634e487b7160e01b600052602260045260246000fd5b50919050565b8082018082111561031757634e487b7160e01b600052601160045260246000fd5b600060208284031215610c0757600080fd5b81518015158114610b6057600080fdfea2646970667358221220ee5d9b3a6f27572586296b426179333d1a0041c06612f1656ab7882b3737200264736f6c63430008110033",
  "linkReferences": {},
  "deployedLinkReferences": {}
}