{
  "_format": "hh-sol-artifact-1",
  "contractName": "NftMock",
  "sourceName": "contracts/Nft-mock.sol",
  "abi": [
    {
      "inputs": [],
      "stateMutability": "nonpayable",
      "type": "constructor"
    },
    {
      "anonymous": false,
      "inputs": [
        {
          "indexed": true,
          "internalType": "address",
          "name": "owner",
          "type": "address"
        },
        {
          "indexed": true,
          "internalType": "address",
          "name": "approved",
          "type": "address"
        },
        {
          "indexed": true,
          "internalType": "uint256",
          "name": "tokenId",
          "type": "uint256"
        }
      ],
      "name": "Approval",
      "type": "event"
    },
    {
      "anonymous": false,
      "inputs": [
        {
          "indexed": true,
          "internalType": "address",
          "name": "owner",
          "type": "address"
        },
        {
          "indexed": true,
          "internalType": "address",
          "name": "operator",
          "type": "address"
        },
        {
          "indexed": false,
          "internalType": "bool",
          "name": "approved",
          "type": "bool"
        }
      ],
      "name": "ApprovalForAll",
      "type": "event"
    },
    {
      "anonymous": false,
      "inputs": [
        {
          "indexed": true,
          "internalType": "bytes32",
          "name": "role",
          "type": "bytes32"
        },
        {
          "indexed": true,
          "internalType": "bytes32",
          "name": "previousAdminRole",
          "type": "bytes32"
        },
        {
          "indexed": true,
          "internalType": "bytes32",
          "name": "newAdminRole",
          "type": "bytes32"
        }
      ],
      "name": "RoleAdminChanged",
      "type": "event"
    },
    {
      "anonymous": false,
      "inputs": [
        {
          "indexed": true,
          "internalType": "bytes32",
          "name": "role",
          "type": "bytes32"
        },
        {
          "indexed": true,
          "internalType": "address",
          "name": "account",
          "type": "address"
        },
        {
          "indexed": true,
          "internalType": "address",
          "name": "sender",
          "type": "address"
        }
      ],
      "name": "RoleGranted",
      "type": "event"
    },
    {
      "anonymous": false,
      "inputs": [
        {
          "indexed": true,
          "internalType": "bytes32",
          "name": "role",
          "type": "bytes32"
        },
        {
          "indexed": true,
          "internalType": "address",
          "name": "account",
          "type": "address"
        },
        {
          "indexed": true,
          "internalType": "address",
          "name": "sender",
          "type": "address"
        }
      ],
      "name": "RoleRevoked",
      "type": "event"
    },
    {
      "anonymous": false,
      "inputs": [
        {
          "indexed": true,
          "internalType": "address",
          "name": "from",
          "type": "address"
        },
        {
          "indexed": true,
          "internalType": "address",
          "name": "to",
          "type": "address"
        },
        {
          "indexed": true,
          "internalType": "uint256",
          "name": "tokenId",
          "type": "uint256"
        }
      ],
      "name": "Transfer",
      "type": "event"
    },
    {
      "inputs": [],
      "name": "DEFAULT_ADMIN_ROLE",
      "outputs": [
        {
          "internalType": "bytes32",
          "name": "",
          "type": "bytes32"
        }
      ],
      "stateMutability": "view",
      "type": "function"
    },
    {
      "inputs": [],
      "name": "MINTER_ROLE",
      "outputs": [
        {
          "internalType": "bytes32",
          "name": "",
          "type": "bytes32"
        }
      ],
      "stateMutability": "view",
      "type": "function"
    },
    {
      "inputs": [
        {
          "internalType": "address",
          "name": "to",
          "type": "address"
        },
        {
          "internalType": "uint256",
          "name": "tokenId",
          "type": "uint256"
        }
      ],
      "name": "approve",
      "outputs": [],
      "stateMutability": "nonpayable",
      "type": "function"
    },
    {
      "inputs": [
        {
          "internalType": "address",
          "name": "owner",
          "type": "address"
        }
      ],
      "name": "balanceOf",
      "outputs": [
        {
          "internalType": "uint256",
          "name": "",
          "type": "uint256"
        }
      ],
      "stateMutability": "view",
      "type": "function"
    },
    {
      "inputs": [
        {
          "internalType": "uint256",
          "name": "tokenId",
          "type": "uint256"
        }
      ],
      "name": "getApproved",
      "outputs": [
        {
          "internalType": "address",
          "name": "",
          "type": "address"
        }
      ],
      "stateMutability": "view",
      "type": "function"
    },
    {
      "inputs": [
        {
          "internalType": "bytes32",
          "name": "role",
          "type": "bytes32"
        }
      ],
      "name": "getRoleAdmin",
      "outputs": [
        {
          "internalType": "bytes32",
          "name": "",
          "type": "bytes32"
        }
      ],
      "stateMutability": "view",
      "type": "function"
    },
    {
      "inputs": [
        {
          "internalType": "bytes32",
          "name": "role",
          "type": "bytes32"
        },
        {
          "internalType": "address",
          "name": "account",
          "type": "address"
        }
      ],
      "name": "grantRole",
      "outputs": [],
      "stateMutability": "nonpayable",
      "type": "function"
    },
    {
      "inputs": [
        {
          "internalType": "bytes32",
          "name": "role",
          "type": "bytes32"
        },
        {
          "internalType": "address",
          "name": "account",
          "type": "address"
        }
      ],
      "name": "hasRole",
      "outputs": [
        {
          "internalType": "bool",
          "name": "",
          "type": "bool"
        }
      ],
      "stateMutability": "view",
      "type": "function"
    },
    {
      "inputs": [
        {
          "internalType": "address",
          "name": "owner",
          "type": "address"
        },
        {
          "internalType": "address",
          "name": "operator",
          "type": "address"
        }
      ],
      "name": "isApprovedForAll",
      "outputs": [
        {
          "internalType": "bool",
          "name": "",
          "type": "bool"
        }
      ],
      "stateMutability": "view",
      "type": "function"
    },
    {
      "inputs": [],
      "name": "name",
      "outputs": [
        {
          "internalType": "string",
          "name": "",
          "type": "string"
        }
      ],
      "stateMutability": "view",
      "type": "function"
    },
    {
      "inputs": [
        {
          "internalType": "uint256",
          "name": "tokenId",
          "type": "uint256"
        }
      ],
      "name": "ownerOf",
      "outputs": [
        {
          "internalType": "address",
          "name": "",
          "type": "address"
        }
      ],
      "stateMutability": "view",
      "type": "function"
    },
    {
      "inputs": [
        {
          "internalType": "bytes32",
          "name": "role",
          "type": "bytes32"
        },
        {
          "internalType": "address",
          "name": "account",
          "type": "address"
        }
      ],
      "name": "renounceRole",
      "outputs": [],
      "stateMutability": "nonpayable",
      "type": "function"
    },
    {
      "inputs": [
        {
          "internalType": "bytes32",
          "name": "role",
          "type": "bytes32"
        },
        {
          "internalType": "address",
          "name": "account",
          "type": "address"
        }
      ],
      "name": "revokeRole",
      "outputs": [],
      "stateMutability": "nonpayable",
      "type": "function"
    },
    {
      "inputs": [
        {
          "internalType": "address",
          "name": "to",
          "type": "address"
        }
      ],
      "name": "safeMint",
      "outputs": [],
      "stateMutability": "nonpayable",
      "type": "function"
    },
    {
      "inputs": [
        {
          "internalType": "address",
          "name": "from",
          "type": "address"
        },
        {
          "internalType": "address",
          "name": "to",
          "type": "address"
        },
        {
          "internalType": "uint256",
          "name": "tokenId",
          "type": "uint256"
        }
      ],
      "name": "safeTransferFrom",
      "outputs": [],
      "stateMutability": "nonpayable",
      "type": "function"
    },
    {
      "inputs": [
        {
          "internalType": "address",
          "name": "from",
          "type": "address"
        },
        {
          "internalType": "address",
          "name": "to",
          "type": "address"
        },
        {
          "internalType": "uint256",
          "name": "tokenId",
          "type": "uint256"
        },
        {
          "internalType": "bytes",
          "name": "data",
          "type": "bytes"
        }
      ],
      "name": "safeTransferFrom",
      "outputs": [],
      "stateMutability": "nonpayable",
      "type": "function"
    },
    {
      "inputs": [
        {
          "internalType": "address",
          "name": "operator",
          "type": "address"
        },
        {
          "internalType": "bool",
          "name": "approved",
          "type": "bool"
        }
      ],
      "name": "setApprovalForAll",
      "outputs": [],
      "stateMutability": "nonpayable",
      "type": "function"
    },
    {
      "inputs": [
        {
          "internalType": "bytes4",
          "name": "interfaceId",
          "type": "bytes4"
        }
      ],
      "name": "supportsInterface",
      "outputs": [
        {
          "internalType": "bool",
          "name": "",
          "type": "bool"
        }
      ],
      "stateMutability": "view",
      "type": "function"
    },
    {
      "inputs": [],
      "name": "symbol",
      "outputs": [
        {
          "internalType": "string",
          "name": "",
          "type": "string"
        }
      ],
      "stateMutability": "view",
      "type": "function"
    },
    {
      "inputs": [
        {
          "internalType": "uint256",
          "name": "tokenId",
          "type": "uint256"
        }
      ],
      "name": "tokenURI",
      "outputs": [
        {
          "internalType": "string",
          "name": "",
          "type": "string"
        }
      ],
      "stateMutability": "view",
      "type": "function"
    },
    {
      "inputs": [
        {
          "internalType": "address",
          "name": "from",
          "type": "address"
        },
        {
          "internalType": "address",
          "name": "to",
          "type": "address"
        },
        {
          "internalType": "uint256",
          "name": "tokenId",
          "type": "uint256"
        }
      ],
      "name": "transferFrom",
      "outputs": [],
      "stateMutability": "nonpayable",
      "type": "function"
    }
  ],
  "bytecode": "0x60806040523480156200001157600080fd5b50604051806040016040528060088152602001674e66742d6d6f636b60c01b815250604051806040016040528060048152602001634d4f434b60e01b8152508160009081620000619190620001fe565b506001620000708282620001fe565b506200008291506000905033620000b4565b620000ae7f9f2df0fed2c77648de5860a4cc508cd0818c85b8b8a1ab4ceeef8d981c8956a633620000b4565b620002ca565b60008281526006602090815260408083206001600160a01b038516845290915290205460ff16620001555760008281526006602090815260408083206001600160a01b03851684529091529020805460ff19166001179055620001143390565b6001600160a01b0316816001600160a01b0316837f2f8788117e7eff1d82e926ec794901d17c78024a50270940304540a733656f0d60405160405180910390a45b5050565b634e487b7160e01b600052604160045260246000fd5b600181811c908216806200018457607f821691505b602082108103620001a557634e487b7160e01b600052602260045260246000fd5b50919050565b601f821115620001f957600081815260208120601f850160051c81016020861015620001d45750805b601f850160051c820191505b81811015620001f557828155600101620001e0565b5050505b505050565b81516001600160401b038111156200021a576200021a62000159565b62000232816200022b84546200016f565b84620001ab565b602080601f8311600181146200026a5760008415620002515750858301515b600019600386901b1c1916600185901b178555620001f5565b600085815260208120601f198616915b828110156200029b578886015182559484019460019091019084016200027a565b5085821015620002ba5787850151600019600388901b60f8161c191681555b5050505050600190811b01905550565b61195980620002da6000396000f3fe608060405234801561001057600080fd5b50600436106101375760003560e01c80636352211e116100b8578063a22cb4651161007c578063a22cb46514610292578063b88d4fde146102a5578063c87b56dd146102b8578063d5391393146102cb578063d547741f146102f2578063e985e9c51461030557600080fd5b80636352211e1461024957806370a082311461025c57806391d148541461026f57806395d89b4114610282578063a217fddf1461028a57600080fd5b8063248a9ca3116100ff578063248a9ca3146101cc5780632f2ff15d146101fd57806336568abe1461021057806340d097c31461022357806342842e0e1461023657600080fd5b806301ffc9a71461013c57806306fdde0314610164578063081812fc14610179578063095ea7b3146101a457806323b872dd146101b9575b600080fd5b61014f61014a3660046113e0565b610341565b60405190151581526020015b60405180910390f35b61016c610352565b60405161015b919061144d565b61018c610187366004611460565b6103e4565b6040516001600160a01b03909116815260200161015b565b6101b76101b2366004611495565b61040b565b005b6101b76101c73660046114bf565b610525565b6101ef6101da366004611460565b60009081526006602052604090206001015490565b60405190815260200161015b565b6101b761020b3660046114fb565b610556565b6101b761021e3660046114fb565b61057b565b6101b7610231366004611527565b6105f9565b6101b76102443660046114bf565b610648565b61018c610257366004611460565b610663565b6101ef61026a366004611527565b6106c3565b61014f61027d3660046114fb565b610749565b61016c610774565b6101ef600081565b6101b76102a0366004611542565b610783565b6101b76102b3366004611594565b61078e565b61016c6102c6366004611460565b6107c6565b6101ef7f9f2df0fed2c77648de5860a4cc508cd0818c85b8b8a1ab4ceeef8d981c8956a681565b6101b76103003660046114fb565b61083a565b61014f610313366004611670565b6001600160a01b03918216600090815260056020908152604080832093909416825291909152205460ff1690565b600061034c8261085f565b92915050565b6060600080546103619061169a565b80601f016020809104026020016040519081016040528092919081815260200182805461038d9061169a565b80156103da5780601f106103af576101008083540402835291602001916103da565b820191906000526020600020905b8154815290600101906020018083116103bd57829003601f168201915b5050505050905090565b60006103ef82610884565b506000908152600460205260409020546001600160a01b031690565b600061041682610663565b9050806001600160a01b0316836001600160a01b0316036104885760405162461bcd60e51b815260206004820152602160248201527f4552433732313a20617070726f76616c20746f2063757272656e74206f776e656044820152603960f91b60648201526084015b60405180910390fd5b336001600160a01b03821614806104a457506104a48133610313565b6105165760405162461bcd60e51b815260206004820152603d60248201527f4552433732313a20617070726f76652063616c6c6572206973206e6f7420746f60448201527f6b656e206f776e6572206f7220617070726f76656420666f7220616c6c000000606482015260840161047f565b61052083836108e6565b505050565b61052f3382610954565b61054b5760405162461bcd60e51b815260040161047f906116d4565b6105208383836109d3565b60008281526006602052604090206001015461057181610b37565b6105208383610b41565b6001600160a01b03811633146105eb5760405162461bcd60e51b815260206004820152602f60248201527f416363657373436f6e74726f6c3a2063616e206f6e6c792072656e6f756e636560448201526e103937b632b9903337b91039b2b63360891b606482015260840161047f565b6105f58282610bc7565b5050565b7f9f2df0fed2c77648de5860a4cc508cd0818c85b8b8a1ab4ceeef8d981c8956a661062381610b37565b600061062e60075490565b905061063e600780546001019055565b6105208382610c2e565b6105208383836040518060200160405280600081525061078e565b6000818152600260205260408120546001600160a01b03168061034c5760405162461bcd60e51b8152602060048201526018602482015277115490cdcc8c4e881a5b9d985b1a59081d1bdad95b88125160421b604482015260640161047f565b60006001600160a01b03821661072d5760405162461bcd60e51b815260206004820152602960248201527f4552433732313a2061646472657373207a65726f206973206e6f7420612076616044820152683634b21037bbb732b960b91b606482015260840161047f565b506001600160a01b031660009081526003602052604090205490565b60009182526006602090815260408084206001600160a01b0393909316845291905290205460ff1690565b6060600180546103619061169a565b6105f5338383610c48565b6107983383610954565b6107b45760405162461bcd60e51b815260040161047f906116d4565b6107c084848484610d16565b50505050565b60606107d182610884565b60006107e860408051602081019091526000815290565b905060008151116108085760405180602001604052806000815250610833565b8061081284610d49565b604051602001610823929190611721565b6040516020818303038152906040525b9392505050565b60008281526006602052604090206001015461085581610b37565b6105208383610bc7565b60006001600160e01b03198216637965db0b60e01b148061034c575061034c82610ddc565b6000818152600260205260409020546001600160a01b03166108e35760405162461bcd60e51b8152602060048201526018602482015277115490cdcc8c4e881a5b9d985b1a59081d1bdad95b88125160421b604482015260640161047f565b50565b600081815260046020526040902080546001600160a01b0319166001600160a01b038416908117909155819061091b82610663565b6001600160a01b03167f8c5be1e5ebec7d5bd14f71427d1e84f3dd0314c0f7b2291e5b200ac8c7c3b92560405160405180910390a45050565b60008061096083610663565b9050806001600160a01b0316846001600160a01b031614806109a757506001600160a01b0380821660009081526005602090815260408083209388168352929052205460ff165b806109cb5750836001600160a01b03166109c0846103e4565b6001600160a01b0316145b949350505050565b826001600160a01b03166109e682610663565b6001600160a01b031614610a0c5760405162461bcd60e51b815260040161047f90611750565b6001600160a01b038216610a6e5760405162461bcd60e51b8152602060048201526024808201527f4552433732313a207472616e7366657220746f20746865207a65726f206164646044820152637265737360e01b606482015260840161047f565b826001600160a01b0316610a8182610663565b6001600160a01b031614610aa75760405162461bcd60e51b815260040161047f90611750565b600081815260046020908152604080832080546001600160a01b03199081169091556001600160a01b0387811680865260038552838620805460001901905590871680865283862080546001019055868652600290945282852080549092168417909155905184937fddf252ad1be2c89b69c2b068fc378daa952ba7f163c4a11628f55a4df523b3ef91a4505050565b6108e38133610e2c565b610b4b8282610749565b6105f55760008281526006602090815260408083206001600160a01b03851684529091529020805460ff19166001179055610b833390565b6001600160a01b0316816001600160a01b0316837f2f8788117e7eff1d82e926ec794901d17c78024a50270940304540a733656f0d60405160405180910390a45050565b610bd18282610749565b156105f55760008281526006602090815260408083206001600160a01b0385168085529252808320805460ff1916905551339285917ff6391f5c32d9c69d2a47ea670b442974b53935d1edc7fd64eb21e047a839171b9190a45050565b6105f5828260405180602001604052806000815250610e85565b816001600160a01b0316836001600160a01b031603610ca95760405162461bcd60e51b815260206004820152601960248201527f4552433732313a20617070726f766520746f2063616c6c657200000000000000604482015260640161047f565b6001600160a01b03838116600081815260056020908152604080832094871680845294825291829020805460ff191686151590811790915591519182527f17307eab39ab6107e8899845ad3d59bd9653f200f220920489ca2b5937696c31910160405180910390a3505050565b610d218484846109d3565b610d2d84848484610eb8565b6107c05760405162461bcd60e51b815260040161047f90611795565b60606000610d5683610fb9565b600101905060008167ffffffffffffffff811115610d7657610d7661157e565b6040519080825280601f01601f191660200182016040528015610da0576020820181803683370190505b5090508181016020015b600019016f181899199a1a9b1b9c1cb0b131b232b360811b600a86061a8153600a8504945084610daa57509392505050565b60006001600160e01b031982166380ac58cd60e01b1480610e0d57506001600160e01b03198216635b5e139f60e01b145b8061034c57506301ffc9a760e01b6001600160e01b031983161461034c565b610e368282610749565b6105f557610e4381611091565b610e4e8360206110a3565b604051602001610e5f9291906117e7565b60408051601f198184030181529082905262461bcd60e51b825261047f9160040161144d565b610e8f838361123f565b610e9c6000848484610eb8565b6105205760405162461bcd60e51b815260040161047f90611795565b60006001600160a01b0384163b15610fae57604051630a85bd0160e11b81526001600160a01b0385169063150b7a0290610efc90339089908890889060040161185c565b6020604051808303816000875af1925050508015610f37575060408051601f3d908101601f19168201909252610f3491810190611899565b60015b610f94573d808015610f65576040519150601f19603f3d011682016040523d82523d6000602084013e610f6a565b606091505b508051600003610f8c5760405162461bcd60e51b815260040161047f90611795565b805181602001fd5b6001600160e01b031916630a85bd0160e11b1490506109cb565b506001949350505050565b60008072184f03e93ff9f4daa797ed6e38ed64bf6a1f0160401b8310610ff85772184f03e93ff9f4daa797ed6e38ed64bf6a1f0160401b830492506040015b6d04ee2d6d415b85acef81000000008310611024576d04ee2d6d415b85acef8100000000830492506020015b662386f26fc10000831061104257662386f26fc10000830492506010015b6305f5e100831061105a576305f5e100830492506008015b612710831061106e57612710830492506004015b60648310611080576064830492506002015b600a831061034c5760010192915050565b606061034c6001600160a01b03831660145b606060006110b28360026118cc565b6110bd9060026118e3565b67ffffffffffffffff8111156110d5576110d561157e565b6040519080825280601f01601f1916602001820160405280156110ff576020820181803683370190505b509050600360fc1b8160008151811061111a5761111a6118f6565b60200101906001600160f81b031916908160001a905350600f60fb1b81600181518110611149576111496118f6565b60200101906001600160f81b031916908160001a905350600061116d8460026118cc565b6111789060016118e3565b90505b60018111156111f0576f181899199a1a9b1b9c1cb0b131b232b360811b85600f16601081106111ac576111ac6118f6565b1a60f81b8282815181106111c2576111c26118f6565b60200101906001600160f81b031916908160001a90535060049490941c936111e98161190c565b905061117b565b5083156108335760405162461bcd60e51b815260206004820181905260248201527f537472696e67733a20686578206c656e67746820696e73756666696369656e74604482015260640161047f565b6001600160a01b0382166112955760405162461bcd60e51b815260206004820181905260248201527f4552433732313a206d696e7420746f20746865207a65726f2061646472657373604482015260640161047f565b6000818152600260205260409020546001600160a01b0316156112fa5760405162461bcd60e51b815260206004820152601c60248201527f4552433732313a20746f6b656e20616c7265616479206d696e74656400000000604482015260640161047f565b6000818152600260205260409020546001600160a01b03161561135f5760405162461bcd60e51b815260206004820152601c60248201527f4552433732313a20746f6b656e20616c7265616479206d696e74656400000000604482015260640161047f565b6001600160a01b038216600081815260036020908152604080832080546001019055848352600290915280822080546001600160a01b0319168417905551839291907fddf252ad1be2c89b69c2b068fc378daa952ba7f163c4a11628f55a4df523b3ef908290a45050565b6001600160e01b0319811681146108e357600080fd5b6000602082840312156113f257600080fd5b8135610833816113ca565b60005b83811015611418578181015183820152602001611400565b50506000910152565b600081518084526114398160208601602086016113fd565b601f01601f19169290920160200192915050565b6020815260006108336020830184611421565b60006020828403121561147257600080fd5b5035919050565b80356001600160a01b038116811461149057600080fd5b919050565b600080604083850312156114a857600080fd5b6114b183611479565b946020939093013593505050565b6000806000606084860312156114d457600080fd5b6114dd84611479565b92506114eb60208501611479565b9150604084013590509250925092565b6000806040838503121561150e57600080fd5b8235915061151e60208401611479565b90509250929050565b60006020828403121561153957600080fd5b61083382611479565b6000806040838503121561155557600080fd5b61155e83611479565b91506020830135801515811461157357600080fd5b809150509250929050565b634e487b7160e01b600052604160045260246000fd5b600080600080608085870312156115aa57600080fd5b6115b385611479565b93506115c160208601611479565b925060408501359150606085013567ffffffffffffffff808211156115e557600080fd5b818701915087601f8301126115f957600080fd5b81358181111561160b5761160b61157e565b604051601f8201601f19908116603f011681019083821181831017156116335761163361157e565b816040528281528a602084870101111561164c57600080fd5b82602086016020830137600060208483010152809550505050505092959194509250565b6000806040838503121561168357600080fd5b61168c83611479565b915061151e60208401611479565b600181811c908216806116ae57607f821691505b6020821081036116ce57634e487b7160e01b600052602260045260246000fd5b50919050565b6020808252602d908201527f4552433732313a2063616c6c6572206973206e6f7420746f6b656e206f776e6560408201526c1c881bdc88185c1c1c9bdd9959609a1b606082015260800190565b600083516117338184602088016113fd565b8351908301906117478183602088016113fd565b01949350505050565b60208082526025908201527f4552433732313a207472616e736665722066726f6d20696e636f72726563742060408201526437bbb732b960d91b606082015260800190565b60208082526032908201527f4552433732313a207472616e7366657220746f206e6f6e20455243373231526560408201527131b2b4bb32b91034b6b83632b6b2b73a32b960711b606082015260800190565b7f416363657373436f6e74726f6c3a206163636f756e742000000000000000000081526000835161181f8160178501602088016113fd565b7001034b99036b4b9b9b4b733903937b6329607d1b60179184019182015283516118508160288401602088016113fd565b01602801949350505050565b6001600160a01b038581168252841660208201526040810183905260806060820181905260009061188f90830184611421565b9695505050505050565b6000602082840312156118ab57600080fd5b8151610833816113ca565b634e487b7160e01b600052601160045260246000fd5b808202811582820484141761034c5761034c6118b6565b8082018082111561034c5761034c6118b6565b634e487b7160e01b600052603260045260246000fd5b60008161191b5761191b6118b6565b50600019019056fea2646970667358221220160b21438f1894291f28970423731630accfc1388ea989d194993e977499437464736f6c63430008110033",
  "linkReferences": {},
  "deployedLinkReferences": {}
}