{
  "_format": "hh-sol-artifact-1",
  "contractName": "AuctionStorage",
  "sourceName": "contracts/AuctionStorage.sol",
  "abi": [
    {
      "inputs": [
        {
          "internalType": "string",
          "name": "message",
          "type": "string"
        }
      ],
      "name": "ErrorMessage",
      "type": "error"
    },
    {
      "inputs": [
        {
          "internalType": "string",
          "name": "failed",
          "type": "string"
        }
      ],
      "name": "FailedTransaction",
      "type": "error"
    },
    {
      "inputs": [
        {
          "internalType": "uint256",
          "name": "expected",
          "type": "uint256"
        },
        {
          "internalType": "uint256",
          "name": "amount",
          "type": "uint256"
        }
      ],
      "name": "LowAmount",
      "type": "error"
    },
    {
      "inputs": [
        {
          "internalType": "uint256",
          "name": "expected",
          "type": "uint256"
        }
      ],
      "name": "LowValue",
      "type": "error"
    },
    {
      "inputs": [],
      "name": "NoZeroValues",
      "type": "error"
    },
    {
      "inputs": [
        {
          "internalType": "bytes32",
          "name": "id",
          "type": "bytes32"
        }
      ],
      "name": "NotActive",
      "type": "error"
    },
    {
      "inputs": [],
      "name": "NotAuth",
      "type": "error"
    },
    {
      "inputs": [],
      "name": "NotTokenOwner",
      "type": "error"
    },
    {
      "inputs": [],
      "name": "bidderIsSeller",
      "type": "error"
    },
    {
      "inputs": [],
      "name": "funsNotTransfered",
      "type": "error"
    },
    {
      "inputs": [
        {
          "internalType": "uint256",
          "name": "",
          "type": "uint256"
        }
      ],
      "name": "isActiveItem",
      "type": "error"
    },
    {
      "inputs": [],
      "name": "notApproved",
      "type": "error"
    },
    {
      "inputs": [],
      "name": "tokenNotSupported",
      "type": "error"
    },
    {
      "inputs": [],
      "name": "transferFunds",
      "type": "error"
    },
    {
      "inputs": [],
      "name": "transferRoyaltiesFunds",
      "type": "error"
    },
    {
      "anonymous": false,
      "inputs": [
        {
          "indexed": true,
          "internalType": "address",
          "name": "to",
          "type": "address"
        },
        {
          "indexed": true,
          "internalType": "address",
          "name": "collection",
          "type": "address"
        },
        {
          "indexed": true,
          "internalType": "uint256",
          "name": "tokenId",
          "type": "uint256"
        }
      ],
      "name": "AssetSent",
      "type": "event"
    },
    {
      "anonymous": false,
      "inputs": [
        {
          "indexed": true,
          "internalType": "bytes32",
          "name": "auctionId",
          "type": "bytes32"
        },
        {
          "indexed": true,
          "internalType": "uint256",
          "name": "itemId",
          "type": "uint256"
        },
        {
          "indexed": true,
          "internalType": "address",
          "name": "winner",
          "type": "address"
        },
        {
          "indexed": false,
          "internalType": "uint256",
          "name": "amount",
          "type": "uint256"
        }
      ],
      "name": "AuctionClaimed",
      "type": "event"
    },
    {
      "anonymous": false,
      "inputs": [
        {
          "indexed": true,
          "internalType": "bytes32",
          "name": "auctionId",
          "type": "bytes32"
        },
        {
          "indexed": true,
          "internalType": "uint256",
          "name": "itemId",
          "type": "uint256"
        },
        {
          "indexed": true,
          "internalType": "address",
          "name": "highestBidder",
          "type": "address"
        },
        {
          "indexed": false,
          "internalType": "uint256",
          "name": "highestBid",
          "type": "uint256"
        },
        {
          "indexed": false,
          "internalType": "uint256",
          "name": "timestamp",
          "type": "uint256"
        }
      ],
      "name": "AuctionRemoved",
      "type": "event"
    },
    {
      "anonymous": false,
      "inputs": [
        {
          "indexed": true,
          "internalType": "address",
          "name": "seller",
          "type": "address"
        },
        {
          "indexed": false,
          "internalType": "uint256",
          "name": "value",
          "type": "uint256"
        }
      ],
      "name": "DepositToEscrow",
      "type": "event"
    },
    {
      "anonymous": false,
      "inputs": [
        {
          "indexed": true,
          "internalType": "contract Escrow",
          "name": "escrow",
          "type": "address"
        },
        {
          "indexed": true,
          "internalType": "contract TokenEscrow",
          "name": "tokenEscrow",
          "type": "address"
        },
        {
          "indexed": true,
          "internalType": "address",
          "name": "operator",
          "type": "address"
        }
      ],
      "name": "EscrowDeployed",
      "type": "event"
    },
    {
      "anonymous": false,
      "inputs": [
        {
          "indexed": true,
          "internalType": "bytes32",
          "name": "auctionId",
          "type": "bytes32"
        },
        {
          "indexed": true,
          "internalType": "address",
          "name": "bidder",
          "type": "address"
        },
        {
          "indexed": false,
          "internalType": "uint256",
          "name": "amount",
          "type": "uint256"
        }
      ],
      "name": "HighestBidIncrease",
      "type": "event"
    },
    {
      "anonymous": false,
      "inputs": [
        {
          "indexed": true,
          "internalType": "bytes32",
          "name": "auctionId",
          "type": "bytes32"
        },
        {
          "indexed": true,
          "internalType": "address",
          "name": "seller",
          "type": "address"
        }
      ],
      "name": "MarketAuctionCreated",
      "type": "event"
    },
    {
      "anonymous": false,
      "inputs": [
        {
          "indexed": true,
          "internalType": "bytes32",
          "name": "auctionId",
          "type": "bytes32"
        },
        {
          "indexed": true,
          "internalType": "uint256",
          "name": "itemId",
          "type": "uint256"
        }
      ],
      "name": "NoBuyer",
      "type": "event"
    },
    {
      "anonymous": false,
      "inputs": [
        {
          "indexed": true,
          "internalType": "bytes32",
          "name": "role",
          "type": "bytes32"
        },
        {
          "indexed": true,
          "internalType": "bytes32",
          "name": "previousAdminRole",
          "type": "bytes32"
        },
        {
          "indexed": true,
          "internalType": "bytes32",
          "name": "newAdminRole",
          "type": "bytes32"
        }
      ],
      "name": "RoleAdminChanged",
      "type": "event"
    },
    {
      "anonymous": false,
      "inputs": [
        {
          "indexed": true,
          "internalType": "bytes32",
          "name": "role",
          "type": "bytes32"
        },
        {
          "indexed": true,
          "internalType": "address",
          "name": "account",
          "type": "address"
        },
        {
          "indexed": true,
          "internalType": "address",
          "name": "sender",
          "type": "address"
        }
      ],
      "name": "RoleGranted",
      "type": "event"
    },
    {
      "anonymous": false,
      "inputs": [
        {
          "indexed": true,
          "internalType": "bytes32",
          "name": "role",
          "type": "bytes32"
        },
        {
          "indexed": true,
          "internalType": "address",
          "name": "account",
          "type": "address"
        },
        {
          "indexed": true,
          "internalType": "address",
          "name": "sender",
          "type": "address"
        }
      ],
      "name": "RoleRevoked",
      "type": "event"
    },
    {
      "anonymous": false,
      "inputs": [
        {
          "indexed": true,
          "internalType": "address",
          "name": "receiver",
          "type": "address"
        },
        {
          "indexed": false,
          "internalType": "uint256",
          "name": "amount",
          "type": "uint256"
        }
      ],
      "name": "TransferRoyalty",
      "type": "event"
    },
    {
      "anonymous": false,
      "inputs": [
        {
          "indexed": true,
          "internalType": "address",
          "name": "serviceWallet",
          "type": "address"
        },
        {
          "indexed": false,
          "internalType": "uint256",
          "name": "amount",
          "type": "uint256"
        }
      ],
      "name": "TransferServiceFee",
      "type": "event"
    },
    {
      "anonymous": false,
      "inputs": [
        {
          "indexed": true,
          "internalType": "address",
          "name": "seller",
          "type": "address"
        }
      ],
      "name": "WithdrawFromEscrow",
      "type": "event"
    },
    {
      "anonymous": false,
      "inputs": [
        {
          "indexed": true,
          "internalType": "address",
          "name": "to",
          "type": "address"
        },
        {
          "indexed": false,
          "internalType": "uint256",
          "name": "amount",
          "type": "uint256"
        }
      ],
      "name": "WithdrawPendingReturns",
      "type": "event"
    },
    {
      "inputs": [],
      "name": "ADMIN_ROLE",
      "outputs": [
        {
          "internalType": "bytes32",
          "name": "",
          "type": "bytes32"
        }
      ],
      "stateMutability": "view",
      "type": "function"
    },
    {
      "inputs": [],
      "name": "DEFAULT_ADMIN_ROLE",
      "outputs": [
        {
          "internalType": "bytes32",
          "name": "",
          "type": "bytes32"
        }
      ],
      "stateMutability": "view",
      "type": "function"
    },
    {
      "inputs": [
        {
          "internalType": "bytes32",
          "name": "",
          "type": "bytes32"
        }
      ],
      "name": "auctionsMapping",
      "outputs": [
        {
          "internalType": "bytes32",
          "name": "auctionId",
          "type": "bytes32"
        },
        {
          "internalType": "uint256",
          "name": "itemId",
          "type": "uint256"
        },
        {
          "internalType": "uint256",
          "name": "auctionEndTime",
          "type": "uint256"
        },
        {
          "internalType": "uint256",
          "name": "highestBid",
          "type": "uint256"
        },
        {
          "internalType": "address",
          "name": "nftContract",
          "type": "address"
        },
        {
          "internalType": "address",
          "name": "ERC20Contract",
          "type": "address"
        },
        {
          "internalType": "address",
          "name": "highestBidder",
          "type": "address"
        },
        {
          "internalType": "address payable",
          "name": "seller",
          "type": "address"
        },
        {
          "internalType": "bool",
          "name": "isERC20",
          "type": "bool"
        },
        {
          "internalType": "bool",
          "name": "ended",
          "type": "bool"
        }
      ],
      "stateMutability": "view",
      "type": "function"
    },
    {
      "inputs": [
        {
          "internalType": "address",
          "name": "payee",
          "type": "address"
        },
        {
          "internalType": "address",
          "name": "tokenAddress",
          "type": "address"
        }
      ],
      "name": "depositsOf",
      "outputs": [
        {
          "internalType": "uint256",
          "name": "",
          "type": "uint256"
        }
      ],
      "stateMutability": "view",
      "type": "function"
    },
    {
      "inputs": [],
      "name": "escrow",
      "outputs": [
        {
          "internalType": "contract Escrow",
          "name": "",
          "type": "address"
        }
      ],
      "stateMutability": "view",
      "type": "function"
    },
    {
      "inputs": [
        {
          "internalType": "bytes32",
          "name": "role",
          "type": "bytes32"
        }
      ],
      "name": "getRoleAdmin",
      "outputs": [
        {
          "internalType": "bytes32",
          "name": "",
          "type": "bytes32"
        }
      ],
      "stateMutability": "view",
      "type": "function"
    },
    {
      "inputs": [
        {
          "internalType": "bytes32",
          "name": "role",
          "type": "bytes32"
        },
        {
          "internalType": "uint256",
          "name": "index",
          "type": "uint256"
        }
      ],
      "name": "getRoleMember",
      "outputs": [
        {
          "internalType": "address",
          "name": "",
          "type": "address"
        }
      ],
      "stateMutability": "view",
      "type": "function"
    },
    {
      "inputs": [
        {
          "internalType": "bytes32",
          "name": "role",
          "type": "bytes32"
        }
      ],
      "name": "getRoleMemberCount",
      "outputs": [
        {
          "internalType": "uint256",
          "name": "",
          "type": "uint256"
        }
      ],
      "stateMutability": "view",
      "type": "function"
    },
    {
      "inputs": [
        {
          "internalType": "bytes32",
          "name": "role",
          "type": "bytes32"
        },
        {
          "internalType": "address",
          "name": "account",
          "type": "address"
        }
      ],
      "name": "grantRole",
      "outputs": [],
      "stateMutability": "nonpayable",
      "type": "function"
    },
    {
      "inputs": [
        {
          "internalType": "bytes32",
          "name": "role",
          "type": "bytes32"
        },
        {
          "internalType": "address",
          "name": "account",
          "type": "address"
        }
      ],
      "name": "hasRole",
      "outputs": [
        {
          "internalType": "bool",
          "name": "",
          "type": "bool"
        }
      ],
      "stateMutability": "view",
      "type": "function"
    },
    {
      "inputs": [
        {
          "internalType": "address",
          "name": "",
          "type": "address"
        },
        {
          "internalType": "uint256",
          "name": "",
          "type": "uint256"
        }
      ],
      "name": "isActiveTokenId",
      "outputs": [
        {
          "internalType": "bool",
          "name": "",
          "type": "bool"
        }
      ],
      "stateMutability": "view",
      "type": "function"
    },
    {
      "inputs": [
        {
          "internalType": "address",
          "name": "",
          "type": "address"
        },
        {
          "internalType": "address",
          "name": "",
          "type": "address"
        },
        {
          "internalType": "uint256",
          "name": "",
          "type": "uint256"
        },
        {
          "internalType": "bytes",
          "name": "",
          "type": "bytes"
        }
      ],
      "name": "onERC721Received",
      "outputs": [
        {
          "internalType": "bytes4",
          "name": "",
          "type": "bytes4"
        }
      ],
      "stateMutability": "nonpayable",
      "type": "function"
    },
    {
      "inputs": [
        {
          "internalType": "address",
          "name": "",
          "type": "address"
        },
        {
          "internalType": "address",
          "name": "",
          "type": "address"
        }
      ],
      "name": "pendingFunds",
      "outputs": [
        {
          "internalType": "uint256",
          "name": "",
          "type": "uint256"
        }
      ],
      "stateMutability": "view",
      "type": "function"
    },
    {
      "inputs": [
        {
          "internalType": "address",
          "name": "",
          "type": "address"
        }
      ],
      "name": "pendingReturns",
      "outputs": [
        {
          "internalType": "uint256",
          "name": "",
          "type": "uint256"
        }
      ],
      "stateMutability": "view",
      "type": "function"
    },
    {
      "inputs": [
        {
          "internalType": "bytes32",
          "name": "role",
          "type": "bytes32"
        },
        {
          "internalType": "address",
          "name": "account",
          "type": "address"
        }
      ],
      "name": "renounceRole",
      "outputs": [],
      "stateMutability": "nonpayable",
      "type": "function"
    },
    {
      "inputs": [
        {
          "internalType": "address",
          "name": "collection",
          "type": "address"
        },
        {
          "internalType": "uint256[]",
          "name": "tokenIds",
          "type": "uint256[]"
        },
        {
          "internalType": "address",
          "name": "receiver",
          "type": "address"
        }
      ],
      "name": "rescue",
      "outputs": [],
      "stateMutability": "nonpayable",
      "type": "function"
    },
    {
      "inputs": [
        {
          "internalType": "bytes32",
          "name": "role",
          "type": "bytes32"
        },
        {
          "internalType": "address",
          "name": "account",
          "type": "address"
        }
      ],
      "name": "revokeRole",
      "outputs": [],
      "stateMutability": "nonpayable",
      "type": "function"
    },
    {
      "inputs": [],
      "name": "serviceFee",
      "outputs": [
        {
          "internalType": "uint16",
          "name": "",
          "type": "uint16"
        }
      ],
      "stateMutability": "view",
      "type": "function"
    },
    {
      "inputs": [
        {
          "internalType": "bytes4",
          "name": "interfaceId",
          "type": "bytes4"
        }
      ],
      "name": "supportsInterface",
      "outputs": [
        {
          "internalType": "bool",
          "name": "",
          "type": "bool"
        }
      ],
      "stateMutability": "view",
      "type": "function"
    },
    {
      "inputs": [],
      "name": "tokenEscrow",
      "outputs": [
        {
          "internalType": "contract TokenEscrow",
          "name": "",
          "type": "address"
        }
      ],
      "stateMutability": "view",
      "type": "function"
    },
    {
      "inputs": [
        {
          "internalType": "address",
          "name": "seller",
          "type": "address"
        },
        {
          "internalType": "address",
          "name": "tokenContract",
          "type": "address"
        }
      ],
      "name": "withdrawPendingTokens",
      "outputs": [
        {
          "internalType": "bool",
          "name": "",
          "type": "bool"
        }
      ],
      "stateMutability": "nonpayable",
      "type": "function"
    },
    {
      "inputs": [
        {
          "internalType": "address payable",
          "name": "seller",
          "type": "address"
        }
      ],
      "name": "withdrawSellerRevenue",
      "outputs": [],
      "stateMutability": "nonpayable",
      "type": "function"
    }
  ],
  "bytecode": "0x608060405234801561001057600080fd5b50600160025561129e806100256000396000f3fe608060405234801561001057600080fd5b50600436106101425760003560e01c80638abdf5aa116100b8578063aac41ed61161007c578063aac41ed61461040a578063ca15c8731461041d578063d547741f14610430578063e2fdcc1714610443578063e763ca1614610456578063f5f482d91461046957600080fd5b80638abdf5aa146103715780639010d07c1461039957806391d14854146103c45780639621099b146103d7578063a217fddf1461040257600080fd5b80632f2ff15d1161010a5780632f2ff15d1461020c57806336568abe1461021f578063418e4b3c146102325780635e2fc29b146103095780635e6635691461031c57806375b238fc1461034a57600080fd5b806301ffc9a71461014757806307beac551461016f578063150b7a0214610184578063248a9ca3146101bb57806326b387bb146101ec575b600080fd5b61015a610155366004610e00565b61047c565b60405190151581526020015b60405180910390f35b61018261017d366004610e3f565b6104a7565b005b6101a2610192366004610ef0565b630a85bd0160e11b949350505050565b6040516001600160e01b03199091168152602001610166565b6101de6101c9366004610fd0565b60009081526020819052604090206001015490565b604051908152602001610166565b6101de6101fa366004610fe9565b60076020526000908152604090205481565b61018261021a366004611006565b610589565b61018261022d366004611006565b6105b3565b6102ad610240366004610fd0565b60056020819052600091825260409091208054600182015460028301546003840154600485015495850154600686015460079096015494969395929491936001600160a01b039081169391811692918116919081169060ff600160a01b8204811691600160a81b9004168a565b604080519a8b5260208b01999099529789019690965260608801949094526001600160a01b03928316608088015290821660a0870152811660c08601521660e08401521515610100830152151561012082015261014001610166565b610182610317366004610fe9565b610636565b61015a61032a366004611036565b600660209081526000928352604080842090915290825290205460ff1681565b6101de7fa49807205ce4d355092ef5a8a18f56e8913cf4a201fbe287825b095693c2177581565b60045461038690600160a01b900461ffff1681565b60405161ffff9091168152602001610166565b6103ac6103a7366004611062565b610669565b6040516001600160a01b039091168152602001610166565b61015a6103d2366004611006565b610688565b6101de6103e5366004611084565b600860209081526000928352604080842090915290825290205481565b6101de600081565b6004546103ac906001600160a01b031681565b6101de61042b366004610fd0565b6106b1565b61018261043e366004611006565b6106c8565b6003546103ac906001600160a01b031681565b6101de610464366004611084565b6106ed565b61015a610477366004611084565b610769565b60006001600160e01b03198216635a05180f60e01b14806104a157506104a18261077e565b92915050565b7fa49807205ce4d355092ef5a8a18f56e8913cf4a201fbe287825b095693c217756104d1816107b3565b60005b8381101561058157856001600160a01b03166342842e0e30858888868181106104ff576104ff6110b2565b6040516001600160e01b031960e088901b1681526001600160a01b03958616600482015294909316602485015250602090910201356044820152606401600060405180830381600087803b15801561055657600080fd5b505af115801561056a573d6000803e3d6000fd5b505050508080610579906110de565b9150506104d4565b505050505050565b6000828152602081905260409020600101546105a4816107b3565b6105ae83836107c0565b505050565b6001600160a01b03811633146106285760405162461bcd60e51b815260206004820152602f60248201527f416363657373436f6e74726f6c3a2063616e206f6e6c792072656e6f756e636560448201526e103937b632b9903337b91039b2b63360891b60648201526084015b60405180910390fd5b61063282826107e2565b5050565b806001600160a01b03811633146106605760405163060a6aeb60e51b815260040160405180910390fd5b61063282610804565b600082815260016020526040812061068190836108af565b9392505050565b6000918252602082815260408084206001600160a01b0393909316845291905290205460ff1690565b60008181526001602052604081206104a1906108bb565b6000828152602081905260409020600101546106e3816107b3565b6105ae83836107e2565b600480546040516373b1e50b60e11b81526001600160a01b038581169382019390935283831660248201526000929091169063e763ca1690604401602060405180830381865afa158015610745573d6000803e3d6000fd5b505050506040513d601f19601f8201168201806040525081019061068191906110f7565b60008061077684846108c5565b949350505050565b60006001600160e01b03198216637965db0b60e01b14806104a157506301ffc9a760e01b6001600160e01b03198316146104a1565b6107bd813361097a565b50565b6107ca82826109d3565b60008281526001602052604090206105ae9082610a57565b6107ec8282610a6c565b60008281526001602052604090206105ae9082610ad1565b6001600160a01b038181166000818152600760205260408082209190915560035490516351cff8d960e01b81526004810192909252909116906351cff8d990602401600060405180830381600087803b15801561086057600080fd5b505af1158015610874573d6000803e3d6000fd5b50506040516001600160a01b03841692507f8b893bcbc5bce509a4f8cf62a0fd8308f2ef068d8862ee06aef051027ca2a3229150600090a250565b60006106818383610ae6565b60006104a1825490565b6004805460405163f940e38560e01b81526001600160a01b038581169382019390935283831660248201526000928392169063f940e385906044016020604051808303816000875af115801561091f573d6000803e3d6000fd5b505050506040513d601f19601f820116820180604052508101906109439190611110565b90508015610681576001600160a01b0380841660009081526008602090815260408083209388168352929052908120559392505050565b6109848282610688565b6106325761099181610b10565b61099c836020610b22565b6040516020016109ad929190611156565b60408051601f198184030181529082905262461bcd60e51b825261061f916004016111cb565b6109dd8282610688565b610632576000828152602081815260408083206001600160a01b03851684529091529020805460ff19166001179055610a133390565b6001600160a01b0316816001600160a01b0316837f2f8788117e7eff1d82e926ec794901d17c78024a50270940304540a733656f0d60405160405180910390a45050565b6000610681836001600160a01b038416610cbe565b610a768282610688565b15610632576000828152602081815260408083206001600160a01b0385168085529252808320805460ff1916905551339285917ff6391f5c32d9c69d2a47ea670b442974b53935d1edc7fd64eb21e047a839171b9190a45050565b6000610681836001600160a01b038416610d0d565b6000826000018281548110610afd57610afd6110b2565b9060005260206000200154905092915050565b60606104a16001600160a01b03831660145b60606000610b318360026111fe565b610b3c906002611215565b67ffffffffffffffff811115610b5457610b54610eda565b6040519080825280601f01601f191660200182016040528015610b7e576020820181803683370190505b509050600360fc1b81600081518110610b9957610b996110b2565b60200101906001600160f81b031916908160001a905350600f60fb1b81600181518110610bc857610bc86110b2565b60200101906001600160f81b031916908160001a9053506000610bec8460026111fe565b610bf7906001611215565b90505b6001811115610c6f576f181899199a1a9b1b9c1cb0b131b232b360811b85600f1660108110610c2b57610c2b6110b2565b1a60f81b828281518110610c4157610c416110b2565b60200101906001600160f81b031916908160001a90535060049490941c93610c6881611228565b9050610bfa565b5083156106815760405162461bcd60e51b815260206004820181905260248201527f537472696e67733a20686578206c656e67746820696e73756666696369656e74604482015260640161061f565b6000818152600183016020526040812054610d05575081546001818101845560008481526020808220909301849055845484825282860190935260409020919091556104a1565b5060006104a1565b60008181526001830160205260408120548015610df6576000610d3160018361123f565b8554909150600090610d459060019061123f565b9050818114610daa576000866000018281548110610d6557610d656110b2565b9060005260206000200154905080876000018481548110610d8857610d886110b2565b6000918252602080832090910192909255918252600188019052604090208390555b8554869080610dbb57610dbb611252565b6001900381819060005260206000200160009055905585600101600086815260200190815260200160002060009055600193505050506104a1565b60009150506104a1565b600060208284031215610e1257600080fd5b81356001600160e01b03198116811461068157600080fd5b6001600160a01b03811681146107bd57600080fd5b60008060008060608587031215610e5557600080fd5b8435610e6081610e2a565b9350602085013567ffffffffffffffff80821115610e7d57600080fd5b818701915087601f830112610e9157600080fd5b813581811115610ea057600080fd5b8860208260051b8501011115610eb557600080fd5b6020830195508094505050506040850135610ecf81610e2a565b939692955090935050565b634e487b7160e01b600052604160045260246000fd5b60008060008060808587031215610f0657600080fd5b8435610f1181610e2a565b93506020850135610f2181610e2a565b925060408501359150606085013567ffffffffffffffff80821115610f4557600080fd5b818701915087601f830112610f5957600080fd5b813581811115610f6b57610f6b610eda565b604051601f8201601f19908116603f01168101908382118183101715610f9357610f93610eda565b816040528281528a6020848701011115610fac57600080fd5b82602086016020830137600060208483010152809550505050505092959194509250565b600060208284031215610fe257600080fd5b5035919050565b600060208284031215610ffb57600080fd5b813561068181610e2a565b6000806040838503121561101957600080fd5b82359150602083013561102b81610e2a565b809150509250929050565b6000806040838503121561104957600080fd5b823561105481610e2a565b946020939093013593505050565b6000806040838503121561107557600080fd5b50508035926020909101359150565b6000806040838503121561109757600080fd5b82356110a281610e2a565b9150602083013561102b81610e2a565b634e487b7160e01b600052603260045260246000fd5b634e487b7160e01b600052601160045260246000fd5b6000600182016110f0576110f06110c8565b5060010190565b60006020828403121561110957600080fd5b5051919050565b60006020828403121561112257600080fd5b8151801515811461068157600080fd5b60005b8381101561114d578181015183820152602001611135565b50506000910152565b7f416363657373436f6e74726f6c3a206163636f756e742000000000000000000081526000835161118e816017850160208801611132565b7001034b99036b4b9b9b4b733903937b6329607d1b60179184019182015283516111bf816028840160208801611132565b01602801949350505050565b60208152600082518060208401526111ea816040850160208701611132565b601f01601f19169190910160400192915050565b80820281158282048414176104a1576104a16110c8565b808201808211156104a1576104a16110c8565b600081611237576112376110c8565b506000190190565b818103818111156104a1576104a16110c8565b634e487b7160e01b600052603160045260246000fdfea26469706673582212209e7b56449e05cd213ae9e4054741eda8c887af2bc7102538227bf8ee3ef9747064736f6c63430008110033",
  "linkReferences": {},
  "deployedLinkReferences": {}
}