{
  "_format": "hh-sol-artifact-1",
  "contractName": "AuctionStorage",
  "sourceName": "contracts/AuctionStorage.sol",
  "abi": [
    {
      "inputs": [
        {
          "internalType": "string",
          "name": "message",
          "type": "string"
        }
      ],
      "name": "ErrorMessage",
      "type": "error"
    },
    {
      "inputs": [
        {
          "internalType": "string",
          "name": "failed",
          "type": "string"
        }
      ],
      "name": "FailedTransaction",
      "type": "error"
    },
    {
      "inputs": [
        {
          "internalType": "uint256",
          "name": "expected",
          "type": "uint256"
        },
        {
          "internalType": "uint256",
          "name": "amount",
          "type": "uint256"
        }
      ],
      "name": "LowAmount",
      "type": "error"
    },
    {
      "inputs": [
        {
          "internalType": "uint256",
          "name": "expected",
          "type": "uint256"
        }
      ],
      "name": "LowValue",
      "type": "error"
    },
    {
      "inputs": [],
      "name": "NoZeroValues",
      "type": "error"
    },
    {
      "inputs": [
        {
          "internalType": "bytes32",
          "name": "id",
          "type": "bytes32"
        }
      ],
      "name": "NotActive",
      "type": "error"
    },
    {
      "inputs": [],
      "name": "NotAuth",
      "type": "error"
    },
    {
      "inputs": [],
      "name": "NotTokenOwner",
      "type": "error"
    },
    {
      "inputs": [],
      "name": "bidderIsSeller",
      "type": "error"
    },
    {
      "inputs": [],
      "name": "funsNotTransfered",
      "type": "error"
    },
    {
      "inputs": [
        {
          "internalType": "uint256",
          "name": "",
          "type": "uint256"
        }
      ],
      "name": "isActiveItem",
      "type": "error"
    },
    {
      "inputs": [],
      "name": "notApproved",
      "type": "error"
    },
    {
      "inputs": [],
      "name": "tokenNotSupported",
      "type": "error"
    },
    {
      "inputs": [],
      "name": "transferFunds",
      "type": "error"
    },
    {
      "inputs": [],
      "name": "transferRoyaltiesFunds",
      "type": "error"
    },
    {
      "anonymous": false,
      "inputs": [
        {
          "indexed": true,
          "internalType": "address",
          "name": "to",
          "type": "address"
        },
        {
          "indexed": true,
          "internalType": "address",
          "name": "collection",
          "type": "address"
        },
        {
          "indexed": true,
          "internalType": "uint256",
          "name": "tokenId",
          "type": "uint256"
        }
      ],
      "name": "AssetSent",
      "type": "event"
    },
    {
      "anonymous": false,
      "inputs": [
        {
          "indexed": true,
          "internalType": "bytes32",
          "name": "auctionId",
          "type": "bytes32"
        },
        {
          "indexed": true,
          "internalType": "uint256",
          "name": "itemId",
          "type": "uint256"
        },
        {
          "indexed": true,
          "internalType": "address",
          "name": "winner",
          "type": "address"
        },
        {
          "indexed": false,
          "internalType": "uint256",
          "name": "amount",
          "type": "uint256"
        }
      ],
      "name": "AuctionClaimed",
      "type": "event"
    },
    {
      "anonymous": false,
      "inputs": [
        {
          "indexed": true,
          "internalType": "bytes32",
          "name": "auctionId",
          "type": "bytes32"
        },
        {
          "indexed": true,
          "internalType": "uint256",
          "name": "itemId",
          "type": "uint256"
        },
        {
          "indexed": true,
          "internalType": "address",
          "name": "highestBidder",
          "type": "address"
        },
        {
          "indexed": false,
          "internalType": "uint256",
          "name": "highestBid",
          "type": "uint256"
        },
        {
          "indexed": false,
          "internalType": "uint256",
          "name": "timestamp",
          "type": "uint256"
        }
      ],
      "name": "AuctionRemoved",
      "type": "event"
    },
    {
      "anonymous": false,
      "inputs": [
        {
          "indexed": true,
          "internalType": "address",
          "name": "seller",
          "type": "address"
        },
        {
          "indexed": false,
          "internalType": "uint256",
          "name": "value",
          "type": "uint256"
        }
      ],
      "name": "DepositToEscrow",
      "type": "event"
    },
    {
      "anonymous": false,
      "inputs": [
        {
          "indexed": true,
          "internalType": "contract Escrow",
          "name": "escrow",
          "type": "address"
        },
        {
          "indexed": true,
          "internalType": "contract TokenEscrow",
          "name": "tokenEscrow",
          "type": "address"
        },
        {
          "indexed": true,
          "internalType": "address",
          "name": "operator",
          "type": "address"
        }
      ],
      "name": "EscrowDeployed",
      "type": "event"
    },
    {
      "anonymous": false,
      "inputs": [
        {
          "indexed": true,
          "internalType": "bytes32",
          "name": "auctionId",
          "type": "bytes32"
        },
        {
          "indexed": true,
          "internalType": "address",
          "name": "bidder",
          "type": "address"
        },
        {
          "indexed": false,
          "internalType": "uint256",
          "name": "amount",
          "type": "uint256"
        }
      ],
      "name": "HighestBidIncrease",
      "type": "event"
    },
    {
      "anonymous": false,
      "inputs": [
        {
          "indexed": true,
          "internalType": "bytes32",
          "name": "auctionId",
          "type": "bytes32"
        },
        {
          "indexed": true,
          "internalType": "address",
          "name": "seller",
          "type": "address"
        }
      ],
      "name": "MarketAuctionCreated",
      "type": "event"
    },
    {
      "anonymous": false,
      "inputs": [
        {
          "indexed": true,
          "internalType": "bytes32",
          "name": "auctionId",
          "type": "bytes32"
        },
        {
          "indexed": true,
          "internalType": "uint256",
          "name": "itemId",
          "type": "uint256"
        }
      ],
      "name": "NoBuyer",
      "type": "event"
    },
    {
      "anonymous": false,
      "inputs": [
        {
          "indexed": true,
          "internalType": "bytes32",
          "name": "role",
          "type": "bytes32"
        },
        {
          "indexed": true,
          "internalType": "bytes32",
          "name": "previousAdminRole",
          "type": "bytes32"
        },
        {
          "indexed": true,
          "internalType": "bytes32",
          "name": "newAdminRole",
          "type": "bytes32"
        }
      ],
      "name": "RoleAdminChanged",
      "type": "event"
    },
    {
      "anonymous": false,
      "inputs": [
        {
          "indexed": true,
          "internalType": "bytes32",
          "name": "role",
          "type": "bytes32"
        },
        {
          "indexed": true,
          "internalType": "address",
          "name": "account",
          "type": "address"
        },
        {
          "indexed": true,
          "internalType": "address",
          "name": "sender",
          "type": "address"
        }
      ],
      "name": "RoleGranted",
      "type": "event"
    },
    {
      "anonymous": false,
      "inputs": [
        {
          "indexed": true,
          "internalType": "bytes32",
          "name": "role",
          "type": "bytes32"
        },
        {
          "indexed": true,
          "internalType": "address",
          "name": "account",
          "type": "address"
        },
        {
          "indexed": true,
          "internalType": "address",
          "name": "sender",
          "type": "address"
        }
      ],
      "name": "RoleRevoked",
      "type": "event"
    },
    {
      "anonymous": false,
      "inputs": [
        {
          "indexed": true,
          "internalType": "address",
          "name": "receiver",
          "type": "address"
        },
        {
          "indexed": false,
          "internalType": "uint256",
          "name": "amount",
          "type": "uint256"
        }
      ],
      "name": "TransferRoyalty",
      "type": "event"
    },
    {
      "anonymous": false,
      "inputs": [
        {
          "indexed": true,
          "internalType": "address",
          "name": "serviceWallet",
          "type": "address"
        },
        {
          "indexed": false,
          "internalType": "uint256",
          "name": "amount",
          "type": "uint256"
        }
      ],
      "name": "TransferServiceFee",
      "type": "event"
    },
    {
      "anonymous": false,
      "inputs": [
        {
          "indexed": true,
          "internalType": "address",
          "name": "seller",
          "type": "address"
        }
      ],
      "name": "WithdrawFromEscrow",
      "type": "event"
    },
    {
      "anonymous": false,
      "inputs": [
        {
          "indexed": true,
          "internalType": "address",
          "name": "to",
          "type": "address"
        },
        {
          "indexed": false,
          "internalType": "uint256",
          "name": "amount",
          "type": "uint256"
        }
      ],
      "name": "WithdrawPendingReturns",
      "type": "event"
    },
    {
      "inputs": [],
      "name": "ADMIN_ROLE",
      "outputs": [
        {
          "internalType": "bytes32",
          "name": "",
          "type": "bytes32"
        }
      ],
      "stateMutability": "view",
      "type": "function"
    },
    {
      "inputs": [],
      "name": "DEFAULT_ADMIN_ROLE",
      "outputs": [
        {
          "internalType": "bytes32",
          "name": "",
          "type": "bytes32"
        }
      ],
      "stateMutability": "view",
      "type": "function"
    },
    {
      "inputs": [
        {
          "internalType": "bytes32",
          "name": "",
          "type": "bytes32"
        }
      ],
      "name": "auctionsMapping",
      "outputs": [
        {
          "internalType": "bytes32",
          "name": "auctionId",
          "type": "bytes32"
        },
        {
          "internalType": "uint256",
          "name": "itemId",
          "type": "uint256"
        },
        {
          "internalType": "uint256",
          "name": "auctionEndTime",
          "type": "uint256"
        },
        {
          "internalType": "uint256",
          "name": "highestBid",
          "type": "uint256"
        },
        {
          "internalType": "address",
          "name": "nftContract",
          "type": "address"
        },
        {
          "internalType": "address",
          "name": "ERC20Contract",
          "type": "address"
        },
        {
          "internalType": "address",
          "name": "highestBidder",
          "type": "address"
        },
        {
          "internalType": "address payable",
          "name": "seller",
          "type": "address"
        },
        {
          "internalType": "bool",
          "name": "isERC20",
          "type": "bool"
        },
        {
          "internalType": "bool",
          "name": "ended",
          "type": "bool"
        }
      ],
      "stateMutability": "view",
      "type": "function"
    },
    {
      "inputs": [],
      "name": "escrow",
      "outputs": [
        {
          "internalType": "contract Escrow",
          "name": "",
          "type": "address"
        }
      ],
      "stateMutability": "view",
      "type": "function"
    },
    {
      "inputs": [
        {
          "internalType": "address",
          "name": "account",
          "type": "address"
        }
      ],
      "name": "getBalance",
      "outputs": [
        {
          "internalType": "uint256",
          "name": "",
          "type": "uint256"
        }
      ],
      "stateMutability": "view",
      "type": "function"
    },
    {
      "inputs": [
        {
          "internalType": "bytes32",
          "name": "role",
          "type": "bytes32"
        }
      ],
      "name": "getRoleAdmin",
      "outputs": [
        {
          "internalType": "bytes32",
          "name": "",
          "type": "bytes32"
        }
      ],
      "stateMutability": "view",
      "type": "function"
    },
    {
      "inputs": [
        {
          "internalType": "bytes32",
          "name": "role",
          "type": "bytes32"
        },
        {
          "internalType": "uint256",
          "name": "index",
          "type": "uint256"
        }
      ],
      "name": "getRoleMember",
      "outputs": [
        {
          "internalType": "address",
          "name": "",
          "type": "address"
        }
      ],
      "stateMutability": "view",
      "type": "function"
    },
    {
      "inputs": [
        {
          "internalType": "bytes32",
          "name": "role",
          "type": "bytes32"
        }
      ],
      "name": "getRoleMemberCount",
      "outputs": [
        {
          "internalType": "uint256",
          "name": "",
          "type": "uint256"
        }
      ],
      "stateMutability": "view",
      "type": "function"
    },
    {
      "inputs": [
        {
          "internalType": "bytes32",
          "name": "role",
          "type": "bytes32"
        },
        {
          "internalType": "address",
          "name": "account",
          "type": "address"
        }
      ],
      "name": "grantRole",
      "outputs": [],
      "stateMutability": "nonpayable",
      "type": "function"
    },
    {
      "inputs": [
        {
          "internalType": "bytes32",
          "name": "role",
          "type": "bytes32"
        },
        {
          "internalType": "address",
          "name": "account",
          "type": "address"
        }
      ],
      "name": "hasRole",
      "outputs": [
        {
          "internalType": "bool",
          "name": "",
          "type": "bool"
        }
      ],
      "stateMutability": "view",
      "type": "function"
    },
    {
      "inputs": [
        {
          "internalType": "address",
          "name": "",
          "type": "address"
        },
        {
          "internalType": "uint256",
          "name": "",
          "type": "uint256"
        }
      ],
      "name": "isActiveTokenId",
      "outputs": [
        {
          "internalType": "bool",
          "name": "",
          "type": "bool"
        }
      ],
      "stateMutability": "view",
      "type": "function"
    },
    {
      "inputs": [
        {
          "internalType": "address",
          "name": "",
          "type": "address"
        },
        {
          "internalType": "address",
          "name": "",
          "type": "address"
        },
        {
          "internalType": "uint256",
          "name": "",
          "type": "uint256"
        },
        {
          "internalType": "bytes",
          "name": "",
          "type": "bytes"
        }
      ],
      "name": "onERC721Received",
      "outputs": [
        {
          "internalType": "bytes4",
          "name": "",
          "type": "bytes4"
        }
      ],
      "stateMutability": "nonpayable",
      "type": "function"
    },
    {
      "inputs": [
        {
          "internalType": "address",
          "name": "",
          "type": "address"
        },
        {
          "internalType": "address",
          "name": "",
          "type": "address"
        }
      ],
      "name": "pendingFunds",
      "outputs": [
        {
          "internalType": "uint256",
          "name": "",
          "type": "uint256"
        }
      ],
      "stateMutability": "view",
      "type": "function"
    },
    {
      "inputs": [
        {
          "internalType": "address",
          "name": "",
          "type": "address"
        }
      ],
      "name": "pendingReturns",
      "outputs": [
        {
          "internalType": "uint256",
          "name": "",
          "type": "uint256"
        }
      ],
      "stateMutability": "view",
      "type": "function"
    },
    {
      "inputs": [
        {
          "internalType": "bytes32",
          "name": "role",
          "type": "bytes32"
        },
        {
          "internalType": "address",
          "name": "account",
          "type": "address"
        }
      ],
      "name": "renounceRole",
      "outputs": [],
      "stateMutability": "nonpayable",
      "type": "function"
    },
    {
      "inputs": [
        {
          "internalType": "address",
          "name": "collection",
          "type": "address"
        },
        {
          "internalType": "uint256[]",
          "name": "tokenIds",
          "type": "uint256[]"
        },
        {
          "internalType": "address",
          "name": "receiver",
          "type": "address"
        }
      ],
      "name": "rescue",
      "outputs": [],
      "stateMutability": "nonpayable",
      "type": "function"
    },
    {
      "inputs": [
        {
          "internalType": "bytes32",
          "name": "role",
          "type": "bytes32"
        },
        {
          "internalType": "address",
          "name": "account",
          "type": "address"
        }
      ],
      "name": "revokeRole",
      "outputs": [],
      "stateMutability": "nonpayable",
      "type": "function"
    },
    {
      "inputs": [],
      "name": "serviceFee",
      "outputs": [
        {
          "internalType": "uint16",
          "name": "",
          "type": "uint16"
        }
      ],
      "stateMutability": "view",
      "type": "function"
    },
    {
      "inputs": [
        {
          "internalType": "bytes4",
          "name": "interfaceId",
          "type": "bytes4"
        }
      ],
      "name": "supportsInterface",
      "outputs": [
        {
          "internalType": "bool",
          "name": "",
          "type": "bool"
        }
      ],
      "stateMutability": "view",
      "type": "function"
    },
    {
      "inputs": [],
      "name": "tokenEscrow",
      "outputs": [
        {
          "internalType": "contract TokenEscrow",
          "name": "",
          "type": "address"
        }
      ],
      "stateMutability": "view",
      "type": "function"
    },
    {
      "inputs": [
        {
          "internalType": "address payable",
          "name": "seller",
          "type": "address"
        },
        {
          "internalType": "address",
          "name": "tokenContract",
          "type": "address"
        }
      ],
      "name": "withdrawSellerFunds",
      "outputs": [
        {
          "internalType": "bool",
          "name": "",
          "type": "bool"
        }
      ],
      "stateMutability": "nonpayable",
      "type": "function"
    },
    {
      "inputs": [
        {
          "internalType": "address payable",
          "name": "seller",
          "type": "address"
        }
      ],
      "name": "withdrawSellerRevenue",
      "outputs": [],
      "stateMutability": "nonpayable",
      "type": "function"
    }
  ],
  "bytecode": "0x608060405234801561001057600080fd5b50600160025561122e806100256000396000f3fe608060405234801561001057600080fd5b50600436106101425760003560e01c806389f6710d116100b8578063a217fddf1161007c578063a217fddf14610415578063aac41ed61461041d578063ca15c87314610430578063d547741f14610443578063e2fdcc1714610456578063f8b2cb4f1461046957600080fd5b806389f6710d146103715780638abdf5aa146103845780639010d07c146103ac57806391d14854146103d75780639621099b146103ea57600080fd5b80632f2ff15d1161010a5780632f2ff15d1461020c57806336568abe1461021f578063418e4b3c146102325780635e2fc29b146103095780635e6635691461031c57806375b238fc1461034a57600080fd5b806301ffc9a71461014757806307beac551461016f578063150b7a0214610184578063248a9ca3146101bb57806326b387bb146101ec575b600080fd5b61015a610155366004610da9565b610484565b60405190151581526020015b60405180910390f35b61018261017d366004610de8565b6104af565b005b6101a2610192366004610e99565b630a85bd0160e11b949350505050565b6040516001600160e01b03199091168152602001610166565b6101de6101c9366004610f79565b60009081526020819052604090206001015490565b604051908152602001610166565b6101de6101fa366004610f92565b60076020526000908152604090205481565b61018261021a366004610faf565b610591565b61018261022d366004610faf565b6105bb565b6102ad610240366004610f79565b60056020819052600091825260409091208054600182015460028301546003840154600485015495850154600686015460079096015494969395929491936001600160a01b039081169391811692918116919081169060ff600160a01b8204811691600160a81b9004168a565b604080519a8b5260208b01999099529789019690965260608801949094526001600160a01b03928316608088015290821660a0870152811660c08601521660e08401521515610100830152151561012082015261014001610166565b610182610317366004610f92565b61063e565b61015a61032a366004610fdf565b600660209081526000928352604080842090915290825290205460ff1681565b6101de7fa49807205ce4d355092ef5a8a18f56e8913cf4a201fbe287825b095693c2177581565b61015a61037f36600461100b565b610671565b60045461039990600160a01b900461ffff1681565b60405161ffff9091168152602001610166565b6103bf6103ba366004611039565b6106b2565b6040516001600160a01b039091168152602001610166565b61015a6103e5366004610faf565b6106d1565b6101de6103f836600461100b565b600860209081526000928352604080842090915290825290205481565b6101de600081565b6004546103bf906001600160a01b031681565b6101de61043e366004610f79565b6106fa565b610182610451366004610faf565b610711565b6003546103bf906001600160a01b031681565b6101de610477366004610f92565b6001600160a01b03163190565b60006001600160e01b03198216635a05180f60e01b14806104a957506104a982610736565b92915050565b7fa49807205ce4d355092ef5a8a18f56e8913cf4a201fbe287825b095693c217756104d98161076b565b60005b8381101561058957856001600160a01b03166342842e0e30858888868181106105075761050761105b565b6040516001600160e01b031960e088901b1681526001600160a01b03958616600482015294909316602485015250602090910201356044820152606401600060405180830381600087803b15801561055e57600080fd5b505af1158015610572573d6000803e3d6000fd5b50505050808061058190611087565b9150506104dc565b505050505050565b6000828152602081905260409020600101546105ac8161076b565b6105b68383610778565b505050565b6001600160a01b03811633146106305760405162461bcd60e51b815260206004820152602f60248201527f416363657373436f6e74726f6c3a2063616e206f6e6c792072656e6f756e636560448201526e103937b632b9903337b91039b2b63360891b60648201526084015b60405180910390fd5b61063a828261079a565b5050565b806001600160a01b03811633146106685760405163060a6aeb60e51b815260040160405180910390fd5b61063a826107bc565b6000826001600160a01b038116331461069d5760405163060a6aeb60e51b815260040160405180910390fd5b60006106a98585610867565b95945050505050565b60008281526001602052604081206106ca908361090d565b9392505050565b6000918252602082815260408084206001600160a01b0393909316845291905290205460ff1690565b60008181526001602052604081206104a990610919565b60008281526020819052604090206001015461072c8161076b565b6105b6838361079a565b60006001600160e01b03198216637965db0b60e01b14806104a957506301ffc9a760e01b6001600160e01b03198316146104a9565b6107758133610923565b50565b610782828261097c565b60008281526001602052604090206105b69082610a00565b6107a48282610a15565b60008281526001602052604090206105b69082610a7a565b6001600160a01b038181166000818152600760205260408082209190915560035490516351cff8d960e01b81526004810192909252909116906351cff8d990602401600060405180830381600087803b15801561081857600080fd5b505af115801561082c573d6000803e3d6000fd5b50506040516001600160a01b03841692507f8b893bcbc5bce509a4f8cf62a0fd8308f2ef068d8862ee06aef051027ca2a3229150600090a250565b6001600160a01b038181166000818152600860209081526040808320338452825280832083905560048054825163f940e38560e01b8152898816928101929092526024820195909552905192948594169263f940e38592604480840193919291829003018187875af11580156108e1573d6000803e3d6000fd5b505050506040513d601f19601f8201168201806040525081019061090591906110a0565b949350505050565b60006106ca8383610a8f565b60006104a9825490565b61092d82826106d1565b61063a5761093a81610ab9565b610945836020610acb565b6040516020016109569291906110e6565b60408051601f198184030181529082905262461bcd60e51b82526106279160040161115b565b61098682826106d1565b61063a576000828152602081815260408083206001600160a01b03851684529091529020805460ff191660011790556109bc3390565b6001600160a01b0316816001600160a01b0316837f2f8788117e7eff1d82e926ec794901d17c78024a50270940304540a733656f0d60405160405180910390a45050565b60006106ca836001600160a01b038416610c67565b610a1f82826106d1565b1561063a576000828152602081815260408083206001600160a01b0385168085529252808320805460ff1916905551339285917ff6391f5c32d9c69d2a47ea670b442974b53935d1edc7fd64eb21e047a839171b9190a45050565b60006106ca836001600160a01b038416610cb6565b6000826000018281548110610aa657610aa661105b565b9060005260206000200154905092915050565b60606104a96001600160a01b03831660145b60606000610ada83600261118e565b610ae59060026111a5565b67ffffffffffffffff811115610afd57610afd610e83565b6040519080825280601f01601f191660200182016040528015610b27576020820181803683370190505b509050600360fc1b81600081518110610b4257610b4261105b565b60200101906001600160f81b031916908160001a905350600f60fb1b81600181518110610b7157610b7161105b565b60200101906001600160f81b031916908160001a9053506000610b9584600261118e565b610ba09060016111a5565b90505b6001811115610c18576f181899199a1a9b1b9c1cb0b131b232b360811b85600f1660108110610bd457610bd461105b565b1a60f81b828281518110610bea57610bea61105b565b60200101906001600160f81b031916908160001a90535060049490941c93610c11816111b8565b9050610ba3565b5083156106ca5760405162461bcd60e51b815260206004820181905260248201527f537472696e67733a20686578206c656e67746820696e73756666696369656e746044820152606401610627565b6000818152600183016020526040812054610cae575081546001818101845560008481526020808220909301849055845484825282860190935260409020919091556104a9565b5060006104a9565b60008181526001830160205260408120548015610d9f576000610cda6001836111cf565b8554909150600090610cee906001906111cf565b9050818114610d53576000866000018281548110610d0e57610d0e61105b565b9060005260206000200154905080876000018481548110610d3157610d3161105b565b6000918252602080832090910192909255918252600188019052604090208390555b8554869080610d6457610d646111e2565b6001900381819060005260206000200160009055905585600101600086815260200190815260200160002060009055600193505050506104a9565b60009150506104a9565b600060208284031215610dbb57600080fd5b81356001600160e01b0319811681146106ca57600080fd5b6001600160a01b038116811461077557600080fd5b60008060008060608587031215610dfe57600080fd5b8435610e0981610dd3565b9350602085013567ffffffffffffffff80821115610e2657600080fd5b818701915087601f830112610e3a57600080fd5b813581811115610e4957600080fd5b8860208260051b8501011115610e5e57600080fd5b6020830195508094505050506040850135610e7881610dd3565b939692955090935050565b634e487b7160e01b600052604160045260246000fd5b60008060008060808587031215610eaf57600080fd5b8435610eba81610dd3565b93506020850135610eca81610dd3565b925060408501359150606085013567ffffffffffffffff80821115610eee57600080fd5b818701915087601f830112610f0257600080fd5b813581811115610f1457610f14610e83565b604051601f8201601f19908116603f01168101908382118183101715610f3c57610f3c610e83565b816040528281528a6020848701011115610f5557600080fd5b82602086016020830137600060208483010152809550505050505092959194509250565b600060208284031215610f8b57600080fd5b5035919050565b600060208284031215610fa457600080fd5b81356106ca81610dd3565b60008060408385031215610fc257600080fd5b823591506020830135610fd481610dd3565b809150509250929050565b60008060408385031215610ff257600080fd5b8235610ffd81610dd3565b946020939093013593505050565b6000806040838503121561101e57600080fd5b823561102981610dd3565b91506020830135610fd481610dd3565b6000806040838503121561104c57600080fd5b50508035926020909101359150565b634e487b7160e01b600052603260045260246000fd5b634e487b7160e01b600052601160045260246000fd5b60006001820161109957611099611071565b5060010190565b6000602082840312156110b257600080fd5b815180151581146106ca57600080fd5b60005b838110156110dd5781810151838201526020016110c5565b50506000910152565b7f416363657373436f6e74726f6c3a206163636f756e742000000000000000000081526000835161111e8160178501602088016110c2565b7001034b99036b4b9b9b4b733903937b6329607d1b601791840191820152835161114f8160288401602088016110c2565b01602801949350505050565b602081526000825180602084015261117a8160408501602087016110c2565b601f01601f19169190910160400192915050565b80820281158282048414176104a9576104a9611071565b808201808211156104a9576104a9611071565b6000816111c7576111c7611071565b506000190190565b818103818111156104a9576104a9611071565b634e487b7160e01b600052603160045260246000fdfea2646970667358221220b1d4a51570fb7e4480c64634c06724377ea9ede26cd1cc554dc817ae44d4689964736f6c63430008110033",
  "linkReferences": {},
  "deployedLinkReferences": {}
}