{
  "_format": "hh-sol-artifact-1",
  "contractName": "AuctionStorage",
  "sourceName": "contracts/AuctionStorage.sol",
  "abi": [
    {
      "inputs": [
        {
          "internalType": "string",
          "name": "message",
          "type": "string"
        }
      ],
      "name": "ErrorMessage",
      "type": "error"
    },
    {
      "inputs": [
        {
          "internalType": "uint256",
          "name": "expected",
          "type": "uint256"
        }
      ],
      "name": "LowValue",
      "type": "error"
    },
    {
      "inputs": [],
      "name": "NoZeroValues",
      "type": "error"
    },
    {
      "inputs": [
        {
          "internalType": "bytes32",
          "name": "id",
          "type": "bytes32"
        }
      ],
      "name": "NotActive",
      "type": "error"
    },
    {
      "inputs": [],
      "name": "NotAuth",
      "type": "error"
    },
    {
      "inputs": [],
      "name": "NotTokenOwner",
      "type": "error"
    },
    {
      "inputs": [
        {
          "internalType": "uint256",
          "name": "",
          "type": "uint256"
        }
      ],
      "name": "isActiveItem",
      "type": "error"
    },
    {
      "inputs": [],
      "name": "notApproved",
      "type": "error"
    },
    {
      "anonymous": false,
      "inputs": [
        {
          "indexed": true,
          "internalType": "address",
          "name": "to",
          "type": "address"
        },
        {
          "indexed": true,
          "internalType": "address",
          "name": "collection",
          "type": "address"
        },
        {
          "indexed": true,
          "internalType": "uint256",
          "name": "tokenId",
          "type": "uint256"
        }
      ],
      "name": "AssetSent",
      "type": "event"
    },
    {
      "anonymous": false,
      "inputs": [
        {
          "indexed": true,
          "internalType": "bytes32",
          "name": "auctionId",
          "type": "bytes32"
        },
        {
          "indexed": true,
          "internalType": "uint256",
          "name": "itemId",
          "type": "uint256"
        },
        {
          "indexed": true,
          "internalType": "address",
          "name": "winner",
          "type": "address"
        },
        {
          "indexed": false,
          "internalType": "uint256",
          "name": "amount",
          "type": "uint256"
        }
      ],
      "name": "AuctionClaimed",
      "type": "event"
    },
    {
      "anonymous": false,
      "inputs": [
        {
          "indexed": true,
          "internalType": "bytes32",
          "name": "auctionId",
          "type": "bytes32"
        },
        {
          "indexed": true,
          "internalType": "uint256",
          "name": "itemId",
          "type": "uint256"
        },
        {
          "indexed": true,
          "internalType": "address",
          "name": "highestBidder",
          "type": "address"
        },
        {
          "indexed": false,
          "internalType": "uint256",
          "name": "highestBid",
          "type": "uint256"
        },
        {
          "indexed": false,
          "internalType": "uint256",
          "name": "timestamp",
          "type": "uint256"
        }
      ],
      "name": "AuctionRemoved",
      "type": "event"
    },
    {
      "anonymous": false,
      "inputs": [
        {
          "indexed": true,
          "internalType": "address",
          "name": "seller",
          "type": "address"
        },
        {
          "indexed": false,
          "internalType": "uint256",
          "name": "value",
          "type": "uint256"
        }
      ],
      "name": "DepositToEscrow",
      "type": "event"
    },
    {
      "anonymous": false,
      "inputs": [
        {
          "indexed": true,
          "internalType": "contract Escrow",
          "name": "escrow",
          "type": "address"
        },
        {
          "indexed": true,
          "internalType": "address",
          "name": "operator",
          "type": "address"
        }
      ],
      "name": "EscrowDeployed",
      "type": "event"
    },
    {
      "anonymous": false,
      "inputs": [
        {
          "indexed": true,
          "internalType": "bytes32",
          "name": "auctionId",
          "type": "bytes32"
        },
        {
          "indexed": true,
          "internalType": "address",
          "name": "bidder",
          "type": "address"
        },
        {
          "indexed": false,
          "internalType": "uint256",
          "name": "amount",
          "type": "uint256"
        }
      ],
      "name": "HighestBidIncrease",
      "type": "event"
    },
    {
      "anonymous": false,
      "inputs": [
        {
          "indexed": true,
          "internalType": "bytes32",
          "name": "auctionId",
          "type": "bytes32"
        },
        {
          "indexed": true,
          "internalType": "address",
          "name": "seller",
          "type": "address"
        }
      ],
      "name": "MarketAuctionCreated",
      "type": "event"
    },
    {
      "anonymous": false,
      "inputs": [
        {
          "indexed": true,
          "internalType": "bytes32",
          "name": "auctionId",
          "type": "bytes32"
        },
        {
          "indexed": true,
          "internalType": "uint256",
          "name": "itemId",
          "type": "uint256"
        }
      ],
      "name": "NoBuyer",
      "type": "event"
    },
    {
      "anonymous": false,
      "inputs": [
        {
          "indexed": true,
          "internalType": "bytes32",
          "name": "role",
          "type": "bytes32"
        },
        {
          "indexed": true,
          "internalType": "bytes32",
          "name": "previousAdminRole",
          "type": "bytes32"
        },
        {
          "indexed": true,
          "internalType": "bytes32",
          "name": "newAdminRole",
          "type": "bytes32"
        }
      ],
      "name": "RoleAdminChanged",
      "type": "event"
    },
    {
      "anonymous": false,
      "inputs": [
        {
          "indexed": true,
          "internalType": "bytes32",
          "name": "role",
          "type": "bytes32"
        },
        {
          "indexed": true,
          "internalType": "address",
          "name": "account",
          "type": "address"
        },
        {
          "indexed": true,
          "internalType": "address",
          "name": "sender",
          "type": "address"
        }
      ],
      "name": "RoleGranted",
      "type": "event"
    },
    {
      "anonymous": false,
      "inputs": [
        {
          "indexed": true,
          "internalType": "bytes32",
          "name": "role",
          "type": "bytes32"
        },
        {
          "indexed": true,
          "internalType": "address",
          "name": "account",
          "type": "address"
        },
        {
          "indexed": true,
          "internalType": "address",
          "name": "sender",
          "type": "address"
        }
      ],
      "name": "RoleRevoked",
      "type": "event"
    },
    {
      "anonymous": false,
      "inputs": [
        {
          "indexed": true,
          "internalType": "address",
          "name": "serviceWallet",
          "type": "address"
        },
        {
          "indexed": false,
          "internalType": "uint256",
          "name": "amount",
          "type": "uint256"
        }
      ],
      "name": "TransferServiceFee",
      "type": "event"
    },
    {
      "anonymous": false,
      "inputs": [
        {
          "indexed": true,
          "internalType": "address",
          "name": "seller",
          "type": "address"
        }
      ],
      "name": "WithdrawFromEscrow",
      "type": "event"
    },
    {
      "anonymous": false,
      "inputs": [
        {
          "indexed": true,
          "internalType": "address",
          "name": "to",
          "type": "address"
        },
        {
          "indexed": false,
          "internalType": "uint256",
          "name": "amount",
          "type": "uint256"
        }
      ],
      "name": "WithdrawPendingReturns",
      "type": "event"
    },
    {
      "inputs": [],
      "name": "ADMIN_ROLE",
      "outputs": [
        {
          "internalType": "bytes32",
          "name": "",
          "type": "bytes32"
        }
      ],
      "stateMutability": "view",
      "type": "function"
    },
    {
      "inputs": [],
      "name": "DEFAULT_ADMIN_ROLE",
      "outputs": [
        {
          "internalType": "bytes32",
          "name": "",
          "type": "bytes32"
        }
      ],
      "stateMutability": "view",
      "type": "function"
    },
    {
      "inputs": [
        {
          "internalType": "uint256",
          "name": "itemId",
          "type": "uint256"
        },
        {
          "internalType": "address",
          "name": "nftContract",
          "type": "address"
        }
      ],
      "name": "approveAuction",
      "outputs": [],
      "stateMutability": "nonpayable",
      "type": "function"
    },
    {
      "inputs": [
        {
          "internalType": "bytes32",
          "name": "",
          "type": "bytes32"
        }
      ],
      "name": "auctionsMapping",
      "outputs": [
        {
          "internalType": "bytes32",
          "name": "auctionId",
          "type": "bytes32"
        },
        {
          "internalType": "uint256",
          "name": "itemId",
          "type": "uint256"
        },
        {
          "internalType": "uint256",
          "name": "auctionEndTime",
          "type": "uint256"
        },
        {
          "internalType": "uint256",
          "name": "highestBid",
          "type": "uint256"
        },
        {
          "internalType": "address",
          "name": "nftContract",
          "type": "address"
        },
        {
          "internalType": "address",
          "name": "highestBidder",
          "type": "address"
        },
        {
          "internalType": "address payable",
          "name": "seller",
          "type": "address"
        },
        {
          "internalType": "bool",
          "name": "ended",
          "type": "bool"
        }
      ],
      "stateMutability": "view",
      "type": "function"
    },
    {
      "inputs": [],
      "name": "escrow",
      "outputs": [
        {
          "internalType": "contract Escrow",
          "name": "",
          "type": "address"
        }
      ],
      "stateMutability": "view",
      "type": "function"
    },
    {
      "inputs": [
        {
          "internalType": "bytes32",
          "name": "role",
          "type": "bytes32"
        }
      ],
      "name": "getRoleAdmin",
      "outputs": [
        {
          "internalType": "bytes32",
          "name": "",
          "type": "bytes32"
        }
      ],
      "stateMutability": "view",
      "type": "function"
    },
    {
      "inputs": [
        {
          "internalType": "bytes32",
          "name": "role",
          "type": "bytes32"
        },
        {
          "internalType": "uint256",
          "name": "index",
          "type": "uint256"
        }
      ],
      "name": "getRoleMember",
      "outputs": [
        {
          "internalType": "address",
          "name": "",
          "type": "address"
        }
      ],
      "stateMutability": "view",
      "type": "function"
    },
    {
      "inputs": [
        {
          "internalType": "bytes32",
          "name": "role",
          "type": "bytes32"
        }
      ],
      "name": "getRoleMemberCount",
      "outputs": [
        {
          "internalType": "uint256",
          "name": "",
          "type": "uint256"
        }
      ],
      "stateMutability": "view",
      "type": "function"
    },
    {
      "inputs": [
        {
          "internalType": "bytes32",
          "name": "role",
          "type": "bytes32"
        },
        {
          "internalType": "address",
          "name": "account",
          "type": "address"
        }
      ],
      "name": "grantRole",
      "outputs": [],
      "stateMutability": "nonpayable",
      "type": "function"
    },
    {
      "inputs": [
        {
          "internalType": "bytes32",
          "name": "role",
          "type": "bytes32"
        },
        {
          "internalType": "address",
          "name": "account",
          "type": "address"
        }
      ],
      "name": "hasRole",
      "outputs": [
        {
          "internalType": "bool",
          "name": "",
          "type": "bool"
        }
      ],
      "stateMutability": "view",
      "type": "function"
    },
    {
      "inputs": [
        {
          "internalType": "address",
          "name": "",
          "type": "address"
        },
        {
          "internalType": "uint256",
          "name": "",
          "type": "uint256"
        }
      ],
      "name": "isActiveTokenId",
      "outputs": [
        {
          "internalType": "bool",
          "name": "",
          "type": "bool"
        }
      ],
      "stateMutability": "view",
      "type": "function"
    },
    {
      "inputs": [
        {
          "internalType": "address",
          "name": "",
          "type": "address"
        },
        {
          "internalType": "address",
          "name": "",
          "type": "address"
        },
        {
          "internalType": "uint256",
          "name": "",
          "type": "uint256"
        },
        {
          "internalType": "bytes",
          "name": "",
          "type": "bytes"
        }
      ],
      "name": "onERC721Received",
      "outputs": [
        {
          "internalType": "bytes4",
          "name": "",
          "type": "bytes4"
        }
      ],
      "stateMutability": "nonpayable",
      "type": "function"
    },
    {
      "inputs": [
        {
          "internalType": "address",
          "name": "",
          "type": "address"
        }
      ],
      "name": "pendingReturns",
      "outputs": [
        {
          "internalType": "uint256",
          "name": "",
          "type": "uint256"
        }
      ],
      "stateMutability": "view",
      "type": "function"
    },
    {
      "inputs": [
        {
          "internalType": "bytes32",
          "name": "role",
          "type": "bytes32"
        },
        {
          "internalType": "address",
          "name": "account",
          "type": "address"
        }
      ],
      "name": "renounceRole",
      "outputs": [],
      "stateMutability": "nonpayable",
      "type": "function"
    },
    {
      "inputs": [
        {
          "internalType": "address",
          "name": "collection",
          "type": "address"
        },
        {
          "internalType": "uint256[]",
          "name": "tokenIds",
          "type": "uint256[]"
        },
        {
          "internalType": "address",
          "name": "receiver",
          "type": "address"
        }
      ],
      "name": "rescue",
      "outputs": [],
      "stateMutability": "nonpayable",
      "type": "function"
    },
    {
      "inputs": [
        {
          "internalType": "bytes32",
          "name": "role",
          "type": "bytes32"
        },
        {
          "internalType": "address",
          "name": "account",
          "type": "address"
        }
      ],
      "name": "revokeRole",
      "outputs": [],
      "stateMutability": "nonpayable",
      "type": "function"
    },
    {
      "inputs": [],
      "name": "serviceFee",
      "outputs": [
        {
          "internalType": "uint16",
          "name": "",
          "type": "uint16"
        }
      ],
      "stateMutability": "view",
      "type": "function"
    },
    {
      "inputs": [
        {
          "internalType": "address",
          "name": "nftContract",
          "type": "address"
        },
        {
          "internalType": "bool",
          "name": "approved",
          "type": "bool"
        }
      ],
      "name": "setApprovalForAllAuction",
      "outputs": [],
      "stateMutability": "nonpayable",
      "type": "function"
    },
    {
      "inputs": [
        {
          "internalType": "bytes4",
          "name": "interfaceId",
          "type": "bytes4"
        }
      ],
      "name": "supportsInterface",
      "outputs": [
        {
          "internalType": "bool",
          "name": "",
          "type": "bool"
        }
      ],
      "stateMutability": "view",
      "type": "function"
    },
    {
      "inputs": [
        {
          "internalType": "address payable",
          "name": "seller",
          "type": "address"
        }
      ],
      "name": "withdrawSellerRevenue",
      "outputs": [],
      "stateMutability": "nonpayable",
      "type": "function"
    }
  ],
  "bytecode": "0x608060405234801561001057600080fd5b506001600255611138806100256000396000f3fe608060405234801561001057600080fd5b506004361061012c5760003560e01c80636916956b116100ad578063a217fddf11610071578063a217fddf146103ad578063ca15c873146103b5578063d4b2633b146103c8578063d547741f146103db578063e2fdcc17146103ee57600080fd5b80636916956b1461030d57806375b238fc146103205780638abdf5aa146103475780639010d07c1461036f57806391d148541461039a57600080fd5b80632f2ff15d116100f45780632f2ff15d146101f657806336568abe14610209578063418e4b3c1461021c5780635e2fc29b146102cc5780635e663569146102df57600080fd5b806301ffc9a71461013157806307beac5514610159578063150b7a021461016e578063248a9ca3146101a557806326b387bb146101d6575b600080fd5b61014461013f366004610cd0565b610401565b60405190151581526020015b60405180910390f35b61016c610167366004610d0f565b61042c565b005b61018c61017c366004610dc0565b630a85bd0160e11b949350505050565b6040516001600160e01b03199091168152602001610150565b6101c86101b3366004610ea0565b60009081526020819052604090206001015490565b604051908152602001610150565b6101c86101e4366004610eb9565b60066020526000908152604090205481565b61016c610204366004610ed6565b61050e565b61016c610217366004610ed6565b610538565b61028061022a366004610ea0565b600460208190526000918252604090912080546001820154600283015460038401549484015460058501546006909501549395929491936001600160a01b0391821692821691811690600160a01b900460ff1688565b6040805198895260208901979097529587019490945260608601929092526001600160a01b03908116608086015290811660a08501521660c0830152151560e082015261010001610150565b61016c6102da366004610eb9565b6105bb565b6101446102ed366004610f06565b600560209081526000928352604080842090915290825290205460ff1681565b61016c61031b366004610f32565b6105ee565b6101c87fa49807205ce4d355092ef5a8a18f56e8913cf4a201fbe287825b095693c2177581565b60035461035c90600160a01b900461ffff1681565b60405161ffff9091168152602001610150565b61038261037d366004610f65565b61064c565b6040516001600160a01b039091168152602001610150565b6101446103a8366004610ed6565b61066b565b6101c8600081565b6101c86103c3366004610ea0565b610694565b61016c6103d6366004610ed6565b6106ab565b61016c6103e9366004610ed6565b6106de565b600354610382906001600160a01b031681565b60006001600160e01b03198216635a05180f60e01b1480610426575061042682610703565b92915050565b7fa49807205ce4d355092ef5a8a18f56e8913cf4a201fbe287825b095693c2177561045681610738565b60005b8381101561050657856001600160a01b03166342842e0e308588888681811061048457610484610f87565b6040516001600160e01b031960e088901b1681526001600160a01b03958616600482015294909316602485015250602090910201356044820152606401600060405180830381600087803b1580156104db57600080fd5b505af11580156104ef573d6000803e3d6000fd5b5050505080806104fe90610fb3565b915050610459565b505050505050565b60008281526020819052604090206001015461052981610738565b6105338383610745565b505050565b6001600160a01b03811633146105ad5760405162461bcd60e51b815260206004820152602f60248201527f416363657373436f6e74726f6c3a2063616e206f6e6c792072656e6f756e636560448201526e103937b632b9903337b91039b2b63360891b60648201526084015b60405180910390fd5b6105b78282610767565b5050565b806001600160a01b03811633146105e55760405163060a6aeb60e51b815260040160405180910390fd5b6105b782610789565b60405163a22cb46560e01b815230600482015281151560248201526001600160a01b0383169063a22cb465906044015b600060405180830381600087803b15801561063857600080fd5b505af1158015610506573d6000803e3d6000fd5b60008281526001602052604081206106649083610834565b9392505050565b6000918252602082815260408084206001600160a01b0393909316845291905290205460ff1690565b600081815260016020526040812061042690610840565b60405163095ea7b360e01b8152306004820152602481018390526001600160a01b0382169063095ea7b39060440161061e565b6000828152602081905260409020600101546106f981610738565b6105338383610767565b60006001600160e01b03198216637965db0b60e01b148061042657506301ffc9a760e01b6001600160e01b0319831614610426565b610742813361084a565b50565b61074f82826108a3565b60008281526001602052604090206105339082610927565b610771828261093c565b600082815260016020526040902061053390826109a1565b6001600160a01b038181166000818152600660205260408082209190915560035490516351cff8d960e01b81526004810192909252909116906351cff8d990602401600060405180830381600087803b1580156107e557600080fd5b505af11580156107f9573d6000803e3d6000fd5b50506040516001600160a01b03841692507f8b893bcbc5bce509a4f8cf62a0fd8308f2ef068d8862ee06aef051027ca2a3229150600090a250565b600061066483836109b6565b6000610426825490565b610854828261066b565b6105b757610861816109e0565b61086c8360206109f2565b60405160200161087d929190610ff0565b60408051601f198184030181529082905262461bcd60e51b82526105a491600401611065565b6108ad828261066b565b6105b7576000828152602081815260408083206001600160a01b03851684529091529020805460ff191660011790556108e33390565b6001600160a01b0316816001600160a01b0316837f2f8788117e7eff1d82e926ec794901d17c78024a50270940304540a733656f0d60405160405180910390a45050565b6000610664836001600160a01b038416610b8e565b610946828261066b565b156105b7576000828152602081815260408083206001600160a01b0385168085529252808320805460ff1916905551339285917ff6391f5c32d9c69d2a47ea670b442974b53935d1edc7fd64eb21e047a839171b9190a45050565b6000610664836001600160a01b038416610bdd565b60008260000182815481106109cd576109cd610f87565b9060005260206000200154905092915050565b60606104266001600160a01b03831660145b60606000610a01836002611098565b610a0c9060026110af565b67ffffffffffffffff811115610a2457610a24610daa565b6040519080825280601f01601f191660200182016040528015610a4e576020820181803683370190505b509050600360fc1b81600081518110610a6957610a69610f87565b60200101906001600160f81b031916908160001a905350600f60fb1b81600181518110610a9857610a98610f87565b60200101906001600160f81b031916908160001a9053506000610abc846002611098565b610ac79060016110af565b90505b6001811115610b3f576f181899199a1a9b1b9c1cb0b131b232b360811b85600f1660108110610afb57610afb610f87565b1a60f81b828281518110610b1157610b11610f87565b60200101906001600160f81b031916908160001a90535060049490941c93610b38816110c2565b9050610aca565b5083156106645760405162461bcd60e51b815260206004820181905260248201527f537472696e67733a20686578206c656e67746820696e73756666696369656e7460448201526064016105a4565b6000818152600183016020526040812054610bd557508154600181810184556000848152602080822090930184905584548482528286019093526040902091909155610426565b506000610426565b60008181526001830160205260408120548015610cc6576000610c016001836110d9565b8554909150600090610c15906001906110d9565b9050818114610c7a576000866000018281548110610c3557610c35610f87565b9060005260206000200154905080876000018481548110610c5857610c58610f87565b6000918252602080832090910192909255918252600188019052604090208390555b8554869080610c8b57610c8b6110ec565b600190038181906000526020600020016000905590558560010160008681526020019081526020016000206000905560019350505050610426565b6000915050610426565b600060208284031215610ce257600080fd5b81356001600160e01b03198116811461066457600080fd5b6001600160a01b038116811461074257600080fd5b60008060008060608587031215610d2557600080fd5b8435610d3081610cfa565b9350602085013567ffffffffffffffff80821115610d4d57600080fd5b818701915087601f830112610d6157600080fd5b813581811115610d7057600080fd5b8860208260051b8501011115610d8557600080fd5b6020830195508094505050506040850135610d9f81610cfa565b939692955090935050565b634e487b7160e01b600052604160045260246000fd5b60008060008060808587031215610dd657600080fd5b8435610de181610cfa565b93506020850135610df181610cfa565b925060408501359150606085013567ffffffffffffffff80821115610e1557600080fd5b818701915087601f830112610e2957600080fd5b813581811115610e3b57610e3b610daa565b604051601f8201601f19908116603f01168101908382118183101715610e6357610e63610daa565b816040528281528a6020848701011115610e7c57600080fd5b82602086016020830137600060208483010152809550505050505092959194509250565b600060208284031215610eb257600080fd5b5035919050565b600060208284031215610ecb57600080fd5b813561066481610cfa565b60008060408385031215610ee957600080fd5b823591506020830135610efb81610cfa565b809150509250929050565b60008060408385031215610f1957600080fd5b8235610f2481610cfa565b946020939093013593505050565b60008060408385031215610f4557600080fd5b8235610f5081610cfa565b915060208301358015158114610efb57600080fd5b60008060408385031215610f7857600080fd5b50508035926020909101359150565b634e487b7160e01b600052603260045260246000fd5b634e487b7160e01b600052601160045260246000fd5b600060018201610fc557610fc5610f9d565b5060010190565b60005b83811015610fe7578181015183820152602001610fcf565b50506000910152565b7f416363657373436f6e74726f6c3a206163636f756e7420000000000000000000815260008351611028816017850160208801610fcc565b7001034b99036b4b9b9b4b733903937b6329607d1b6017918401918201528351611059816028840160208801610fcc565b01602801949350505050565b6020815260008251806020840152611084816040850160208701610fcc565b601f01601f19169190910160400192915050565b808202811582820484141761042657610426610f9d565b8082018082111561042657610426610f9d565b6000816110d1576110d1610f9d565b506000190190565b8181038181111561042657610426610f9d565b634e487b7160e01b600052603160045260246000fdfea26469706673582212200bc24f7c128feccc54e9a3e6d26df6543048bbd18fc6436528a1c5bf671228a964736f6c63430008110033",
  "linkReferences": {},
  "deployedLinkReferences": {}
}